:400000000080002011000000150800001508000008B5044B1A6803F53F5302331A6000F019FC00BFFA46004010B5054C237833B9044B13B10448AFF300800123237010BD28
:400040004881FF1F00000000201E0000084B10B51BB108490848AFF300800848036803B910BD074B002BFBD0BDE81040184700BF000000004C81FF1F201E0000C880FF1F86
:400080000000000010B544F62064B4FBF0F4064B1B78E0B201F0AAF8C4F3470001F0ACF801F0F0F810BD00BF0F4F004008B5002001F0A2F801F086F808BD00BF08B5044827
:4000C00000F02AF9034800F0E3F800F079FF08BD9C81FF1F9481FF1F08B5124800F0E2FF114801F0D9FB00F02FFF00F03BFF01F08DF901F099F900F0A7FF00F019FD002137
:40010000084600F023FD00F0EFFD00F0B3FD01F037F800F027FE01F0F5F901F075FB01F093F908BDBD0000007104000038B50D4602460021084800F051F8084C01462046C9
:4001400000F084F82946064800F064F80146204600F07CF838BD00BF850000009481FF1FAD00000008B54FF496714FF4C870FFF7DDFF08BD30B583B0FFF7AEFF144B002489
:400180001C605C60134D2C606C6062B601221E21114800F097F80146284600F0B3F88DF8074000F0D1F88DF8070000F0FFFD28B100F0E6FD01F024FAFFF7D4FF01F0F0F952
:4001C0000028EED001F0ACF900F0FCFDE9E700BF9481FF1F9C81FF1F8103000070B505460E461446102001F03BFD58B9012000F053FC0021084600F0A9FC054800F03EFCB6
:40020000002070BD0681056000224260448170BD241E000038B504460D46102001F020FD58B9012000F038FC0021084600F08EFC054800F023FC002038BD058144600022C9
:4002400002606422428138BD2C1E000031B1426812B9416001607047D1604160704700BF034600685A68904203D100221A605A607047C2681A60704703682BB11A892AB1F6
:40028000013A1A8100207047002070470120704710B50446FFF7F0FF012811D12046FFF7DFFF044660B1036823B140899847204601F0DEFC63681BB19847204601F0D8FC95
:4002C00010BD00BF70B505460E461446182001F0C7FC58B9012000F0DFFB0021084600F035FC074800F0CAFB002070BD00224281068145600260447342610122027370BDF9
:400300002C1E000039B1026812B9016041607047426851614160704710B5046811E0237B012B0DD163894BB923896381636803B19847236823B12069984701E0013B638177
:400340006469002CEBD110BD024B187800221A70704700BF6481FF1F024630B1074B5B781BB9064B187001215970044B5B78012B02D10AB9014B5A70704700BF6481FF1FA0
:4003800010B5012000F000FC00F02EFC08B9002400E0312400F030FC00B1322400F034FC00B1332400F038FC00B1412434B1002000F0EAFB2046FFF7CFFF10BD002000F0D1
:4003C000E3FB012000F0ECFB00F00EFC00B1342400F012FC00B1352400F016FC00B1362400F01AFC00B1422434B1002000F0D8FB2046FFF7B1FF10BD002000F0D1FB012054
:4004000000F0DAFB00F0F0FB00B1372400F0F4FB00B1382400F0F8FB00B1392400F0FCFB00B1432434B1002000F0C6FB2046FFF793FF10BD002000F0BFFB012000F0C8FB25
:4004400000F0D2FB00B12A2400F0D6FB00B1302400F0DAFB00B1232400F0DEFB00B14424002000F0B5FB2046FFF776FF10BD00BF00B583B000F07EFD80B2ADF80600BDF859
:4004800006309BB20A4A1288934203D2BDF80620074B1A80BDF806309BB2064A1288934203D9BDF80620034B1A8003B05DF804FBCC80FF1F6881FF1FFEE700BFF0B40022E2
:4004C000174611E050F82760F3B226F0FF0608E001EB420511F812406D78A5550132013BDBB2002BF4D10137232FEBD9F0BC704708B50A46002101F0CEFB08BDF8B51E4B6A
:400500001B78DBB21D4E3478E4B21D4F3D78EDB203F007011B4A11701B090132137044F00303337045F003033B700A20164B1870042290331A704023144A1370023213702F
:4005400006321370023213701022114B1A702023104A137003321370802105321170033213702D32137001F069FA3D7034704422094B1A70F8BD00BFCF010049F846004032
:40058000F94600406E5800403D51004001590040905A0040205B00407658004008B501F06FFB08BD38B50B22394B1A801823394A13704FF49C7238490A8002310B700231C8
:4005C0000A80364A137040F28F1204310A8002310B7002310A80324A137040F2AF41023211800232137008222E492F48FFF7D6FF02222E4B1A7008224FF040231A70032150
:4006000003F5007319702A4B1B78DBB229490B70294B1A8041F25122023B1A80002419250CE0264B1B7803F0010343EA440404F003044FF4F07001F0D7FA013D0DB1032C70
:40064000EFD115B90320FFF737FF1D4B4FF480721A8007221A7000221A490A704820023108701A700222033B1A7004220A331A70154A137843F03F031370013A137843F063
:4006800003031370013A137843F08003137038BD8040004082400040844000408A40004092400040440A0048004100400043004008010049A146004022420040254200403D
:4006C0000440004006400040A243004038B572B63B4A137843F00403137000240CE0394D630019194A0011462A44084691882858FFF7FEFE0134E4B2082CF0D900240CE0FE
:400700003048A20011194B000344B3F84020D96B986BFFF743FF0134E4B2012CF0D92A494FF09040FFF7CAFE284A137843F0020313701032137843F002031370244C23780D
:4007400043F040032370A2F58632513A137843F0100313700A221F491F48FFF71FFF05221E491F48FFF71AFF0A221E491E48FFF715FF08221D491E48FFF710FF08221D49A1
:400780001D48FFF70BFF08221C491D48FFF706FF1C4A137843F0080313701B4D61232B70FFF700FF81232B700122184B1A70FFF7A5FE0E2221461648FFF7F0FE38BD00BF42
:4007C000E84600403C1E00009000004803500140A04300400C0A0048C0510040180A0048CB510040200A0048F05100402C0A004812510040340A0048225100403C0A004852
:4008000032510040224300400048004004000840B043004008B501F0F7F903680C2B00D1FEE7FEE708B5094B1A681044084BC31AB3F5006F02DC054B186005E001F0E4F9E7
:400840000C2303604FF0FF32104608BDD080FF1FE881FF1F08B5104E104D16E029686B68AC68002204E051F8040B43F8040B0432A242F8D1E868002203E0002143F8041B25
:4008800004328242F9D11035013E002EE6D101F0C1F9FFF76FFCFEE701000000B01E000008B5104A104B1A60104A136843F40073136000230AE0032B03D80D4A52F8231083
:4008C00000E00C490C4A42F8231001332F2BF2D90A4B1A780A4B1A70074A0A4B1A60FFF7F5FE08BD0004FA050CED00E014ED00E000000000150800000080FF1FBC76004029
:40090000C080FF1F08ED00E010B50B4C237803F09F032370237803F0F00323702378184340F010002070012001F088F8237803F0EF03237010BD00BF2051004038B50546B1
:400940000E4C237843F020032370237803F0BF032370002001F072F8237803F0F003237023781D4345F010052570012001F066F8237803F0EF03237038BD00BF2051004065
:4009800070B5354B1A7802F08002D2B21A7033490A7802F0F00242F00F020A7001310A7802F0F0020A7001310A7802F0F0020A701A7802F0DF021A701A7842F040021A703C
:4009C0004FF4CA76002001F039F8234D2B7843F010032B70012001F031F8214B1C78E4B22B7803F0EF032B70002001F027F804F00804E4B22B7843F010032B70012001F0EE
:400A00001DF82B7803F0EF032B7014B90A2001F015F8013E0CB1002ED4D10F4A137803F0BF031370137803F08003DBB213700232137803F0F00313700132137803F0F003C1
:400A400043F00F0313700132137803F0F00343F00F03137070BD00BF20510040225100402151004010B50446FFF78AFF2009FFF765FF04F00F00FFF761FF10BD38B50546D1
:400A80000078012404E0FFF7EDFF285D0134E4B20028F8D138BD00BF10B50446FFF770FF2009FFF731FF04F00F00FFF72DFF10BD08B5282000F0ACFF0320FFF725FF052027
:400AC00000F0A6FF0320FFF71FFF0F2000F0A0FF0320FFF719FF012000F09AFF0220FFF713FF052000F094FF0620FFF7D5FF0E20FFF7D2FF2C20FFF7CFFF0820FFF7CCFFE1
:400B00000120FFF7C9FF0C20FFF7C6FF0320FFF7C3FF052000F07CFF08BD00BF08B50C20FFF7BAFF0122014B1A7008BD7081FF1F08B5054B5B7823B9FFF7BAFF0122024BC0
:400B40005A70FFF7EBFF08BD7081FF1F08B5032819D8DFE800F002070D1381F08000FFF79BFF08BDA1F14000C0B2FFF795FF08BDA1F16C00C0B2FFF78FFF08BDA1F12C00EE
:400B8000C0B2FFF789FF08BD044A137803F0EF03000100F0100018431070704710510040044A137803F0DF03400100F0200018431070704710510040044A137803F0BF03CE
:400BC000800100F0400018431070704710510040044A137803F07F03C001C0B218431070704700BF10510040024B187800F00100704700BF31510040024B1878C0F3C00048
:400C0000704700BFC1510040024B1878C0F30010704700BFC1510040024B1878C0F34010704700BFC151004008B500F0E5FF0A4A137843F020031370013A137843F0100387
:400C40001370013A137843F01003137000F0D8FF00F0ECFD08BD00BF96650040014B1878704700BF65650040014B1878704700BF64650040024A137803F0FE031370704747
:400C80007565004008B501E00A4B1B780A4B1B7813F0200FF8D100F0AFFF084B1A7842F001021A701A7802F0FE021A7000F0A8FF08BD00BF56650040646500409665004007
:400CC00008B50F22064B1A70FFF7DCFFFFF7C6FFFFF7CAFF0023034A1370013A137008BD866500408565004008B5054B1B7823B9FFF7E6FF0122024B1A70FFF795FF08BD75
:400D00007281FF1F7222084B1A702022A3F580731A700622663B1A70472210331A70002255331A70704700BF8965004010B500F063FF04460A4A137843F020031370A2F5C9
:400D40008072137843F010031370013A137843F01003137000F078FD204600F051FF10BD9965004008B5054B1B7823B9FFF7CAFF0122024B1A70FFF7D9FF08BD7381FF1FAE
:400D8000084B1B78DBB213F0200F06D0064A1078C0B213F01E0F02D17047002070470020704700BF6964004049640040044B1B7813F0200F01D0012070470020704700BFFA
:400DC00069640040034B1B7813F0040FFAD1024B18707047686400404865004008B50A280FD00C2802D0082806D102E04FF4805209E04FF4807206E0002000F007FE002292
:400E000001E04FF480620021094B198042F2107303FB02F303F6C413064A82FB0302DB17C3EBE223044A1360044B198008BD00BFB881FF1FAD8BDB68C081FF1FBC81FF1FF4
:400E400038B500F0D9FE04461E4A137843F0020313701032137843F0020313701A3A137843F0020313701032137843F00203137002F5AA521A32137843F00303137018225C
:400E8000114B1A70013B1A7842F040021A701A7802F0FC021A70C822053B1A700225A3F59753123B1D70094A137843F0080313700A2000F0C3FD064B1D60204600F0A0FE02
:400EC00038BD00BFAB4300400E5900402F5B004080E200E010B504460A280DD00C2802D0082804D101E0C22207E0422205E0002000F08CFDC22200E08222034B1A70204600
:400F0000FFF76CFF10BD00BF0A59004008B5102000F0D0FC0721012000F0AEFD0749012000F096FD064A137843F0060313700C20FFF7D0FF0022034B1A8008BD71040000D1
:400F400009590040BA81FF1F08B5054B1B7823B9FFF7DCFF0122024B1A70FFF771FF08BD7581FF1F024A137843F001031370704708590040034B188880B2034B1B88C01A1C
:400F800000B27047A25B0040BC81FF1F084A137843F0040313701032137843F00403137002F66532137843F001031370704700BFA3430040014B1870704700BF1B4F0040A8
:400FC000014B1878704700BF1B4F0040014B1880704700BF1C4F0040014B1880704700BF1E4F004008B5154A137803F0010313700232137803F0FC031370114B1A7802F0B4
:40100000CF021A701A7842F030021A701A7802F0F0021A701A7842F00F021A70094A137843F0010313703B20FFF7D0FF3B20FFF7D3FF0820FFF7BEFF08BD00BF184F004095
:40104000234F0040194F004008B5054B1B7823B9FFF7C8FF0122024B1A70FFF797FF08BD7681FF1F024B1B68C3F88C00704700BF08ED00E04001C0B2014B1870704700BF1E
:4010800013E400E04FF40022014B1A60704700BF00E100E04FF40022014B1A60704700BF80E100E010B50446FFF7F4FF2046FFF7D9FF0720FFF7DEFFFFF7E4FF10BD00BF8A
:4010C000084A137843F0010313701032137843F00103137002F64D32137843F001031370704700BFA3430040014B1880704700BF044F0040014B1880704700BF064F00409E
:40110000014B1870704700BF034F004008B5194A137843F0020313700232137803F08F0343F020031370144B1A7802F0CF021A701A7842F030021A701A7802F0F0021A7092
:401140001A7842F00F021A704FF4C870FFF7CCFF0020FFF7CFFF0020FFF7D2FF074A137843F00103137002F65E32137843F00103137008BD004F00400B4F0040A343004092
:4011800008B5054B1B7823B9FFF7C0FF0122024B1A70FFF795FF08BD7781FF1F084A137843F0020313701032137843F00203137002F65932137843F001031370704700BF41
:4011C000A3430040084A137803F0FE031370A2F66932137803F0FD0313701032137803F0FD031370704700BF0C4F0040014B1880704700BF104F0040014B1880704700BF9A
:40120000124F0040014B1870704700BF0F4F004008B5194A137843F0020313700232137803F08F0343F020031370144B1A7802F0CF021A701A7842F030021A701A7802F060
:40124000F0021A701A7842F00F021A70FF20FFF7CDFF7F20FFF7D0FF0020FFF7D3FF084A137843F00203137002F66A32137843F00103137008BD00BF0C4F0040174F004030
:40128000A343004008B5054B1B7823B9FFF7C0FF0122024B1A70FFF781FF08BD7881FF1F08B50A280FD00C2802D0082806D102E04FF4805209E04FF4807206E0002000F0A5
:4012C000A5FB002201E04FF480620021094B198042F2107303FB02F303F6C413064A82FB0302DB17C3EBE223044A1360044B198008BD00BFC881FF1FAD8BDB68CC81FF1FAD
:40130000C681FF1F10B500F077FC04461E4A137843F0010313701032137843F0010313701A3A137843F0010313701032137843F00103137002F5AA521232137843F0030387
:4013400013701822114B1A70013B1A7842F040021A701A7802F0FC021A70C822053B1A700222A3F597530C3B1A70094A137843F0080313700A2000F061FB0122054B1A60C5
:40138000204600F03DFC10BDAB43004006590040275B004080E200E010B504460A280DD00C2802D0082804D101E0C22207E0422205E0002000F02AFBC22200E08222034BF7
:4013C0001A702046FFF76CFF10BD00BF0259004008B5102000F078FA0721002000F04CFB0749002000F034FB064A137843F0060313700C20FFF7D0FF0022034B1A8008BDBE
:401400003914000001590040C481FF1F08B5054B1B7823B9FFF7DCFF0122024B1A70FFF771FF08BD7981FF1F024A137843F001031370704700590040704700BF08B500F0D4
:40144000B1FA00F0B9FA08BD08B5FFF7F7FF08BD08B51249022000F0FBFA0721022000F00BFB00220E4B1A7072220E4B1A70202203F580731A700C49032000F0E9FA0721E6
:40148000032000F0F9FA0622084B1A70472210331A70022253331A7008BD00BF711600007A81FF1F87640040091700002264004010B500F0A1FB04460E4A137843F02003AE
:4014C000137002F58072137843F0100313700A4A0423136009490B7843F010030B70082307490B60136000F0F9F9204600F088FB10BD00BF9764004000E100E095640040D3
:4015000080E200E008B5054B5B7823B9FFF7A0FF0122024B5A70FFF7CBFF08BD7A81FF1F0422194B1A60194A9378DBB2D178C9B2127912F0FF0F01D18B4211D0144AD05CD8
:40154000C0B20133DBB2072B00D900230F4A9370137913F0FF0F13D000220C4B1A710FE00C4B1B78DBB213F0200F06D00A4A1078C0B213F01E0F02D102E0002000E0002069
:401580000422064B1A60704780E100E07A81FF1FD081FF1F676500404764004000E100E00422144B1A60144B9A78D2B2DB78DBB29A4206D1104B1B7913F0FF0F15D008206E
:4015C00014E00D4B9A78D2B2DB78DBB29A4205D2094AD3789078181AC0B207E0064AD3789078181A0830C0B200E000200422034B1A60704780E100E07A81FF1F00E100E006
:40160000164BD9799B79DBB2994205D25A1E914214BF0022012204E0CA1A072A14BF00220122002AECD1994207D10D4B1B7813F0040F02D10B4B18707047072900D9002103
:40164000094B58540131054BD971054B1B7813F0020F02D00822054B1A6070477A81FF1F6564004046640040D881FF1F00E200E01D4B1B78DBB213F01E0F05D01B4803F002
:401680001E0201780A43027003F0200303F0FF0233B3174B1978C9B2164B1B78DBB21648C154164B1B7813F0FF0F02D00121144B197010490B780133DBB20B700B78DBB277
:4016C000072B02D900210B4B19700A4B1978C9B20C4B1B78DBB2994202D10121074B1970002AC5D1704700BF676500407A81FF1F476400407D81FF1FD081FF1F7E81FF1F6C
:401700007F81FF1F7C81FF1F13E0104B1B78DBB2072B02D900220D4B1A700C4A1378DBB20B49CB5CDBB20B490B7013780133DBB21370064B1B78DBB2074A1278934204D0E8
:40174000064B1B7813F0040FDFD070478081FF1FD881FF1F466400408181FF1F65640040054A137843F0040313701032137843F004031370704700BFA8430040054B1A78BC
:4017800002F0FD021A701A7800F0020010431870704700BF28580040014B1870704700BF825B0040064B1B78C3F3810303F19243063393F82831DBB2024A1370704700BFDC
:4017C000285800400A46004008B5064B1A7802F0F3021A701A7800F00C0010431870FFF7E1FF08BD2858004010B50024054B1C7001331C700420FFF7E7FF2046FFF7BEFF26
:4018000010BD00BF2858004008B5074B1B7823B9FFF7EAFF0122044B1A70FFF7A1FFFA20FFF7BAFF08BD00BF8381FF1F054A137843F0010313701032137843F001031370E3
:40184000704700BFA2430040054A137843F0040313701032137843F004031370704700BFA2430040014B1B685864704708ED00E04001C0B2014B1870704700BF01E400E038
:401880000222014B1A60704700E100E00222014B1A60704780E100E010B50446FFF7F6FF2046FFF7DFFF0720FFF7E2FFFFF7E8FF10BD00BF034B1A7800F0F80010431870A6
:4018C000704700BF06410040034B1A7800F0F80010431870704700BF02410040054A137843F0020313701032137843F002031370704700BFA243004010B500F0D5F800F025
:401900001DF910BB012000F0FBF8072818D102210F4800F0DBF802280AD102E0012000F08DF80C4B1B7813F0020FF7D0002409E0084B1B7813F0020FE9D04FF0FF3401E018
:401940004FF0FF3400F020F900E00424204610BDE081FF1F2247004010B500F0A5F800F0EDF8D0B900F02CF90446072812D102E0012000F063F80A4B1B7813F0020FF7D057
:40198000074B1B7813F0020F04D0054B1B789B0800D1002400F0F8F800E00424204610BD2247004008B5FFF7D7FF034610B9FFF7A3FF0346184608BD08B500F01DF90F4A60
:4019C000137843F0080313701032137843F008031370C8220A4B1A700A4A137843F0100313701032137843F010031370064B1B7813F0200FFAD000F003F908BDA043004052
:401A000001470040AC4300400047004001BE704710B5044605E0084B186800F0E5F8A4F50044B4F5004FF6D8034B586800FB04F000F0DAF810BD00BFD480FF1F08B5034BF3
:401A40001B7A00FB03F000F0CFF808BDD480FF1F70B504460E46074B1D681F2802D90020FFF7D4FF04F01F04103455F8240045F8246070BD08ED00E038B504460D46072907
:401A800002D90020FFF7C2FF1F2C02D90020FFF7BDFF04F01F0000F1604000F564406D01EDB2057038BD00BF08B500F0A5F8064A137843F0080313701032137843F0080318
:401AC000137000F09DF808BDA043004070B506460D4600240CE00120FFF7B0FF064B1B7813F0010FF7D0054B1B7833550134E4B2AC42F3D3204670BD2247004020470040D1
:401B00000C4B1B7813F0020F0FD00B4BB6221A70E1221A700E221A7002331B7813F0020F05D1054B187007207047042070470920704700BF224700402047004010B500F0E2
:401B40005BF80F4B1B78A3B901220D4B1A700D4B1B6813F0010F0ED00A4A136823F00103136000BF00BF00BF0122054B5A60002402E0042400E0002400F042F8204610BDA6
:401B80008481FF1F0400084008B500F035F80A4B00221A705B68012B0AD1084A136843F00103136000BF00BF00BF0022024B5A6000F026F808BD00BF8481FF1F0400084033
:401BC000074B1B7813F0020F08D0064BB6221A70E0221A700D221A70072070470420704722470040204700400230800803D000BF01380046FCD17047EFF3108072B6704773
:401C000080F31088704700BF014B1868704700BF4481FF1F0E4B70B51E460E4C0025E41AA410A54204D056F8253098470135F8E700F02CF9084B094C1E46E41AA4100025A1
:401C4000A54204D056F8253098470135F8E770BD981E0000981E0000981E0000A01E0000024B0146186800F06BB800BF4481FF1F024B0146186800F017B800BF4481FF1FC7
:401C800010B5431E0A44914204D011F8014B03F8014FF8E710BD03460244934202D003F8011BFAE77047000038B50546002944D051F8043C0C1F002BB8BFE41800F0AEF87B
:401CC0001E4A1368114613B96360146030E0A3420DD92268A018834201BF18685B681218226063600C6023E0A24203D813465A68002AF9D118681918A1420BD121680144D8
:401D000058188242196013D110685268014419605A600DE002D90C232B6009E021686018824201BF106852680918216062605C602846BDE8384000F072B838BD9081FF1F5D
:401D400070B5CD1C25F0030508350C2D38BF0C25002D064601DBA94202D90C23336046E000F05CF8234B1C681A462146A1B10B685B1B0ED40B2B03D90B60CC18CD501EE001
:401D80008C420BBF63684B681360636018BF0C4615E00C464968E9E7174C23681BB9304600F02CF820602946304600F027F8431C18D0C41C24F00304A0420DD12560304629
:401DC00000F02DF804F10B00231D20F00700C31A0ED05A42E25070BD211A304600F00EF80130EBD10C233360304600F018F8002070BD00BF9081FF1F8C81FF1F38B5064C50
:401E00000023054608462360FEF70CFD431C02D1236803B12B6038BDE481FF1F70477047000000004D616C6C6F6320004D616C6C6F63206572726F7200000000004F0040DA
:401E4000240000510040100040510040300000000140001000140140000280160140800500400140000A004C014000020050014020000000605200408409004806000016EA
:401E800001408C090048800043000000F8B500BFF8BC08BC9E4670474D000000A1080000F8B500BFF8BC08BC9E46704729000000C01E0000C880FF1F80000000A0000000C0
:401EC0000000000030750000E881FF1F0000E02EC05D00001800000000366E010000000000000000000000000000000000000000000000000000000000000000881E000028
:401F0000000000000000000000000000000000000000000000000000000000000000000000000000000000000000000000000000000000000000000000000000E480FF1F1F
:401F40000000000000000000000000000000000000000000000000000000000000000000000000000000000000000000000000000000000000000000000000000000000061
:401F80000000000000000000000000000000000000000000000000000000000000000000000000000000000000000000000000000000000000000000000000000000000021
:401FC00000000000000000000000000000000000000000000000000000000000000000000000000000000000000000000000000000000000000000000000000000000000E1
:4020000000000000000000000000000000000000000000000000000000000000000000000000000000000000000000000000000000000000000000000000000000000000A0
:020000040003F7
:0200000480007A
:40000000064F004004520040015B0040046400400365004066020140380301404E040140480501405A06014053070140570801403E090140010B0140030D01404A140140C2
:40004000501501400B1601404C1701404F1801404A1901400B1B014005400140064101400542014009430140024401400545014003460140034701400B48014016490140A3
:40008000044C0140054D0140075001400151014001300A360D501636194022361180184019401C802F21850F8772880F8938860F873889720103030C044005030704082C26
:4000C000090A0A830B040CB10E0E1103120C130414401A081B081E9324402A802CB12E062F053040310F320F3430368038203A083B023E514002470449FF4A074BFF4C4025
:400100004D204EF04F055008580459045A045C115D015F01604061A862406320840E880189068C048F01920C940C95069709980899029C0E9D04A10FA509A706A802AA0C24
:40014000AC02AD06AE0CAF09B202B307B401B60CB708B980BB08BE14C002C604C9FFCA07CBFFCC40CD20CEF0CF05D008D804D904DA04DC11DD02DF01E040E1A8E240E320D7
:40018000008801280410071108400A2A0B800F6A1001120A15041608174019041A011B201C101D601E101F012208230225012740284129082D4031903208362037013B9086
:4001C0003C103D023E084110452049C04F0250905210570C6020620879407B01860288808F20C0E7C2FFC4E3CA1BCCAECEECD024038005F30603070C090C0F73100C119C08
:40020000127113431410150216AC181419031CDC1D081E22201021FF2240258F26202730280929042AD02D8130E031EC331C341F350F3A023B22580459045C125F01811076
:40024000820284408502870D89038B0C8C018E0C9109930694709608985099059B0A9C249E40A030A244A602AC40AE30B07CB30FB401B510B602BB08BE50BF10D401D6049C
:40028000D804D904DB04DC01DD10DF0100040440066008880A440E120F0810841210151816081741188419201A401C401D401F202008210422022304250426082708286013
:4002C00029102A802E202F08318032163402371039023B943D093F225D915F086602822190209140921193029524962A9790986099849A109B429D309E0A9F11A080A3082A
:40030000A444A580A622A710AE20AF40C0B4C2EFC4BECA0FCCAFCEEFD6F0D8800101030C09180B0516011B182101231428012B082D022E012F0430013503371C39203B80FC
:400340003E0140154104450B47EC483149FF4AFF4BFF4EF04F44500C580459045A045C105D015F0166C06A406B0284018B018D039001960297089B04A102A202A801A9037E
:40038000AF08B402B503B601B70CB920BB02BE10BF50C065C104C203C401C6ECC80CC9FFCAFFCBFFCC62CDA0CEF0CF41D00CD602D712D804D904DA04DB04DC11DD11DF019F
:4003C000E640E702E910EA30EB10ED10EE10EF1201040A400B200E200F2011101302140216011710180419801C402001211222012620270128882A802D402E022F08321419
:400400003508362838A03D023E1040014106450146024741480449804B804D404F085240531056085701590469146A4071907310860490A09148921193029522962E97903A
:4004400099449B429C8E9D109EC89F11A004A208A308A440A580A620A715B002B104B720C004C22CC4CACABDCC26CEACD09BD21CD602E202EAC0020B041406090B010D02D2
:40048000121018061A091C071E18240726082B01300133013502361E3A803E013F145401580459045B045C025D205F0181488321840285708A028B0C8D108E0192029402B6
:4004C000950C9B0C9F0CA170A524A601A741A90CAB02AD0CB001B10CB360B402B510B703B820BE01BF40C026C103C205C401C50EC6C0C809C9FFCAFFCBFFCC62CDA0CEF025
:40050000CF41D00CD418D804D904DA04DB04DC22DD22DF01E640E702E910EA30EB10ED10EE10EF1200140180050509080A800C020D800F08102017041B111D801E401F807A
:400540002009222123102504270828A82B022F0431083260381039453A013D803F2040054108440245444610480449804B0850205A025C025D105E405F0862106302791055
:400580007B048004830287049A20C037C2DCC424CA2FCC0ECE3FD00ED20CD6F1D80CEA809A208A20E040E480000202050407051F0804091F0A0215141709180719011B063D
:4005C0001C011E022D0A2F113318350736075440580459045B045C125F01800D816782808318846285C486148710884289908A088B448C8D8D448F909002920D94119509D6
:4006000096229746988D99189B239E80A08DA1D4A48DA510A840A941AB06ADD4B00FB180B280B378B507B670BA82BB28BE04BF01D201D409D804D904DB04DF010028038044
:4006400004100580075008500E640F0215011628172019401B801D841E4122142509262527102A802C802D812E082F283214361439143D803E35454047405C405E025F2421
:400680006104630A67026D40810484428540868088408A208B088C108D80904091149214930695409628981099809E809F10A094A144A210A325A442A589A620AC80AF4031
:4006C000B004B202B410C0FEC2F3C470CAF8CC66CEF6D6F0D81EE408EA12EE22AF01B101B908BF04D418D604D904DB04DC10DD10DF01040105100601071009800B010C8041
:400700000E64160217051C011F4020102101252426902A802C802D802E24351136A037043D883F2145A946214C024F06560257345A0160046140620265086C806D806E54CE
:400740006F04758077018121841088048D4090449114920193029502962899489C849E819F10A010A440A610AC08B010B450C0F0C2F0C4B0CAF8CCF0CEF0D0F0D210D601F8
:40078000D84DE240E602E810EE08040C061308110A0E120C1C111E06260828202A03320F363038803A0840164103450B460E470C481549FF4AFF4BFF4EF04F44500C5804BD
:4007C0005A045C025D025F0166C06A406B028001830484738518860C881F89088A608C038D10905C9223947F951F98049B039D1C9F02A008A104A320A51CA663A701A80C93
:40080000A907AB18AC02B010B120B22CB40FB64CB71FBA28BB88BE01D602D713D804D904DB04DC22DD20DF010054020403800504070409080A840C020D80122113121510CC
:400840001620181419911D041F482109224029102A042B803108326038A83902458047044D104E084F0455405704590168046944705472047312848489048C48941495443E
:40088000968097049A219B049CA89D84A180A228A402A548A704AF80B101B310B501B608B704C06FC29EC46FCA07CC0ECE0FD050D220D601E220E810EC50EE8084088820C1
:4008C0008B809C28A780AF08B002B340E280EA02EE803102338034083780CCF084089C089F80A502A780E61057049F80A502A780D44018101F0452809F80A502B380B70415
:40090000C630D4207C40DE0460808C409440D802E0021B019C80C6089C80B301EA0165206A806C048E8093089F80A502A680B410D880DAC00F041640670873107710831093
:40094000864087049318AF90B102B404B520B640C280C420D880DC80DE20E050E220EA501E04B480C601E80810408840AE04C408E201000708060A070C0410071A071C04AE
:4009800000FF00008504000240000000014800970A0010010410000056080910043E0040071038080408000004E000000418000000080410004400AB60180000000000037C
:4009C000001C7FE480800000000000003102400005DEC0BF3BFFFFFF2200F048040000000000022804040404000000010000C00040021012C0020012400240020000000056
:400A0000000000000000000000000000840078BF8700870200040000000800040000000001000001000000000000000000FFFF000000000000FFFF0080000000814140005B
:400A400040000A00160018011700180100000000000000000000000000000000000000000000000000000000000000000000000000000000000000000000000000000000CD
:400A80000000000000000000000000000000000000000000000000000000000000000000000000000000000000000000000000000000000000000000000000000000000036
:400AC00000000000000000000000000000000000000000000000000000000000000000000000000000000000000000000000000000000000000000000000000000000000F6
:400B000000000000000000000000000000000000000000000000000000000000000000000000000000000000000000000000000000000000000000000000000000000000B5
:400B40000000000000000000000000000000000000000000000000000000000000000000000000000000000000000000000000000000000000000000000000000000000075
:0200000490006A
:0400000000004005B7
:0200000490105A
:04000000BC90ACAF55
:0200000490303A
:02000000485A5C
:0200000490402A
:4000000000000000000000000000000000000000000000000000000000000000000000000000000000000000000000000000000000000000000000000000000000000000C0
:400040000000000000000000000000000000000000000000000000000000000000000000000000000000000000000000000000000000000000000000000000000000000080
:400080000000000000000000000000000000000000000000000000000000000000000000000000000000000000000000000000000000000000000000000000000000000040
:4000C0000000000000000000000000000000000000000000000000000000000000000000000000000000000000000000000000000000000000000000000000000000000000
:0200000490501A
:0C00000000012E16106900012E2458C3C8
:00000001FF