:4000000000800020110000001D0A00001D0A000008B5044B1A6803F53F5302331A6000F01DFD00BFFA46004010B5054C237833B9044B13B10448AFF300800123237010BD0F
:400040005881FF1F0000000090200000084B10B51BB108490848AFF300800848036803B910BD074B002BFBD0BDE81040184700BF000000005C81FF1F90200000C880FF1F82
:400080000000000010B544F62064B4FBF0F4064B1B78E0B201F036F9C4F3470001F038F901F07CF910BD00BF0F4F004008B5002001F02EF901F012F908BD00BF10B50B4857
:4000C00000F02AFA0A4800F0EBF901280BD1084800F0DAF9044630B103680BB140899847636803B1984700F0F7FF10BDA081FF1FB881FF1F10B582B0044601F029FA80B286
:40010000ADF8060000F05CF9C0B28DF80500BDF806309BB2B3F57A7F0FD29DF80530DBB2194A1278934208D99DF80530DBB2174A1278934201D201232370154B1B78BDF8D6
:4001400006309BB2B3F5E16F18D9BDF8062092B2A2F5E1620F4B83FB0213D217C2EB631301339BB203EB83039800B0F5AF7FA8BF4FF4AF7080B201F049F802E0002001F0A1
:4001800045F802B010BD00BF7481FF1FCC80FF1F034F00401F85EB5100B585B0684600F02FF9012000F07CFD0021084600F0D2FD684600F067FD05B05DF804FB08B50F484E
:4001C00000F0FCFF0E4801F0CDFA01F08FFA01F09BFA01F0A7F901F0B3F900F0C1FF00F0ABFD0021084600F0B5FD00F0E9FE00F0ADFE01F051F800F039FF08BDBD00000029
:400200007106000070B51A4D4FF4FA724FF49671284600F005F9174C0146204600F02CF94FF42F724FF4C871284600F0F9F80146204600F021F9104E6421304600F006F993
:400240000146204600F018F94FF461724FF4FA71284600F0E5F80146204600F00DF96421304600F0F3F80146204600F005F970BD85000000B881FF1FAD00000010B582B010
:40028000FFF79CFF214A002313605360204C2360636062B68DF807308DF8063001221E211C4800F01DF90146204600F02BF90223C8220DF10701184800F0FEF80146204623
:4002C00000F020F9032364220DF10601134800F0F3F80146204600F015F904224FF47A710F4800F0FDF80146204600F00BF9012000F0D6FC00F028F9322801D1FFF782FF9B
:400300004FF47A7000F046FDF4E700BFB881FF1FA081FF1F81050000F5000000B90600009901000010B582B00446012000F056FE00F0E6FD8DF807009DF8073013F0040F72
:40034000F6D000F0FBFD44F0010000F0E5FD00F0D7FD8DF807009DF8073013F0010FF6D000F0F4FD00F0FAFD02B010BD00B583B0012000F033FE00F0E9FD422000F0CCFD71
:4003800000F0BEFD8DF807009DF8073013F0010FF6D000F0BBFD8DF807009DF8073013F0200FF6D000F0C4FD8DF80600002000F015FE00F0D3FD9DF8060003B05DF804FBA8
:4003C00008B58420FFF7AEFFFFF7D0FF00F00F01C0F3011303EB83035800084408BD00BF08B58220FFF79EFFFFF7C0FF00F00F01C0F3021303EB83035800084408BD00BFC6
:4004000038B50446FFF7DCFF0546FFF7E9FF03462A460249204601F0D1FA38BDA8200000F8B506460F461546102001F0F1F9044610B9054800F026FC27812660002363606E
:4004400065812046F8BD00BFC820000070B505460E46102001F0DCF9044610B9054800F011FC268165600023236064236381204670BD00BFC8200000436813B9416001608D
:400480007047D96041607047034600685A68904203D100221A605A607047C2681A60704703682BB11A892AB1013A1A81002070470020704701207047F8B506460D461746A9
:4004C0001C46182001F0A4F90022428107810660426005614473012101734261F8BD00BF70B505460E461446182001F091F90022428106814560026044734261012202735F
:4005000070BD00BF036813B9016041607047436859614160704700BF10B5046811E0237B012B0DD163894BB923896381636803B19847236823B12069984701E0013B6381F3
:400540006469002CEBD110BD024B187800221A70704700BF8081FF1F024630B1074B5B781BB9064B187001215970044B5B78012B02D10AB9014B5A70704700BF8081FF1F66
:4005800010B5012000F052FC00F080FC08B9002400E0312400F082FC00B1322400F086FC00B1332400F08AFC00B1412434B1002000F03CFC2046FFF7CFFF10BD002000F0E2
:4005C00035FC012000F03EFC00F060FC00B1342400F064FC00B1352400F068FC00B1362400F06CFC00B1422434B1002000F02AFC2046FFF7B1FF10BD002000F023FC0120BE
:4006000000F02CFC00F042FC00B1372400F046FC00B1382400F04AFC00B1392400F04EFC00B1432434B1002000F018FC2046FFF793FF10BD002000F011FC012000F01AFC8B
:4006400000F024FC00B12A2400F028FC00B1302400F02CFC00B1232400F030FC00B14424002000F007FC2046FFF776FF10BD00BF00B583B001F050F880B2ADF80600BDF8EA
:4006800006309BB20A4A1288934203D2BDF80620074B1A80BDF806309BB2064A1288934203D9BDF80620034B1A8003B05DF804FBD880FF1F8481FF1F82B00D4B1B880D4A9E
:4006C00012889B1A1BB2ADF80630BDF806301BB240F6B832934201DD012303700022044B1A8047F23052034B1A8002B0704700BF8481FF1FD880FF1FFEE700BFF0B4002208
:40070000174611E050F82760F3B226F0FF0608E001EB420511F812406D78A5550132013BDBB2002BF4D101371A2FEBD9F0BC704708B50A46002101F07EF808BDF8B51B4B86
:400740001B78DBB21A4E3478E4B21A4F3D78EDB203F00701184A11701B090132137044F00303337045F003033B700A20134B18704023923213700232137006321370023217
:400780001370202302F21522137003321370802105321170033213702D32137000F010FB3D7034704422064B1A70F8BDCF010049F8460040F94600406E5800403D510040EE
:4007C0007658004008B501F02BF808BD38B50B22374B1A801823374A13704FF49C71023211800232137040F28F1233490A8002310B7002310A80314A137040F2AF4102327C
:4008000011800232137008222D492E48FFF7DAFF02222D4B1A7008224FF040231A70032103F500731970294B1B78DBB228490B70284B1A8041F25122023B1A80002419258B
:400840000CE0254B1B7803F0010343EA440404F003044FF4F07000F09FFF013D0DB1032CEFD115B90320FFF747FF1C4B4FF480721A8007221A70002219490A704820023157
:4008800008701A700222033B1A7004220A331A70144A137843F01F031370013A137843F003031370013A137843F08003137038BD8040004082400040884000408E4000400E
:4008C000F8050048004100400043004008010049A146004022420040254200400440004006400040A243004038B572B6384A137843F00403137000240CE0364D63001919B5
:400900004A0011462A44084691882858FFF710FF0134E4B2092CF0D900240CE02D48A20011194B000344B3F84420196CD86BFFF749FF0134E4B2022CF0D927494FF09040BA
:40094000FFF7DCFE254A137843F0020313701032137843F002031370214C237843F040032370A2F58632513A137843F0100313700A221C491C48FFF725FF0A221B491C4828
:40098000FFF720FF08221B491B48FFF71BFF08221A491B48FFF716FF08221A491A48FFF711FF1A4A137843F008031370184D61232B70FFF70BFF81232B700122154B1A70B1
:4009C000FFF7BCFE0E2221461348FFF7FBFE38BDE8460040D42000006C00004803500140A0430040C8050048C0510040D4050048F0510040E005004812510040E805004897
:400A000022510040F005004832510040224300400048004004000840B043004008B500F0CBFE03680C2B00D1FEE7FEE708B5094B1A681044084BC31A802B02DC054B18603C
:400A400005E000F0B9FE0C2303604FF0FF32104608BD00BFDC80FF1FE081FF1F08B5104E104D16E029686B68AC68002204E051F8040B43F8040B0432A242F8D1E868002232
:400A800003E0002143F8041B04328242F9D11035013E002EE6D100F095FEFFF7EFFBFEE7010000008821000008B5104A104B1A60104A136843F40073136000230AE0032BA0
:400AC00003D80D4A52F8231000E00C490C4A42F8231001332F2BF2D90A4B1A780A4B1A70074A0A4B1A60FFF7FFFE08BD0004FA050CED00E014ED00E0000000001D0A000074
:400B00000080FF1FBC760040C080FF1F08ED00E010B50B4C237803F09F032370237803F0F00323702378184340F010002070012000F046F9237803F0EF03237010BD00BFCA
:400B40002051004038B505460E4C237843F020032370237803F0BF032370002000F030F9237803F0F003237023781D4345F010052570012000F024F9237803F0EF03237063
:400B800038BD00BF2051004070B5354B1A7802F08002D2B21A7033490A7802F0F00242F00F020A7001310A7802F0F0020A7001310A7802F0F0020A701A7802F0DF021A7065
:400BC0001A7842F040021A704FF4CA76002000F0F7F8234D2B7843F010032B70012000F0EFF8214B1C78E4B22B7803F0EF032B70002000F0E5F804F00804E4B22B7843F0E5
:400C000010032B70012000F0DBF82B7803F0EF032B7014B90A2000F0D3F8013E0CB1002ED4D10F4A137803F0BF031370137803F08003DBB213700232137803F0F003137029
:400C40000132137803F0F00343F00F0313700132137803F0F00343F00F03137070BD00BF20510040225100402151004010B50446FFF78AFF2009FFF765FF04F00F00FFF790
:400C800061FF10BD38B505460078012404E0FFF7EDFF285D0134E4B20028F8D138BD00BF10B50446FFF770FF2009FFF731FF04F00F00FFF72DFF10BD08B5282000F06AF86B
:400CC0000320FFF725FF052000F064F80320FFF71FFF0F2000F05EF80320FFF719FF012000F058F80220FFF713FF052000F052F80620FFF7D5FF0E20FFF7D2FF2C20FFF758
:400D0000CFFF0820FFF7CCFF0120FFF7C9FF0C20FFF7C6FF0320FFF7C3FF052000F03AF808BD00BF08B50C20FFF7BAFF0122014B1A7008BD8C81FF1F08B5054B5B7823B953
:400D4000FFF7BAFF0122024B5A70FFF7EBFF08BD8C81FF1F08B5032819D8DFE800F002070D1381F08000FFF79BFF08BDA1F14000C0B2FFF795FF08BDA1F16C00C0B2FFF7C2
:400D80008FFF08BDA1F12C00C0B2FFF789FF08BD01BE704710B5044605E0084B186800F0FBFCA4F50044B4F5004FF6D8034B586800FB04F000F0F0FC10BD00BFE080FF1FC3
:400DC00008B5034B1B7A00FB03F000F0E5FC08BDE080FF1F70B504460E46074B1D681F2802D90020FFF7D4FF04F01F04103455F8240045F8246070BD08ED00E038B50446E6
:400E00000D46072902D90020FFF7C2FF1F2C02D90020FFF7BDFF04F01F0000F1604000F564406D01EDB2057038BD00BF044A137803F0EF03000100F01000184310707047C1
:400E400010510040044A137803F0DF03400100F0200018431070704710510040044A137803F0BF03800100F0400018431070704710510040044A137803F07F03C001C0B2AC
:400E800018431070704700BF10510040024B1878C0F38000704700BFC1510040024B1878C0F3C000704700BFC1510040024B1878C0F30010704700BFC1510040024B18780B
:400EC000C0F34010704700BFC151004008B500F06BFC0A4A137843F020031370023A137843F0100313700132137843F01003137000F05EFC00F07EF808BD00BF96650040D5
:400F0000014B1878704700BF64650040014B1878704700BF65650040034B1B7813F0040FFAD0024B187070476465004046650040014B1878704700BF56650040024A137895
:400F400043F001031370704777650040024A137803F0FE03137070477765004008B501E00A4B1B780A4B1B7813F0200FF8D100F01BFC084B1A7842F001021A701A7802F02B
:400F8000FE021A7000F014FC08BD00BF56650040656500409665004008B50F22064B1A70FFF7DCFFFFF7ACFFFFF7B0FF0023034A13700132137008BD866500408465004041
:400FC00008B5054B1B7823B9FFF7E6FF0122024B1A70FFF77BFF08BD8E81FF1F044A137803F0FB03800000F0040018431070704710510040054A137843F0010313701032F7
:40100000137843F001031370704700BFA24300407222074B1A702022013B1A700622653B1A70472210331A70002254331A7070478A65004010B500F0B7FB04460A4A137827
:4010400043F020031370013A137843F010031370013A137843F01003137000F015F8204600F0A6FB10BD00BF9A65004008B5054B1B7823B9FFF7CCFF0122024B1A70FFF78D
:40108000D9FF08BD8F81FF1F054A137843F0020313701032137843F002031370704700BFA2430040084A137843F0040313701032137843F00403137002F66532137843F03C
:4010C00001031370704700BFA3430040014B1870704700BF1B4F0040014B1878704700BF1B4F0040014B1880704700BF1C4F0040014B1880704700BF1E4F004008B5154AB5
:40110000137803F0010313700232137803F0FC031370114B1A7802F0CF021A701A7842F030021A701A7802F0F0021A701A7842F00F021A70094A137843F0010313703B2069
:40114000FFF7D0FF3B20FFF7D3FF0820FFF7BEFF08BD00BF184F0040234F0040194F004008B5054B1B7823B9FFF7C8FF0122024B1A70FFF797FF08BD9181FF1F024B1B68A3
:40118000C3F88C00704700BF08ED00E04001C0B2014B1870704700BF13E400E04FF40022014B1A60704700BF00E100E04FF40022014B1A60704700BF80E100E010B5044676
:4011C000FFF7F4FF2046FFF7D9FF0720FFF7DEFFFFF7E4FF10BD00BF084A137843F0010313701032137843F00103137002F64D32137843F001031370704700BFA3430040FD
:40120000014B1880704700BF044F0040014B1880704700BF064F0040014B1870704700BF034F004008B5194A137843F0020313700232137803F08F0343F020031370144B14
:401240001A7802F0CF021A701A7842F030021A701A7802F0F0021A701A7842F00F021A704FF4C870FFF7CCFF0020FFF7CFFF0020FFF7D2FF074A137843F00103137002F61B
:401280005E32137843F00103137008BD004F00400B4F0040A343004008B5054B1B7823B9FFF7C0FF0122024B1A70FFF795FF08BD9281FF1F084A137843F0020313701032C0
:4012C000137843F00203137002F65932137843F001031370704700BFA3430040084A137803F0FE031370A2F66932137803F0FD0313701032137803F0FD031370704700BF03
:401300000C4F0040014B1880704700BF104F0040014B1880704700BF124F0040014B1870704700BF0F4F004008B5194A137843F0020313700232137803F08F0343F0200336
:401340001370144B1A7802F0CF021A701A7842F030021A701A7802F0F0021A701A7842F00F021A70FF20FFF7CDFF7F20FFF7D0FF0020FFF7D3FF084A137843F00203137008
:4013800002F66A32137843F00103137008BD00BF0C4F0040174F0040A343004008B5054B1B7823B9FFF7C0FF0122024B1A70FFF781FF08BD9381FF1F08B50A280FD00C28CF
:4013C00002D0082806D102E04FF4805209E04FF4807206E00020FFF7DBFC002201E04FF480620021094B198042F2107303FB02F303F6C413064A82FB0302DB17C3EBE22305
:40140000044A1360044B198008BD00BFC881FF1FAD8BDB68CC81FF1FC681FF1F10B500F0C3F904461E4A137843F0010313701032137843F0010313701A3A137843F00103C8
:4014400013701032137843F00103137002F5AA521232137843F0030313701822114B1A70013B1A7842F040021A701A7802F0FC021A70C822053B1A700222A3F597530C3B4B
:401480001A70094A137843F0080313700A20FFF797FC0122054B1A60204600F089F910BDAB43004006590040275B004080E200E010B504460A280DD00C2802D0082804D1C4
:4014C00001E0C22207E0422205E00020FFF760FCC22200E08222034B1A702046FFF76CFF10BD00BF0259004008B5102000F03EF807210020FFF782FC07490020FFF76AFCBC
:40150000064A137843F0060313700C20FFF7D0FF0022034B1A8008BD6915000001590040C481FF1F08B5054B1B7823B9FFF7DCFF0122024B1A70FFF771FF08BD9481FF1F31
:40154000024A137843F001031370704700590040034B188880B2034B1B88C01A00B27047A05B0040C681FF1F704700BF034B1A7800F0F80010431870704700BF0241004084
:4015800008B50A280FD00C2802D0082806D102E04FF4805209E04FF4807206E00020FFF7F7FB002201E04FF480620021094B198042F2107303FB02F303F6C413064A82FBD0
:4015C0000302DB17C3EBE223044A1360044B198008BD00BFD081FF1FAD8BDB68D881FF1FD481FF1F38B500F0DFF804461E4A137843F0020313701032137843F0020313700C
:401600001A3A137843F0020313701032137843F00203137002F5AA521A32137843F0030313701822114B1A70013B1A7842F040021A701A7802F0FC021A70C822053B1A7056
:401640000225A3F59753123B1D70094A137843F0080313700A20FFF7B3FB064B1D60204600F0A6F838BD00BFAB4300400E5900402F5B004080E200E010B504460A280DD005
:401680000C2802D0082804D101E0C22207E0422205E00020FFF77CFBC22200E08222034B1A702046FFF76CFF10BD00BF0A59004008B5102000F064F807210120FFF79EFB56
:4016C00007490120FFF786FB064A137843F0060313700C20FFF7D0FF0022034B1A8008BD7106000009590040D281FF1F08B5054B1B7823B9FFF7DCFF0122024B1A70FFF7E1
:4017000071FF08BD9581FF1F024A137843F001031370704708590040034B188880B2034B1B88C01A00B27047A25B0040D481FF1F014B1B685864704708ED00E04001C0B289
:40174000014B1870704700BF01E400E00222014B1A60704700E100E00222014B1A60704780E100E010B50446FFF7F6FF2046FFF7DFFF0720FFF7E2FFFFF7E8FF10BD00BF7B
:40178000034B1A7800F0F80010431870704700BF06410040000000000230800803D000BF01380046FCD17047EFF3108072B6704780F31088704700BF014B1868704700BF26
:4017C0005081FF1F0E4B70B51E460E4C0025E41AA410A54204D056F8253098470135F8E700F0C0FC084B094C1E46E41AA4100025A54204D056F8253098470135F8E770BD87
:4018000070210000702100007021000078210000024B0146186800F063B800BF5081FF1F10B5431E0A44914204D011F8014B03F8014FF8E710BD03460244934202D003F8F7
:40184000011BFAE77047000038B50546002944D051F8043C0C1F002BB8BFE41800F0D2F81E4A1368114613B96360146030E0A3420DD92268A018834201BF18685B681218E7
:40188000226063600C6023E0A24203D813465A68002AF9D118681918A1420BD12168014458188242196013D110685268014419605A600DE002D90C232B6009E021686018C1
:4018C000824201BF106852680918216062605C602846BDE8384000F096B838BD9C81FF1F70B5CD1C25F0030508350C2D38BF0C25002D064601DBA94202D90C23336046E04D
:4019000000F080F8234B1C681A462146A1B10B685B1B0ED40B2B03D90B60CC18CD501EE08C420BBF63684B681360636018BF0C4615E00C464968E9E7174C23681BB9304678
:4019400000F02CF820602946304600F027F8431C18D0C41C24F00304A0420DD12560304600F051F804F10B00231D20F00700C31A0ED05A42E25070BD211A304600F00EF8F5
:401980000130EBD10C233360304600F03CF8002070BD00BF9C81FF1F9881FF1F38B5064C0023054608462360FFF740F8431C02D1236803B12B6038BDDC81FF1F0EB400B5D1
:4019C0004FF402719CB0ADF814106FF00041049107914FF6FF711DAB02900690084853F8042BADF81610006802A9019300F066F8029B00221A701CB05DF804EB03B070475D
:401A00005081FF1F704770472DE9F0478E6882469E420C46914698463ED88A8912F4906F3AD02568096902236F1A656905EB450595FBF3F57B1C43449D4238BF1D46530543
:401A40000FD52946FFF74CFF064698B13A462169FFF7E6FEA38923F4906343F08003A38113E02A4600F0E3FA064670B921695046FFF7EAFE0C23CAF80030A3894FF0FF30EB
:401A800043F04003A381BDE8F08726613E44266046466561ED1BA560464528BF464649463246206800F0A8FAA36800209B1BA36023681E442660BDE8F08700002DE9F04F9B
:401AC0009DB003938B8980461C060D4616460DD50B695BB94021FFF703FF2860286118B90C23C8F80030CDE040236B610023099320238DF82930DFF89CB130238DF82A3082
:401B000037463C4614F8013B1BB9B7EB060910D003E0252BF9D02746F3E74B46324629464046FFF771FF013000F0A780099B4B4409933B78002B00F0A08000234FF0FF32BA
:401B400004930793059206938DF853301A930126052221784E4800F041FA671C049B38B14B4A3C46801A06FA00F018430490EFE7D90644BF20228DF853201A0744BF2B22A9
:401B80008DF8532022782A2A03D0079A00210A200BE0039A111D12680391002A10DA524243F00200079204900BE027463B780134303B092B03D800FB02320121F5E701B119
:401BC00007923B782E2B1ED17B782A2B0AD1039B02371A1D1B680392002BB8BF4FF0FF33059310E0002319460593781C0A2407463A780130303A092A03D804FB01210123A4
:401C0000F5E703B1059103223978224800F0E6F940B14023CBEB000003FA00F0049B013718430490397806221B487E1C8DF8281000F0D4F988B1194B33B9039B073323F0EE
:401C400007030833039314E003AB00932A46144B04A94046AFF3008007E003AB00932A460F4B04A9404600F093F8B0F1FF3F824603D0099B5344099342E7AB895B0601D4AC
:401C8000099801E04FF0FF301DB0BDE8F08F00BF30210000362100003A21000000000000091A00002DE9F04791461F460A698B6806469342B8BF1346C9F8003091F84320A1
:401CC0000C46DDF8208012B10133C9F800302368990642BFD9F800300233C9F80030256815F0060510D104F1190A07E00123524639463046C04701301AD00135E368D9F841
:401D000000209B1A9D42F1DB94F843302268003318BF012392060FD5E118302081F843005A1C94F845102244023382F8431003E04FF0FF30BDE8F08704F143023946304690
:401D4000C0470130F4D02268D9F80050E36802F00602042A08BF5D1B2269A3680CBF25EAE57500259342C4BF9B1AED184FF000091A344D4509D00123224639463046C04780
:401D80000130D5D009F10109F3E70020BDE8F0872DE9F04317460A7E85B06E2A984606460C460C9B01F1430E00F0AE8011D8632A22D009D8002A00F0BB80582A40F0CA801A
:401DC00081F84520834955E0642A1ED0692A1CD0C0E0732A00F0B08009D86F2A2ED0702A40F0B8800A6842F020020A603EE0752A24D0782A3AD0ADE01A6801F14205111D2F
:401E00001960136884F84230A8E021681A6811F0800F02D0111D196008E011F0400F02F10401196002D0B2F9003000E01368002B3CDA2D225B4284F8432037E021681A6845
:401E400011F0800F02D0111D196007E011F0400F02F10401196001D0138800E01368227E5C496F2A14BF0A2208221BE078225A4984F845202268186812F0800F00F1040535
:401E80001D6003D1550601D5038800E00368D00744BF42F0200222601BB9226822F0200222601022002084F8430001E049490A226568002DA56008DB206820F00400206058
:401EC0002BB9002D7DD175460CE0002B79D07546B3FBF2F002FB1033CB5C05F8013D03460028F5D1082A0BD12368DA0708D5236962689A42DEBF302305F8013C05F1FF3567
:401F0000C5EB0E0323612EE008681A6810F0800F496903D0101D1860136808E010F0400F02F104001860136801D0198000E0196000232361754616E01A68111D1960156846
:401F400000216268284600F049F808B1401B6060636804E004F1420584F8422001232361002384F84330CDF800803B4603AA21463046FFF797FE013002D14FF0FF3026E02D
:401F800023692A4639463046C0470130F5D023689B0710D5002504F1190907E001234A4639463046C0470130E7D00135E368039A9B1A9D42F2DBE068039B9842B8BF184652
:401FC00005E00B7804F1420584F842308AE705B0BDE8F083412100005221000010B5C9B202449042034605D01C7801308C42F8D1184610BD002010BD884210B501EB0203D2
:4020000001D8421E0BE09842FBD28118D21AD34204D013F8014D01F8014DF8E710BD994204D011F8014B02F8014FF8E710BDF8B5074615460E4621B91146BDE8F840FFF774
:402040004FBC1AB9FFF700FC2846F8BD00F015F885420ED929463846FFF742FC044650B131462A46FFF7DCFB31463846FFF7ECFB01E03046F8BD2046F8BD51F8040C002828
:40208000BEBF091851F8043CC018043870470000000000004869626173206B6F642100003433323100000000253032643A253032640000003230253032642D253032642D5C
:4020C0002530326400000000486F6779686F67793F000000004F00402400005100401000405100403000000001400010001401400002801601408003801A01408001004075
:402100000140000A004C0140000200500140200060520040C0040048060000160140C80400488000001A01404805004880004300232D302B2000686C4C0065666745464783
:40214000003031323334353637383941424344454600303132333435363738396162636465660000F8B500BFF8BC08BC9E4670474D000000A90A0000F8B500BFF8BC08BCF8
:402180009E4670472900000098210000C880FF1F90000000880000000000000018360000A02000003203010030750000E081FF1F0000E02EC05D00001800000000366E01D4
:4021C00000000000000000000000000000000000000000000000000000000000000000002E2100000000000000000000000000000000000000000000000000000000000090
:402200000000000000000000000000000000000000000000000000000000000000000000F080FF1F0000000000000000000000000000000000000000000000000000000010
:40224000000000000000000000000000000000000000000000000000000000000000000000000000000000000000000000000000000000000000000000000000000000005E
:40228000000000000000000000000000000000000000000000000000000000000000000000000000000000000000000000000000000000000000000000000000000000001E
:4022C00000000000000000000000000000000000000000000000000000000000000000000000000000000000000000000000000000000000000000000000000000000000DE
:40230000000000000000000000000000000000000000000000000000000000000000000000000000000000000000000000000000000000000000000000000000000000009D
:020000040003F7
:0200000480007A
:40000000064F004003520040015B00400465004001070140010901405E140140541501401016014037170140511801403D1901400A1A0140441B014003400140024101401C
:4000400002420140084301400245014003460140024701400B48014011490140044C01400A4D0140035001400151014001200A360D401636193022361180184019402F2127
:40008000860F880F89388A72EE04EE0400DC012C022203430580060307130C100D710EAC0F06140916D01B0C1C0C1E711F082010224024142A202D712F0E3330341F35C04D
:4000C00036E0370F39283A803B803F044003460449FF4A074BFF4C404D204EF04F0550085409580459045A045B045C115D015F01604061A8624063208040848D88428A083F
:400100008B108C0D8D028E808F0D9002920D948D9523970C9A809C8DA08DA411A505A622A73AA862A909AA14AB36B00FB270B480B530B70FB908BA0ABB80BE10BF04D440AD
:40014000D804D904DB04DF01000601400522068007110A210E620F0C10A81440160C1708180419801A011D081E401F14200221042210230125D0262829802D202E082F0433
:40018000308032103708380839403B013DA0410445804601508C580459115A806140640166106720800482108580880589018B048C048D128E2091419280970198409941A0
:4001C0009A949B199E01A020A211A304A508A608AC02AF10B608C0FDC2F5C47ECA68CC4CCE3BD002D60FD878E008E210E405EE48881C94289613A426A609A82BAA14B00111
:40020000B21EB620B808BE41D201D804DB04DF010010040805120602074009080B100CC00D080E881138120413081725181019401A801D131F1024082514264027202D92C5
:40024000364037253E843F1045164C024D014F105692570466016A406E2E6F5574807580802082408D408F01C0F2C2F4C476CAB0CCF0CE70D0E0D230D880E201E8100013DB
:40028000010102040615081309020A0C18031A141C0A1E142A0830103302340F35013A203E013F1440324104450C46C047EB483949FF4AFF4BFF4EF04F44500C54015804B8
:4002C00059045A045B045C015D115F0166C06A406B0285028701890F8A028C088E04910892019401950197069801990F9C049E089F10A104A201A301A40CA80CAE02AF103A
:40030000B00CB110B201B307B402B508B808BE10BF01D418D804D904DB04DC11DD10DF0100400308051406400724088009080A840D400F08101011101281140A178018448F
:4003400019011B081D101E401F2021102208238024202708298130903208331139103A083D033E20464047244F085501560457105A025D015E405F186006633082048D407A
:400380008F20C073C2CFC44FCA09CC0FCEA6D0E0D6F1D80CE240E410E810870293029701B103BA08BF01D804D904DC01DF0100840280030808800A900B04120A130A1990A6
:4003C0001A851B011D081F08218022852304244028802B29319132083501360A38A83E0840444110420143284880491052015A0869106B1170547210730A800881048640AB
:4004000088C08A0C8E2091209510968699019C889D849E699F11A208A480A508A680B410C00FC20FC40FCA0FCCCFCE4ED00FD204D602E440EE0833203680CC30A680A72027
:40044000A680A72018101F045740A680AB20C630D440EE206080D8021B049C80C6089C80AB04662068026C1083409308A680A740B410D880DAC0E2201640670873407C8013
:400480008C8093489E40AEC0AF40B412B620C420D880DC80DE20E810EE501F80B480C601E8081010750188109901AF80B501C408DE04E204EC0210031A031C02000F00009C
:4004C0008180020240000000840000000A98100201FC000360020000049800025602099884130064843800C0049A800080000400072138D8009A0000800000137F0F00E09A
:40050000200000A0000001002603400005E0FCBD3EFFFFFF2200F048040000000000022C04040404000000010000C00040021012C00200124002400200000000000000009F
:400540000000000000000000DC0021000030E300FF100000E72018003C02C20018030000000F04304434000B100100400800000BC03F00008034000B1F030004D84038388C
:4005800000002280000000046203010004C000E022FFFFFF62A0F0410C00000000000212040404041111000100000000000040020010301000101012000000000000000022
:4005C000000000000000000080007CBF830083020000000001000001000000000000000000FFFF000000000000FFFF00800000000040400040000A00160018011700180191
:4006000000000000000000000000000000000000000000000000000000000000000000000000000000000000000000000000000000000000000000000000000000000000BA
:40064000000000000000000000000000000000000000000000000000000000000000000000000000000000000000000000000000000000000000000000000000000000007A
:40068000000000000000000000000000000000000000000000000000000000000000000000000000000000000000000000000000000000000000000000000000000000003A
:4006C00000000000000000000000000000000000000000000000000000000000000000000000000000000000000000000000000000000000000000000000000000000000FA
:0200000490006A
:0400000000004005B7
:0200000490105A
:04000000BC90ACAF55
:0200000490303A
:02000000290FC6
:0200000490402A
:4000000000000000000000000000000000000000000000000000000000000000000000000000000000000000000000000000000000000000000000000000000000000000C0
:400040000000000000000000000000000000000000000000000000000000000000000000000000000000000000000000000000000000000000000000000000000000000080
:400080000000000000000000000000000000000000000000000000000000000000000000000000000000000000000000000000000000000000000000000000000000000040
:4000C0000000000000000000000000000000000000000000000000000000000000000000000000000000000000000000000000000000000000000000000000000000000000
:0200000490501A
:0C00000000012E16106900012E24397832
:00000001FF