:400000000080002011000000E5080000E508000008B5044B1A6803F53F5302331A6000F081FC00BFFA46004010B5054C237833B9044B13B10448AFF300800123237010BD20
:400040005881FF1F00000000441A0000084B10B51BB108490848AFF300800848036803B910BD074B002BFBD0BDE81040184700BF000000005C81FF1F441A0000C880FF1F26
:400080000000000008B5044800F0A4F9034800F03BF900F0ABFF08BDB081FF1FA881FF1F10B582B0044601F05BF980B2ADF8060000F002F9C0B28DF80500BDF806309BB2C4
:4000C000B3F57A7F0FD29DF80530DBB2194A1278934208D99DF80530DBB2174A1278934201D201232370154B1B78BDF806309BB240F2DC52934218D9BDF8062092B2A2F2DF
:40010000DC520F4B83FB0213D217C2EB631301339BB203EB83039800B0F5AF7FA8BF4FF4AF7080B200F0FCFF02E0002000F0F8FF02B010BD7481FF1FCC80FF1F034F0040DB
:400140001F85EB5108B5104800F0C2FF0F4801F011FA01F0D3F901F0DFF901F0EBF801F0F7F800F087FF00F04BFD0021084600F055FD00F08DFE00F04FFE01F017F800F045
:40018000E1FE01F015FA08BD850000001D05000030B583B0FFF7D6FF1A4B00241C605C60194D2C606C6062B68DF807408DF8064001221E21154800F0E3F80146284600F0B4
:4001C000FFF80223C8220DF10701114800F0B6F80146284600F0F4F8032364220DF106010C4800F0ABF80146284600F0E9F88DF80540094800F0C0FE4FF47A7000F02EFD3C
:40020000F7E700BFA881FF1FB081FF1F2D040000A100000065050000541A000010B582B00446012000F042FE00F0D0FD8DF807009DF8073013F0040FF6D000F0E5FD44F058
:40024000010000F0CFFD00F0C1FD8DF807009DF8073013F0010FF6D000F0DEFD00F0E4FD02B010BD00B583B0012000F01FFE00F0D3FD422000F0B6FD00F0A8FD8DF80700CB
:400280009DF8073013F0010FF6D000F0A5FD8DF807009DF8073013F0200FF6D000F0AEFD8DF80600002000F001FE00F0BDFD9DF8060003B05DF804FB08B58420FFF7AEFF32
:4002C000FFF7D0FF00F00F01C0F3011303EB83035800084408BD00BF034600685A68904203D100221A605A607047C2681A60704703682BB11A892AB1013A1A8100207047E3
:40030000002070470120704710B50446FFF7F0FF012811D12046FFF7DFFF044660B1036823B140899847204601F0B4FA63681BB19847204601F0AEFA10BD00BFF8B5064694
:400340000D4617461C46182001F09CFA58B9012000F00AFC0021084600F060FC074800F0F5FB0020F8BD0022428107810660426005614473012101734261F8BD741A0000B7
:4003800070B505460E461446182001F07BFA58B9012000F0E9FB0021084600F03FFC074800F0D4FB002070BD00224281068145600260447342610122027370BD741A000066
:4003C00039B1026812B9016041607047426851614160704710B5046811E0237B012B0DD163894BB923896381636803B19847236823B12069984701E0013B63816469002C08
:40040000EBD110BD024630B1074B5B781BB9064B187001215970044B5B78012B02D10AB9014B5A70704700BF8081FF1F10B5012000F060FC00F08EFC08B9002400E03124F8
:4004400000F090FC00B1322400F094FC00B1332400F098FC00B1412434B1002000F04AFC2046FFF7CFFF10BD002000F043FC012000F04CFC00F06EFC00B1342400F072FC3C
:4004800000B1352400F076FC00B1362400F07AFC00B1422434B1002000F038FC2046FFF7B1FF10BD002000F031FC012000F03AFC00F050FC00B1372400F054FC00B138242D
:4004C00000F058FC00B1392400F05CFC00B1432434B1002000F026FC2046FFF793FF10BD002000F01FFC012000F028FC00F032FC00B12A2400F036FC00B1302400F03AFCAE
:4005000000B1232400F03EFC00B14424002000F015FC2046FFF776FF10BD00BF00B583B001F002F880B2ADF80600BDF806309BB20A4A1288934203D2BDF80620074B1A80BB
:40054000BDF806309BB2064A1288934203D9BDF80620034B1A8003B05DF804FBD880FF1F8481FF1F82B00D4B1B880D4A12889B1A1BB2ADF80630BDF806301BB240F6B832F2
:40058000934201DD012303700022044B1A8047F23052034B1A8002B0704700BF8481FF1FD880FF1FFEE700BFF0B40022174611E050F82760F3B226F0FF0608E001EB420520
:4005C00011F812406D78A5550132013BDBB2002BF4D10137232FEBD9F0BC704708B50A46002101F06AF908BDF8B51B4B1B78DBB21A4E3478E4B21A4F3D78EDB203F0070148
:40060000184A11701B090132137044F00303337045F003033B700A20134B1870402392321370023213700632137002321370202302F2152213700332137080210532117055
:40064000033213702D32137000F01EFB3D7034704422064B1A70F8BDCF010049F8460040F94600406E5800403D5100407658004008B501F017F908BD38B50B223A4B1A80DC
:4006800018233A4A1370332102321180023213704FF49C71023211800232137040F28F1233490A8002310B7002310A80314A137040F2AF41023211800232137008222E49DB
:4006C0002E48FFF7D5FF02222D4B1A7008224FF040231A70032103F500731970294B1B78DBB229490B70294B1A8041F25122023B1A80002419250CE0254B1B7803F00103D2
:4007000043EA440404F003044FF4F07000F054FF013D0DB1032CEFD115B90320FFF742FF1C4B4FF480721A8007221A7000221A490A704820023108701A700222033B1A70DF
:4007400004220A331A70154A137843F03F031370013A137843F003031370013A137843F08003137038BD00BF80400040824000408C400040924000400C0900480041004077
:400780000043004008010049A146004022420040254200400440004006400040A243004038B572B63A4A137843F00403137000240CE0384D630019194A0011462A4408465B
:4007C00091882858FFF70AFF0134E4B2062CF0D900240BE02F49A3001819420088180622016BC06AFFF744FF0134E4B2002CF1D029494FF09040FFF7D7FE284A137843F033
:40080000020313701032137843F002031370244C237843F040032370A2F58632513A137843F0100313700A221E491F48FFF720FF0A221E491E48FFF71BFF0A221D491E4856
:40084000FFF716FF08221D491D48FFF711FF08221C491D48FFF70CFF08221C491C48FFF707FF1C4A137843F0080313701A4D61232B70FFF701FF81232B700122174B1A7012
:40088000FFF7B2FE0E2221461548FFF7F1FE38BDE8460040841A00009000004803500140A0430040D008004800510040DC080048C0510040E8080048F0510040F4080048FE
:4008C00012510040FC080048225100400409004832510040224300400048004004000840B043004008B500F0A1FF03680C2B00D1FEE7FEE708B5094B1A681044084BC31AF1
:40090000B3F5006F02DC054B186005E000F08EFF0C2303604FF0FF32104608BDDC80FF1FF081FF1F08B5104E104D16E029686B68AC68002204E051F8040B43F8040B0432AE
:40094000A242F8D1E868002203E0002143F8041B04328242F9D11035013E002EE6D100F06BFFFFF715FCFEE701000000E01A000008B5104A104B1A60104A136843F4007321
:40098000136000230AE0032B03D80D4A52F8231000E00C490C4A42F8231001332F2BF2D90A4B1A780A4B1A70074A0A4B1A60FFF7F7FE08BD0004FA050CED00E014ED00E036
:4009C00000000000E50800000080FF1FBC760040C080FF1F08ED00E010B50B4C237803F09F032370237803F0F00323702378184340F010002070012000F046F9237803F030
:400A0000EF03237010BD00BF2051004038B505460E4C237843F020032370237803F0BF032370002000F030F9237803F0F003237023781D4345F010052570012000F024F9A6
:400A4000237803F0EF03237038BD00BF2051004070B5354B1A7802F08002D2B21A7033490A7802F0F00242F00F020A7001310A7802F0F0020A7001310A7802F0F0020A7082
:400A80001A7802F0DF021A701A7842F040021A704FF4CA76002000F0F7F8234D2B7843F010032B70012000F0EFF8214B1C78E4B22B7803F0EF032B70002000F0E5F804F0AF
:400AC0000804E4B22B7843F010032B70012000F0DBF82B7803F0EF032B7014B90A2000F0D3F8013E0CB1002ED4D10F4A137803F0BF031370137803F08003DBB213700232E7
:400B0000137803F0F00313700132137803F0F00343F00F0313700132137803F0F00343F00F03137070BD00BF20510040225100402151004010B50446FFF78AFF2009FFF73A
:400B400065FF04F00F00FFF761FF10BD38B505460078012404E0FFF7EDFF285D0134E4B20028F8D138BD00BF10B50446FFF770FF2009FFF731FF04F00F00FFF72DFF10BDA6
:400B800008B5282000F06AF80320FFF725FF052000F064F80320FFF71FFF0F2000F05EF80320FFF719FF012000F058F80220FFF713FF052000F052F80620FFF7D5FF0E204B
:400BC000FFF7D2FF2C20FFF7CFFF0820FFF7CCFF0120FFF7C9FF0C20FFF7C6FF0320FFF7C3FF052000F03AF808BD00BF08B50C20FFF7BAFF0122014B1A7008BD8C81FF1F48
:400C000008B5054B5B7823B9FFF7BAFF0122024B5A70FFF7EBFF08BD8C81FF1F08B5032819D8DFE800F002070D1381F08000FFF79BFF08BDA1F14000C0B2FFF795FF08BDAD
:400C4000A1F16C00C0B2FFF78FFF08BDA1F12C00C0B2FFF789FF08BD01BE704710B5044605E0084B186800F0A7FCA4F50044B4F5004FF6D8034B586800FB04F000F09CFC50
:400C800010BD00BFE080FF1F08B5034B1B7A00FB03F000F091FC08BDE080FF1F70B504460E46074B1D681F2802D90020FFF7D4FF04F01F04103455F8240045F8246070BD7D
:400CC00008ED00E038B504460D46072902D90020FFF7C2FF1F2C02D90020FFF7BDFF04F01F0000F1604000F564406D01EDB2057038BD00BF044A137803F0EF03000100F099
:400D0000100018431070704710510040044A137803F0DF03400100F0200018431070704710510040044A137803F0BF03800100F0400018431070704710510040044A1378F3
:400D400003F07F03C001C0B218431070704700BF10510040024B1878C0F38000704700BFC1510040024B1878C0F3C000704700BFC1510040024B1878C0F30010704700BFD3
:400D8000C1510040024B1878C0F34010704700BFC151004008B500F017FC0B4A137843F020031370A2F58072137843F01003137002F20112137843F01003137000F008FC94
:400DC00000F080F808BD00BF95650040014B1878704700BF65640040014B1878704700BF66650040034B1B7813F0040FFAD0024B187070476564004046640040014B1878F9
:400E0000704700BF56640040024A137843F001031370704774650040024A137803F0FE03137070477465004008B501E00A4B1B780A4B1B7813F0200FF8D100F0C5FB084B57
:400E40001A7842F001021A701A7802F0FE021A7000F0BEFB08BD00BF56640040666500409664004008B50F22074B1A70FFF7DCFFFFF7ACFFFFF7B0FF0023044A137002F2DE
:400E80000112137008BD00BF856500408564004008B5054B1B7823B9FFF7E4FF0122024B1A70FFF777FF08BD8E81FF1F044A137803F0FB03800000F0040018431070704748
:400EC00010510040054A137843F0010313701032137843F001031370704700BFA24300407222084B1A70202203F580731A700622A3F265131A70472210331A7000224F33DA
:400F00001A7070478764004010B500F05DFB04460B4A137843F02003137002F58072137843F010031370A2F58372137843F01003137000F033F8204600F04AFB10BD00BFD6
:400F40009764004008B5054B1B7823B9FFF7C8FF0122024B1A70FFF7D7FF08BD8F81FF1F034B1B7813F0040FFAD1024B18707047616400404064004038B5074B1B782BB957
:400F800038BDFFF7EDFF0134A4B201E005460024285D0028F5D138BD8F81FF1F054A137843F0040313701032137843F004031370704700BFA2430040084A137843F0040316
:400FC00013701032137843F00403137002F66532137843F001031370704700BFA3430040014B1870704700BF1B4F0040014B1878704700BF1B4F0040014B1880704700BF2A
:401000001C4F0040014B1880704700BF1E4F004008B5154A137803F0010313700232137803F0FC031370114B1A7802F0CF021A701A7842F030021A701A7802F0F0021A70EE
:401040001A7842F00F021A70094A137843F0010313703B20FFF7D0FF3B20FFF7D3FF0820FFF7BEFF08BD00BF184F0040234F0040194F004008B5054B1B7823B9FFF7C8FF9D
:401080000122024B1A70FFF797FF08BD9181FF1F024B1B68C3F88C00704700BF08ED00E04001C0B2014B1870704700BF13E400E04FF40022014B1A60704700BF00E100E01D
:4010C0004FF40022014B1A60704700BF80E100E010B50446FFF7F4FF2046FFF7D9FF0720FFF7DEFFFFF7E4FF10BD00BF084A137843F0010313701032137843F00103137065
:4011000002F64D32137843F001031370704700BFA3430040014B1880704700BF044F0040014B1880704700BF064F0040014B1870704700BF034F004008B5194A137843F0C1
:40114000020313700232137803F08F0343F020031370144B1A7802F0CF021A701A7842F030021A701A7802F0F0021A701A7842F00F021A704FF4C870FFF7CCFF0020FFF75B
:40118000CFFF0020FFF7D2FF074A137843F00103137002F65E32137843F00103137008BD004F00400B4F0040A343004008B5054B1B7823B9FFF7C0FF0122024B1A70FFF7E2
:4011C00095FF08BD9281FF1F08B50A280FD00C2802D0082806D102E04FF4805209E04FF4807206E00020FFF737FD002201E04FF480620021094B198042F2107303FB02F365
:4012000003F6C413064A82FB0302DB17C3EBE223044A1360044B198008BD00BFD081FF1FAD8BDB68D481FF1FCE81FF1F10B500F0CBF904461E4A137843F0010313701032BE
:40124000137843F0010313701A3A137843F0010313701032137843F00103137002F5AA521232137843F0030313701822114B1A70013B1A7842F040021A701A7802F0FC021D
:401280001A70C822053B1A700222A3F597530C3B1A70094A137843F0080313700A20FFF7F3FC0122054B1A60204600F091F910BDAB43004006590040275B004080E200E060
:4012C00010B504460A280DD00C2802D0082804D101E0C22207E0422205E00020FFF7BCFCC22200E08222034B1A702046FFF76CFF10BD00BF0259004008B5102000F03EF8C1
:4013000007210020FFF7DEFC07490020FFF7C6FC064A137843F0060313700C20FFF7D0FF0022034B1A8008BD7913000001590040CC81FF1F08B5054B1B7823B9FFF7DCFF35
:401340000122024B1A70FFF771FF08BD9381FF1F024A137843F001031370704700590040034B188880B2034B1B88C01A00B27047A05B0040CE81FF1F704700BF034B1A78E3
:4013800000F0F80010431870704700BF0241004008B50A280FD00C2802D0082806D102E04FF4805209E04FF4807206E00020FFF753FC002201E04FF480620021094B198000
:4013C00042F2107303FB02F303F6C413064A82FB0302DB17C3EBE223044A1360044B198008BD00BFD881FF1FAD8BDB68E081FF1FDC81FF1F38B500F0E7F804461E4A1378EA
:4014000043F0020313701032137843F0020313701A3A137843F0020313701032137843F00203137002F5AA521A32137843F0030313701822114B1A70013B1A7842F040025F
:401440001A701A7802F0FC021A70C822053B1A700225A3F59753123B1D70094A137843F0080313700A20FFF70FFC064B1D60204600F0AEF838BD00BFAB4300400E59004082
:401480002F5B004080E200E010B504460A280DD00C2802D0082804D101E0C22207E0422205E00020FFF7D8FBC22200E08222034B1A702046FFF76CFF10BD00BF0A590040E3
:4014C00008B5102000F064F807210120FFF7FAFB07490120FFF7E2FB064A137843F0060313700C20FFF7D0FF0022034B1A8008BD1D05000009590040DA81FF1F08B5054B97
:401500001B7823B9FFF7DCFF0122024B1A70FFF771FF08BD9481FF1F024A137843F001031370704708590040034B188880B2034B1B88C01A00B27047A25B0040DC81FF1F1E
:40154000014B1B685864704708ED00E04001C0B2014B1870704700BF01E400E00222014B1A60704700E100E00222014B1A60704780E100E010B50446FFF7F6FF2046FFF7F8
:40158000DFFF0720FFF7E2FFFFF7E8FF10BD00BF034B1A7800F0F80010431870704700BF0641004008B500F06DF800F075F808BD08B5FFF7F7FF08BD0230800803D000BF58
:4015C00001380046FCD17047EFF3108072B6704780F31088704700BF10B500F087F800F0CFF810BB012000F0ADF8072818D102210F4800F08DF802280AD102E00120FFF7A5
:4016000043FB0C4B1B7813F0020FF7D0002409E0084B1B7813F0020FE9D04FF0FF3401E04FF0FF3400F0D2F800E00424204610BDE481FF1F2247004010B500F057F800F00D
:401640009FF8D0B900F0DEF80446072812D102E00120FFF719FB0A4B1B7813F0020FF7D0074B1B7813F0020F04D0054B1B789B0800D1002400F0AAF800E00424204610BD43
:401680002247004008B5FFF7D7FF034610B9FFF7A3FF0346184608BD08B5FFF795FF0F4A137843F0080313701032137843F008031370C8220A4B1A700A4A137843F010037A
:4016C00013701032137843F010031370064B1B7813F0200FFAD0FFF77BFF08BDA043004001470040AC4300400047004008B5FFF76BFF064A137843F00803137010321378D5
:4017000043F008031370FFF763FF08BDA043004070B506460D4600240CE00120FFF7B4FA064B1B7813F0010FF7D0054B1B7833550134E4B2AC42F3D3204670BD224700402B
:40174000204700400C4B1B7813F0020F0FD00B4BB6221A70E1221A700E221A7002331B7813F0020F05D1054B187007207047042070470920704700BF2247004020470040B4
:4017800010B5FFF721FF0F4B1B78A3B901220D4B1A700D4B1B6813F0010F0ED00A4A136823F00103136000BF00BF00BF0122054B5A60002402E0042400E00024FFF708FF42
:4017C000204610BD9881FF1F0400084008B5FFF7FBFE0A4B00221A705B68012B0AD1084A136843F00103136000BF00BF00BF0022024B5A60FFF7ECFE08BD00BF9881FF1F44
:4018000004000840074B1B7813F0020F08D0064BB6221A70E0221A700D221A7007207047042070472247004020470040014B1868704700BF5081FF1F0E4B70B51E460E4C1D
:401840000025E41AA410A54204D056F8253098470135F8E700F032F9084B094C1E46E41AA4100025A54204D056F8253098470135F8E770BDC81A0000C81A0000C81A00001C
:40188000D01A0000024B0146186800F06BB800BF5081FF1F024B0146186800F017B800BF5081FF1F10B5431E0A44914204D011F8014B03F8014FF8E710BD0346024493421D
:4018C00002D003F8011BFAE77047000038B50546002944D051F8043C0C1F002BB8BFE41800F0AEF81E4A1368114613B96360146030E0A3420DD92268A018834201BF1868AB
:401900005B681218226063600C6023E0A24203D813465A68002AF9D118681918A1420BD12168014458188242196013D110685268014419605A600DE002D90C232B6009E054
:4019400021686018824201BF106852680918216062605C602846BDE8384000F072B838BDA481FF1F70B5CD1C25F0030508350C2D38BF0C25002D064601DBA94202D90C23A0
:40198000336046E000F05CF8234B1C681A462146A1B10B685B1B0ED40B2B03D90B60CC18CD501EE08C420BBF63684B681360636018BF0C4615E00C464968E9E7174C2368AD
:4019C0001BB9304600F02CF820602946304600F027F8431C18D0C41C24F00304A0420DD12560304600F02DF804F10B00231D20F00700C31A0ED05A42E25070BD211A304645
:401A000000F00EF80130EBD10C233360304600F018F8002070BD00BFA481FF1FA081FF1F38B5064C0023054608462360FEF762FF431C02D1236803B12B6038BDE881FF1FB1
:401A400070477047000000004869626173206B6F6421000052656D656C656D20657A206D6F7374206A6F0D0A0000000034333231000000004D616C6C6F63206572726F726D
:401A800000000000004F0040240040510040300000000140001000140140000800400140000A004C01400002005001402000000060520040C808004806004300F8B500BF3A
:401AC000F8BC08BC9E4670474D00000071090000F8B500BFF8BC08BC9E46704729000000F01A0000C880FF1F900000009800000000000000180000006C1A000032030100F8
:401B000030750000F081FF1F0000E02EC05D00001800000000366E010000000000000000000000000000000000000000000000000000000000000000BA1A000000000000B5
:401B40000000000000000000000000000000000000000000000000000000000000000000000000000000000000000000000000000000000000000000F080FF1F00000000D7
:401B80000000000000000000000000000000000000000000000000000000000000000000000000000000000000000000000000000000000000000000000000000000000025
:401BC00000000000000000000000000000000000000000000000000000000000000000000000000000000000000000000000000000000000000000000000000000000000E5
:401C000000000000000000000000000000000000000000000000000000000000000000000000000000000000000000000000000000000000000000000000000000000000A4
:401C40000000000000000000000000000000000000000000000000000000000000000000000000000000000000000000000000000000000000000000000000000000000064
:020000040003F7
:0200000480007A
:40000000064F004005520040015B004005640040026500405000014036010140620201404303014061040140500501405206014046070140040A0140020B0140010F014022
:400040005C140140511501404F1601404017014001190140031B014005400140054101400B42014006430140014401400345014004460140014701400448014012490140BF
:40008000044C0140094D0140055001400151014001300A4B0D50164B1940224B010404081180184019402F21800F810F827283388772850F87380010038C053007400C1CE5
:4000C0000E0211AC13431531160317C61C091E101F08200C21312211234E241428102A0C2F53310F321F33F0378A3B8A40644105450C46BE480D49FF4AFF4BFF4EF04F4463
:40010000500C5401580459045A045B045C225D125F0166C06A406B02800A8211843F8704883F9102930C950F98149A099C019D0F9E06AC20AD10AF05B020B104B303B41886
:40014000B607B718B988BF05D401D804D904DB04DC21DD20DF010202038004280740080809400A600B400E05102012881540164017021A201D101E452002228A244225409B
:40018000272028802B022F02320A33803480368A38023B043F04430248014A184B0450205240582059855C405D045E205F02C079C2C5C48ECA19CCDBCE43D001D20CD6FF2F
:4001C000E6080263047C060108400C10101C1262160418671A181C60207F241828082C242E8032803478361F3AA03B804002460449FF4A074BFF4C404D204EF04F05500837
:4002000056025711580459045A045B045C215D125F01604061A862406320806C820384318553860E870C924C9503974499209B459F08A10AA208A354A553A613A704A83137
:40024000AA46B00FB140B230B30FB44AB730B808B980BA22BB08BE04BF01C003C604C9FFCA07CBFFCC40CD20CEF0CF05D008D418D804D904DA04DB04DC11DD11DF01E040AB
:40028000E1A8E240E320010203200510068207100A800C010D080E0510A0120814401618174019021B281D081E061F1021042249254029022B20302832403401360139089C
:4002C0003A803B404308472048204D804E0150C057825B015E20600461406C146D407508761A9201934094289544980899109A409B209C209D859F40A782C0FCC2F8C4FE9A
:40030000CA03CC0ECE02D022D621D80C09140C020D10112013031510170C1D091E011F10211C2302250C27112E013001311F320237203E053F404063410245E046B0470C12
:40034000481A49FF4AFF4BFF4EF04F44500C580459045A045C105D015F0166C06A406B028108820485048A048F12911D9302950C9601990D9B129E02A11FA201A513A70C92
:40038000B30EB406B501B601B71CBB08BE50BF10C035C106C204C402C6C0C7E0C828C9FFCAFFCBFFCC62CDA0CEF0CF41D00CD409D804D904DA04DB04DC10DD01DF01E640BA
:4003C000E702E910EA30EB10ED10EE10EF120080051007480A020E010F201201170219041B021D60200221022610271229022B202C502F503102324835083601371038A094
:4004000039043B083E0A3F404324441045204702484049014A084E044F405018510857115C025D805F14602061086702844086048801908092819360940495049808991A6D
:400440009A4A9B449C609D459F11A140A209A320A408A610A820AB44C051C2A1C411CAC3CCEBCEDCD0E6D234D6F0D810E285000101060F06130715041B071D021E022107E2
:4004800025072602320134023501370639203A803E14406441034210440245BE46FC470D481F49FF4AFF4BFF4C224EF04F485004580459045A045C115F0162C064406502A4
:4004C0006610671268C069026B126C406D026E406F0285018643883C8AC18E049004910194E79618983C99019AC29CFFA010A408A818B020B258B41FB501B680B880BA2850
:40050000BE01D602D713D804D904DB04DC22DD20DF010008014003080640088109480A040F0210281301170419151A061B081C041F442008211027052F503002321036012A
:40054000375839043E013F4044024504460447024D014E084F045480562857405901681269046A20706C73019201936094049602978E98089A409B589C029D809E019F0192
:40058000A140A201A303A480B080B310C017C28FC42ECAC0CCF5CE92D0F0D220D601B928BF14D904DF0127288328E6080444062A086710021215146729012C212ECA300712
:4005C00032803460361837013E403F404036410442024401450C47E0482149FF4AFF4BFF4C624DA04EF04F41500C5201580459045A045B045C025D025F01664067026910FF
:400600006A306B106D106E106F128004819A840485988702880789138A388B648C568D028E09900491FC93039521960497D8980A99029A109B989C049D389FC0A060A19AD9
:40064000A401A804AD98AF02B002B313B50FB67FB7E0B880BBA0BE01D602D728D804D904DB04DF010024041007520A600C800EA810011509172018051AC01B041F41214010
:40068000241025042640270428082F82365437063C103E063F8040814128480449085201671068026E246FD37480760280028140820483048504876188018C048D418E01E3
:4006C00091019220931095409680970298889B029C019D099E079F55A014A128A201A340A504A610AD80AF08B004B240B404B702C0F6C2FCC471CA94CCF0CEF0D00FD20463
:40070000D840E210EE0800CD04CD051307AC080209020A340B0D0C0D0D400EC010021149120D138614CD15E5171A18211A021E10200222382A402CCD300F3280330F344078
:400740003580363037703A023B883E143F105440580459045B045F01850C8610880E8B738D089122940395739604970C99049D33A004A17FA209A50FA610A770A805A94C2D
:40078000AA0AAB33AD11B010B130B20FB30FB54CB808BB08BE01D418D804D904DB04DC20DD20DF0100100108075509040E620F04122813021404160A170218101B011E42DC
:4007C0001F18212822212604270A2881291430203109324036083706388839203D083F944A044B105A0260046302666067208002830890889121922095409702988899146E
:400800009A289C039D809E059F02A034A342A50CA608C0F6C2F4C4DECA0FCCCFCE7ED601D87CE810E810E410E620EE08314036808540CC30E61007025840A680C080D480CC
:400840005F016381834188409C40A680AB02D6C0D840E2A0EC8018101F045480A680C630D44087016080A701D8021B019C80A701C6089C809308A480A680B4101704670827
:4008800073107C808080830487108C809308A480AE80C420D880DC80DE20E080E230EE101F80B480C601E8081020798088208D40AF80C408DC01E408E604000708060A07A0
:4008C00010051A05000F0000018002024000000004000804040004000000000080007CBF830083020000000001000001000000000000000000FFFF000000000000FFFF0017
:40090000800000000040400040000A00160018011700180100000000000000000000000000000000000000000000000000000000000000000000000000000000000000000E
:400940000000000000000000000000000000000000000000000000000000000000000000000000000000000000000000000000000000000000000000000000000000000077
:400980000000000000000000000000000000000000000000000000000000000000000000000000000000000000000000000000000000000000000000000000000000000037
:4009C00000000000000000000000000000000000000000000000000000000000000000000000000000000000000000000000000000000000000000000000000000000000F7
:400A000000000000000000000000000000000000000000000000000000000000000000000000000000000000000000000000000000000000000000000000000000000000B6
:0200000490006A
:0400000000004005B7
:0200000490105A
:04000000BC90ACAF55
:0200000490303A
:02000000CABB79
:0200000490402A
:4000000000000000000000000000000000000000000000000000000000000000000000000000000000000000000000000000000000000000000000000000000000000000C0
:400040000000000000000000000000000000000000000000000000000000000000000000000000000000000000000000000000000000000000000000000000000000000080
:400080000000000000000000000000000000000000000000000000000000000000000000000000000000000000000000000000000000000000000000000000000000000040
:4000C0000000000000000000000000000000000000000000000000000000000000000000000000000000000000000000000000000000000000000000000000000000000000
:0200000490501A
:0C00000000012E16106900012E22DB24E6
:00000001FF