:400000000080002011000000511C0000511C000008B5044B1A6803F53F5302331A6001F037FE00BFFA46004010B5054C237833B9044B13B10448AFF300800123237010BD67
:400040001082FF1F00000000D83A0000084B10B51BB108490848AFF300800848036803B910BD074B002BFBD0BDE81040184700BF000000001482FF1FD83A0000C880FF1F4C
:400080000000000010B544F62064B4FBF0F4064B1B78E0B202F010FBC4F3470002F012FB02F056FB10BD00BF0F4F004008B5002002F008FB02F0ECFA08BD00BF08B5074813
:4000C00000F040FD064800F0BBFC064800F0B8FC054800F0B5FC02F0D1F908BD8882FF1F7082FF1FB482FF1F6882FF1F10B582B0044602F007FC80B2ADF8060000F008FCE2
:40010000C0B28DF80500BDF806309BB2B3F5967F0FD29DF80530DBB2074A1278934208D99DF80530DBB2054A1278934201D20123237002B010BD00BF4182FF1F8E81FF1F2A
:4001400000B583B002F0DEFB80B2ADF80600164B1B78BDF806309BB2B3F5FA7F1ED3BDF806309BB2B3F57A7F0FD3BDF806309BB240F2DB5293420AD9BDF806309BB2B3F5C7
:40018000FA6F06D24FF4837005E0572003E0AF2001E04FF4AF7002F013FA02E0232002F00FFA03B05DF804FB034F004000B585B0684600F0CDFB012001F090FE0021084660
:4001C00001F0E6FE684601F077FE05B05DF804FB10B582B00021012001F0DAFE0A4801F06BFE0A4C22880A49684603F003F90021012001F0CDFE684601F05EFE2388013B8F
:40020000238002B010BD00BFC43D0000CC80FF1FDC3A000008B50521014800F089FC08BD8882FF1F00B583B06421084800F080FC0522074B9A70684600F08AFB0549684603
:4002400000F09CFF03B05DF804FB00BF8882FF1FCC80FF1FE43A000010B5144C6421204600F066FC0521204600F062FC0621204600F05EFC0321204600F052FC0221204619
:4002800000F056FC0721204600F04AFC0421204600F046FC064B00221A705A709A70054B03229A700122DA7010BD00BF8882FF1F2C82FF1FCC80FF1F10B5044602F05EF97C
:4002C00010B90123237010BD0023237010BD00BF70B582B01B4B0222DA7006229A70684600F036FB184E6B46184A1949304603F081F8184D0721284600F012FC6946164880
:4003000000F03CFF154C164A1649204603F072F80023237322463146134800F013FE6421284600F0FDFB114B1B884FF47A7101FB03F10F4800F03AFB01460E4800F054FB6B
:4003400002B070BDCC80FF1F9082FF1FBC82FF1FF03A00008882FF1F003B00007882FF1F8481FF1F103B0000B482FF1F9681FF1F250200006882FF1F08B5124802F0F0F8EC
:40038000114802F0C7FC02F03DF802F049F802F0A3FA02F0AFFA02F0B5F801F0EBFD0021084601F0F5FD01F0DFFE01F0A1FE02F04DF901F023FF02F0C3FB02F063FC02F045
:4003C000B5FA08BDBD000000D90C000038B50D4602460021084800F0CBFA084C0146204600F002FB2946064800F0E0FA0146204600F0FAFA38BD00BF850000007082FF1FEA
:40040000AD00000008B54FF496714FF4C870FFF7DDFF4FF496714FF4FA70FFF7D7FF4FF496714FF41670FFF7D1FF4FF496714FF42F70FFF7CBFF08BD10B5194B0022DA70D9
:400440009A701849184800F099FE4FF4C8710846FFF7BCFF4FF4C8714FF44870FFF7B6FF124C0321204600F05BFB0621204600F057FB0F4B1B78012B03D10221204600F02A
:400480004FFB0721094800F053FB0A4B0020187058709870084B1B7802F092F810BD00BFCC80FF1F183B0000203B00008882FF1F8F81FF1F2C82FF1F034F004070B582B05D
:4004C000FFF75AFF01F024F901F082F901F086F8A84B00251D605D60A74B1D605D60A74C25606560A64B1D605D6062B601221E21A44800F0E1FA0146204600F0FDFAA24E29
:400500000223C8223146A14800F0B4FA0146204600F0F2FA03236422711C9D4800F0AAFA0146204600F0E8FA06236422B11C994800F0A0FA0146204600F0DEFA04224CF234
:400540005031954800F0B8FA0146204600F0D4FA07224FF49671914800F0AEFA0146204600F0CAFA642240F6B8318D4800F0A4FA0146204600F0C0FA05224FF47A71894846
:4005800000F09AFA0146204600F0B6FAFFF764FE8DF80750844BDB78012B05D0002B79D0022B00F0CD8038E17F4B9B78042B65D0072B1CD0032B40F0308100F053FD002846
:4005C00000F02B8104216D4800F0B2FA7749784800F0D4FD0722744B9A7047F23051754800F0E4F90146664800F0FEF915E100F0C1FA8DF807009DF8073013F0FF0F02D0BA
:400600005F4800F0FBF99DF80730DBB2232B26D1694B1B781BBB644C0223A370674B1B8823806749674800F0A9FD0521534800F077FA23884FF47A7101FB03F1624800F01A
:40064000B5F94F4C0146204600F0CEF900215F4800F0ACF90146204600F0C6F9DDE09DF80730DBB22A2B40F0D88004214E4B9970424800F05DFA01F0C7F8CEE0544B1B78F9
:40068000012B04D1FFF7E8FDFFF790FDC5E001F029F9C2E0444B9B7813B1012B44D0BCE0394B1B783BB9384A527822B9364A9278002A00F0B2803BB1464D474C0FCC2860C2
:4006C0006960AA60EB6016E02F4B5B7843B1414C424B07CB20606160A2601B88A3810AE0294B9B783BB13B4C3D4B07CB20606160A2601B88A3810721204800F011FA39495A
:40070000344800F03BFD0122274B9A70364B1B884FF47A7101FB03F1344800F047F90146174800F061F978E000F09CFC012874D1134800F063F9FFF78FFDFFF737FD6CE0AB
:40074000194B9B78052B02D0062B51D065E000F089FC012861D1FFF77FFDFFF727FD064800F058F9064800F055F9002002F01AFD53E000BF7082FF1FB482FF1F8882FF1F4B
:400780006882FF1FE90B00002C82FF1FED000000210D0000B9020000AD0100004101000005040000D1010000CC80FF1F283B0000383B0000590200003C82FF1F9281FF1F28
:4007C000943C0000483B000015020000390400003F82FF1FBC82FF1F243C0000543B0000643B0000743B00009481FF1FD102000000F038FC012810D1194C204600F0FEF8F5
:40080000FFF72AFDFFF7D2FC164800F003F9204600F000F9002002F0C5FC02F0B5F918B102F09CF901F01AFD01F00CFD00283FF4B1AE0D4B1B78002B7FF4ACAE01F0ECFC03
:4008400040287FF4A7AE0122074B1A70074800F0F5FB074800F0F2FBFFF7FEFC9AE600BF6882FF1FB482FF1F3C82FF1F883B0000C03B000010B582B00446012001F082FCF8
:4008800001F010FC8DF807009DF8073013F0040FF6D001F025FC44F0010001F00FFC01F001FC8DF807009DF8073013F0010FF6D001F01EFC01F024FC02B010BD00B583B022
:4008C000012001F05FFC01F013FC422001F0F6FB01F0E8FB8DF807009DF8073013F0010FF6D001F0E5FB8DF807009DF8073013F0200FF6D001F0EEFB8DF80600002001F0AB
:4009000041FC01F0FDFB9DF8060003B05DF804FB08B58420FFF7AEFFFFF7D0FF00F00F01C0F3011303EB83035800084408BD00BF08B58220FFF79EFFFFF7C0FF00F00F011C
:40094000C0F3021303EB83035800084408BD00BF38B50446FFF7DCFF0546FFF7E9FF03462A460249204602F045FD38BD343C000070B505460E461446142002F05DFC58B931
:40098000012001F0ABFA0021084601F001FB064801F092FA002070BD86600560002242608481026170BD00BF543C000038B504460D46142002F040FC58B9012001F08EFA82
:4009C0000021084601F0E4FA064801F075FA002038BD856044600022026064218181026138BD00BF5C3C000031B1426812B941600160704711614160704700BF0346006869
:400A00005A68904203D100221A605A60704702691A60704710B5006803E0046902F014FC20460028F9D110BD03682BB19A682AB1013A9A6000207047002070470120704722
:400A400010B50446FFF7F0FF012812D12046FFF7D5FF044668B103682BB180899847204602F0F2FB10BD43681BB19847204602F0EBFB10BDF8B506460D4617461C461820FE
:400A800002F0DAFB58B9012001F028FA0021084601F07EFA074801F00FFA0020F8BD0022428107810660426005614473012101734261F8BD5C3C000070B505460E461446FE
:400AC000182002F0B9FB58B9012001F007FA0021084601F05DFA074801F0EEF9002070BD00224281068145600260447342610122027370BD5C3C000039B1026812B901601F
:400B0000416070474268516141607047006803E0437B8B4202D040690028F9D1704700BF08B5FFF7F3FF08B10122027308BD00BF08B5FFF7EBFF18B100220273028942812B
:400B400008BD00BF10B5046811E0237B012B0DD163894BB923896381636803B19847236823B12069984701E0013B63816469002CEBD110BD0F4B1B78012B11D110B501F04E
:400B80004BFB0446242805D10B4801F073FB0022084B1A700D2C08D00A2C08D1002010BD064B187800221A707047002010BD204610BD00BF3C82FF1F6C3C00002F82FF1F4F
:400BC000024630B1074B5B781BB9064B187001215970044B5B78012B02D10AB9014B5A70704700BF2F82FF1F10B5012001F0EEF901F01CFA08B9002400E0312401F01EFAE8
:400C000000B1322401F022FA00B1332401F026FA00B1412434B1002001F0D8F92046FFF7CFFF10BD002001F0D1F9012001F0DAF901F0FCF900B1342401F000FA00B135240F
:400C400001F004FA00B1362401F008FA00B1422434B1002001F0C6F92046FFF7B1FF10BD002001F0BFF9012001F0C8F901F0DEF900B1372401F0E2F900B1382401F0E6F9C9
:400C800000B1392401F0EAF900B1432434B1002001F0B4F92046FFF793FF10BD002001F0ADF9012001F0B6F901F0C0F900B12A2401F0C4F900B1302401F0C8F900B123245E
:400CC00001F0CCF900B14424002001F0A3F92046FFF776FF10BD00BF00B583B001F0A8FB80B2ADF80600BDF806309BB20A4A1288934203D2BDF80620074B1A80BDF8063040
:400D00009BB2064A1288934203D9BDF80620034B1A8003B05DF804FBD080FF1F3482FF1F10B584B00446124B1B88124A12889B1A1BB2ADF80E30BDF80E2012B20E4901A87A
:400D400002F058FB01A801F095FABDF80E301BB240F6B832934201DD012323700022044B1A8047F23052034B1A8004B010BD00BF3482FF1FD080FF1F903C000008B501F011
:400D8000D9FD08BD08B501F03DFE08BD38B50C46C5B2000A01F0CEFD611C89B2284601F0C9FD38BD38B5054601F02CFE0446681C80B201F027FE40EA042080B238BD00BFFF
:400DC000F8B507461646102928BF10210D46002406E0301980B201F015FE38550134E4B2AC42F6D3F8BD00BF08B5C1F3071101F01DFE08BD08B5084801F0DEFE0D2001F09B
:400E0000CFFE012001F06AF80021084601F0C0F8024801F051F808BD983C00009C3C000008B5084801F0C8FE0D2001F0B9FE012001F054F80021084601F0AAF8024801F030
:400E40003BF808BDB03C0000BC3C000008B5094B186801F0B1FE1A2001F0A2FE012001F03DF80021084601F093F8034801F024F808BD00BFCC82FF1FD03C000008B5084807
:400E800001F09AFE0D2001F08BFE012001F026F80021084601F07CF8024801F00DF808BDE43C0000F03C000000B589B00C4B1A680C4901A802F09EFA01A801F07DFE0D201C
:400EC00001F06EFE012001F009F80021084601F05FF8054800F0F0FF09B05DF804FB00BFD082FF1F003D0000103D000008B5012002F058F9012000F0F1FF0021084601F057
:400F000047F8054800F0D8FF0021012001F040F8024800F0D1FF08BD243D0000343D000008B5002002F03EF9012000F0D7FF0021084601F02DF8024800F0BEFF08BD00BF65
:400F4000403D000010B50446214B1960214B1A6064212148FFF72AFD01462046FFF744FD41F270711D48FFF721FD01462046FFF73BFD4FF4FA611A48FFF718FD014620460B
:400F8000FFF732FD4FF47A611648FFF70FFD01462046FFF729FD4FF47A611348FFF706FD01462046FFF720FD42F210710F48FFF7FDFC01462046FFF717FD41F288310C48A1
:400FC000FFF7F4FC01462046FFF70EFD10BD00BFCC82FF1FD082FF1FED0E0000F50D0000210E0000A90E00004D0E00007D0E0000210F000010B5044602F020FA421E002061
:40100000012309E0A15C303901FB030080B203EB830359008BB2013A002AF3DA10BD00BF08B5054B1B78012B02D101F017F908BD00F050FF08BD00BF3C82FF1F10B5044631
:40104000064B1B78012B06D1054801F013F9204601F010F910BD00F02FFF10BD3C82FF1FBC3B000010B5FFF785FD002838D004461D4B5B7833B9012000F030FF00210120F4
:4010800000F086FF2A20FFF7CBFF17494A78531CDBB24B7015498C54042B0AD0002010BD124AD15C124AD25C914207D10133DBB200E00023032BF3D9012400E000240022DD
:4010C000094B5A7074B91146012000F061FF0948FFF7B4FF0021012000F05AFF204610BD002010BD204610BD3C82FF1F1883FF1FD480FF1F503D000010B52A2822D020B395
:40110000412825D0422826D0432827D0442828D0184B9B78042B27D8232809D13BB316480024C454FFF766FF124B9C7000B210BD591C104A9170104AD054FFF771FF4FF0A4
:40114000FF3010BD6FF0010010BD4FF0FF3010BD4FF0FF3010BD4FF0FF3010BD4FF0FF3010BD4FF0FF3010BD4FF0FF3010BD4FF0FF3010BD3C82FF1F0083FF1F38B50546F4
:401180000C46012000F0AAFE0021084600F000FF2846FFF753FF0021012000F0F9FE2046FFF74CFF38BD00BF08B541680068FFF7E5FF08BD10B50446FFF7F6FF024B94E85C
:4011C000070083E8070010BDF082FF1F08B5FFF749FF10B10148FFF7EDFF08BD6881FF1F10B5FFF7C7FC412803D11248FFF7E2FF10BD422803D11048FFF7DCFF10BD43280E
:4012000012D10E4C302384F8AC3004F1B0020C490C4802F0EFF80021042000F0B9FE04F1A000FFF7C7FF10BD2A2802D10122064BDA7010BDE480FF1F5C81FF1FD480FF1FF4
:401240005C3D0000E082FF1F3C82FF1F10B5FFF791FC412813D1134C082084F8AC00FFF7A1FD02461049114802F0C4F80421012000F08EFE04F16400FFF79CFF10BD312827
:4012800003D10B48FFF796FF10BD322803D10948FFF790FF10BD2A2802D10748FFF78AFF10BD00BFD480FF1F643D0000E082FF1F2C81FF1FF080FF1FD880FF1F10B5FFF742
:4012C00059FC412813D1134C062084F8AC00FFF769FD02461049114802F08CF80421012000F056FE04F16400FFF764FF10BD312803D10B48FFF75EFF10BD322803D10948AB
:40130000FFF758FF10BD2A2802D10748FFF752FF10BD00BFD480FF1F643D0000E082FF1FE480FF1FFC80FF1FD880FF1F08B5FFF721FC41281AD10220154B83F8AC00FFF764
:4013400021FD012801D1134A00E0134A1349144802F050F80421012000F01AFE0C48114BC0F880307C30FFF725FF08BD312803D10D48FFF71FFF08BD322803D10B48FFF705
:4013800019FF08BD2A2802D10948FFF713FF08BDD480FF1F743D0000783D00007C3D0000E082FF1F903D0000F080FF1F0881FF1FD880FF1F10B5FFF7DDFB412813D1134C45
:4013C0000A2084F8AC00FFF7EDFC02461049114802F010F80421012000F0DAFD04F16400FFF7E8FE10BD312803D10B48FFF7E2FE10BD322803D10948FFF7DCFE10BD2A2828
:4014000002D10748FFF7D6FE10BD00BFD480FF1F643D0000E082FF1FFC80FF1F1481FF1FD880FF1F10B5FFF7A5FB412815D1144C002084F8AC00FFF7A5FC024611491248F9
:4014400001F0D8FF0421012000F0A2FD0F4B636704F17000FFF7AEFE10BD312803D10C48FFF7A8FE10BD322803D10A48FFF7A2FE10BD2A2802D10848FFF79CFE10BD00BF79
:40148000D480FF1FA03D0000E082FF1FB03D00000881FF1F2081FF1FD880FF1F38B5FFF769FB412816D1144C012584F8AC502846FFF768FC02461149114801F09BFF04218C
:4014C000284600F065FD0F4B636704F17000FFF771FE38BD312803D10B48FFF76BFE38BD322803D10948FFF765FE38BD2A2802D10748FFF75FFE38BDD480FF1FA03D00009D
:40150000E082FF1FB03D00001481FF1F2C81FF1FD880FF1F08B5FFF72DFB41281AD10320154B83F8AC00FFF72DFC012801D1134A00E0134A1349144801F05CFF0421012073
:4015400000F026FD0C48114BC0F880307C30FFF731FE08BD312803D10D48FFF72BFE08BD322803D10B48FFF725FE08BD2A2802D10948FFF71FFE08BDD480FF1F743D000074
:40158000783D00007C3D0000E082FF1F903D00002081FF1FE480FF1FD880FF1FB0B138B504460C4B1B791BB90021012000F0F0FC084D2B795A1C2A71074AD4542A20FFF781
:4015C0002FFD2B79042B03D1012038BD00207047002038BD3C82FF1FFC82FF1F10B50020FFF7D0FB104B58710120FFF7CBFB0F4C84F8BA000320FFF7C5FB84F8BB00022034
:40160000FFF7C0FB84F8BC000820FFF7CBFBA4F8BE000A20FFF7C6FBA4F8C0000620FFF7C1FBA4F8C20010BD3C82FF1FD480FF1F10B5FFF79FFAFFF75FFD00280CDB0B4CE9
:4016400094F8AC1080B2FFF7A1FBFFF7C7FF04F11000FFF7AFFD10BD10F1020F05D10022034B9A700348FFF7A5FD10BDD480FF1F3C82FF1FE480FF1F10B5FFF77BFAFFF726
:401680003BFD00280CDB0B4C94F8AC10C0B2FFF775FBFFF7A3FF04F11000FFF78BFD10BD10F1020F05D10022034B9A700348FFF781FD10BDD480FF1F3C82FF1FE480FF1FC6
:4016C00010B5FFF757FA31280BD10F4C94F8AC100120FFF753FBFFF781FF201DFFF76AFD10BD302809D1084C94F8AC100020FFF745FB201DFFF75EFD10BD2A2802D10348D5
:40170000FFF758FD10BD00BFD480FF1FE480FF1F08B5202204210248FFF752FB08BD00BFD480FF1F08B5234B9B79CBB9FFF722FAFFF734FF38B908BD1F4AD15C1F4AD1545F
:401740000133DBB200E00023032BF5D9194B01229A7100221A711A491A48FFF70FFD08BDFFF708FAFFF71AFF90B908BD134AD15C114AD25C914208D011491348FFF7FEFC66
:401780000C4B00229A711A7108BD0133DBB200E00023032BEAD920210748FFF725FB054B00229A711A71FFF7B3FF0848FFF702FD08BD00BF3C82FF1FFC82FF1F0883FF1F60
:4017C000BC3D0000CC3D0000DC3D0000D880FF1F08B5302209210A48FFF7F2FA002307E0074AD15C074A1A4482F8B0100133DBB2082BF5D90022034B83F8B92008BD00BF70
:40180000D482FF1FD480FF1F08B50022024BDA700248FFF7CFFC08BD3C82FF1FD880FF1F08B52A2820D0232807D11B4B9B68F3B10022194B9A60012008BDD8B141281CD0B7
:4018400042281DD043281ED044281FD0124B9B68092B1EDC591C104A9160104AD054FFF7DFFB4FF0FF3008BD6FF0010008BD4FF0FF3008BD4FF0FF3008BD4FF0FF3008BDD0
:401880004FF0FF3008BD4FF0FF3008BD4FF0FF3008BD4FF0FF3008BD3C82FF1F0C83FF1F08B5FFF767F9FFF7BBFF012809D130210948FFF799FAFFF78BFF0848FFF77AFCA6
:4018C00008BD10F1020F05D10022054B9A600348FFF770FC08BD00BF0C83FF1FD880FF1F3C82FF1F08B5024B9B68984708BD00BFF082FF1FFEE700BFF0B40022174611E0E7
:4019000050F82760F3B226F0FF0608E001EB420511F812406D78A5550132013BDBB2002BF4D10137242FEBD9F0BC704708B50A46002101F09CFC08BDF8B51E4B1B78DBB273
:401940001D4E3478E4B21D4F3D78EDB203F007011B4A11701B090132137044F00303337045F003033B700A20164B1870042290331A704023144A1370023213700632137040
:40198000023213701022114B1A702023104A137003321370802105321170033213702D32137001F09FFA3D7034704422094B1A70F8BD00BFCF010049F8460040F9460040E4
:4019C0006E5800403D51004001590040905A0040205B00407658004008B501F03DFC08BD38B50B22394B1A801823394A13704FF49C7238490A8002310B7002310A80364A1A
:401A0000137040F28F1204310A8002310B7002310A80324A137040F2AF41023211800232137008222E492F48FFF7D6FF02222E4B1A7008224FF040231A70032103F500739A
:401A400019702A4B1B78DBB229490B70294B1A8041F25122023B1A80002419250CE0264B1B7803F0010343EA440404F003044FF4F07001F0A5FB013D0DB1032CEFD115B92A
:401A80000320FFF737FF1D4B4FF480721A8007221A7000221A490A704820023108701A700222033B1A7004220A331A70154A137843F03F031370013A137843F00303137014
:401AC000013A137843F08003137038BD8040004082400040844000408A400040924000402C0A0048004100400043004008010049A146004022420040254200400440004006
:401B000006400040A243004038B572B63B4A137843F00403137000240CE0394D630019194A0011462A44084691882858FFF7FEFE0134E4B2082CF0D900240CE03048A20013
:401B400011194B000344B3F84020D96B986BFFF743FF0134E4B2012CF0D92A494FF09040FFF7CAFE284A137843F0020313701032137843F002031370244C237843F040035D
:401B80002370A2F58632513A137843F0100313700A221F491F48FFF71FFF05221E491F48FFF71AFF0A221E491E48FFF715FF08221D491E48FFF710FF08221D491D48FFF768
:401BC0000BFF08221C491D48FFF706FF1C4A137843F0080313701B4D61232B70FFF700FF81232B700122184B1A70FFF7A5FE0E2221461648FFF7F0FE38BD00BFE8460040DB
:401C0000D03E00009400004803500140A0430040F4090048C0510040000A0048CB510040080A0048F0510040140A0048125100401C0A004822510040240A00483251004081
:401C4000224300400048004004000840B043004008B501F0C5FA03680C2B00D1FEE7FEE708B5094B1A681044084BC31AB3F5106F02DC054B186005E001F0B2FA0C23036016
:401C80004FF0FF32104608BD9881FF1F4083FF1F08B5104E104D16E029686B68AC68002204E051F8040B43F8040B0432A242F8D1E868002203E0002143F8041B0432824246
:401CC000F9D11035013E002EE6D101F08FFAFEF7F5FBFEE701000000783F000008B5104A104B1A60104A136843F40073136000230AE0032B03D80D4A52F8231000E00C49B8
:401D00000C4A42F8231001332F2BF2D90A4B1A780A4B1A70074A0A4B1A60FFF7F5FE08BD0004FA050CED00E014ED00E000000000511C00000080FF1FBC760040C080FF1F5B
:401D400008ED00E010B50B4C237803F09F032370237803F0F00323702378184340F010002070012001F0BEF8237803F0EF03237010BD00BF2051004038B505460E4C237890
:401D800043F020032370237803F0BF032370002001F0A8F8237803F0F003237023781D4345F010052570012001F09CF8237803F0EF03237038BD00BF2051004070B5354BF5
:401DC0001A7802F08002D2B21A7033490A7802F0F00242F00F020A7001310A7802F0F0020A7001310A7802F0F0020A701A7802F0DF021A701A7842F040021A704FF4CA760A
:401E0000002001F06FF8234D2B7843F010032B70012001F067F8214B1C78E4B22B7803F0EF032B70002001F05DF804F00804E4B22B7843F010032B70012001F053F82B788C
:401E400003F0EF032B7014B90A2001F04BF8013E0CB1002ED4D10F4A137803F0BF031370137803F08003DBB213700232137803F0F00313700132137803F0F00343F00F03AA
:401E800013700132137803F0F00343F00F03137070BD00BF20510040225100402151004010B50446FFF78AFF2009FFF765FF04F00F00FFF761FF10BD38B505460078012425
:401EC00004E0FFF7EDFF285D0134E4B20028F8D138BD00BF08B5FFF7E3FF08BD10B50446FFF76CFF2009FFF72DFF04F00F00FFF729FF10BD08B5282000F0DEFF0320FFF739
:401F000021FF052000F0D8FF0320FFF71BFF0F2000F0D2FF0320FFF715FF012000F0CCFF0220FFF70FFF052000F0C6FF0620FFF7D5FF0E20FFF7D2FF2C20FFF7CFFF08204C
:401F4000FFF7CCFF0120FFF7C9FF0C20FFF7C6FF0320FFF7C3FF052000F0AEFF08BD00BF08B50C20FFF7BAFF0122014B1A7008BD4882FF1F08B5054B5B7823B9FFF7BAFF10
:401F80000122024B5A70FFF7EBFF08BD4882FF1F08B5032819D8DFE800F002070D1381F08000FFF79BFF08BDA1F14000C0B2FFF795FF08BDA1F16C00C0B2FFF78FFF08BD0F
:401FC000A1F12C00C0B2FFF789FF08BD044A137803F0EF03000100F0100018431070704710510040044A137803F0DF03400100F0200018431070704710510040044A137871
:4020000003F0BF03800100F0400018431070704710510040044A137803F07F03C001C0B218431070704700BF10510040024B187800F00100704700BF31510040024B1878B1
:40204000C0F3C000704700BFC1510040024B1878C0F30010704700BFC1510040024B1878C0F34010704700BFC151004008B501F0AFF80B4A137843F020031370A2F2011260
:40208000137843F01003137002F58072137843F01003137001F0A0F800F006FE08BD00BF96650040014B1878704700BF65640040014B1878704700BF65650040034B1B78BB
:4020C00013F0040FFAD0024B187070476564004046640040014B1878704700BF56640040024A137843F001031370704775650040024A137803F0FE031370704775650040B4
:4021000008B501E00A4B1B780A4B1B7813F0200FF8D101F05DF8084B1A7842F001021A701A7802F0FE021A7001F056F808BD00BF56640040656500409664004008B50F224F
:40214000074B1A70FFF7DCFFFFF7ACFFFFF7B0FF0023044A137002F58072137008BD00BF866500408564004008B5054B1B7823B9FFF7E4FF0122024B1A70FFF777FF08BDB4
:402180004A82FF1F044A137803F0FB03800000F00400184310707047105100407222084B1A70202201331A700622A3F265131A70472210331A70002203F253131A707047A0
:4021C0008865004010B501F003F804460A4A137843F0200313700132137843F010031370023A137843F01003137000F06BFD204600F0F2FF10BD00BF9865004008B5054B73
:402200001B7823B9FFF7CAFF0122024B1A70FFF7D9FF08BD4B82FF1F084B1B78DBB213F0200F06D0064A1078C0B213F01E0F02D17047002070470020704700BF69650040FE
:4022400048640040044B1B7813F0200F01D0012070470020704700BF69650040034B1B7813F0040FFAD1024B18707047676500404865004038B5074B1B782BB938BDFFF729
:40228000EDFF0134A4B201E005460024285D0028F5D138BD4B82FF1F08B50A280FD00C2802D0082806D102E04FF4805209E04FF4807206E0002000F0FDFD002201E04FF4DE
:4022C00080620021094B198042F2107303FB02F303F6C413064A82FB0302DB17C3EBE223044A1360044B198008BD00BF1C83FF1FAD8BDB682483FF1F2083FF1F38B500F035
:4023000067FF04461E4A137843F0020313701032137843F0020313701A3A137843F0020313701032137843F00203137002F5AA521A32137843F0030313701822114B1A70EF
:40234000013B1A7842F040021A701A7802F0FC021A70C822053B1A700225A3F59753123B1D70094A137843F0080313700A2000F0B9FD064B1D60204600F02EFF38BD00BFDA
:40238000AB4300400E5900402F5B004080E200E010B504460A280DD00C2802D0082804D101E0C22207E0422205E0002000F082FDC22200E08222034B1A702046FFF76CFF88
:4023C00010BD00BF0A59004008B5102000F0B0FC0721012000F0A4FD0749012000F08CFD064A137843F0060313700C20FFF7D0FF0022034B1A8008BDD90C00000959004080
:402400001E83FF1F08B5054B1B7823B9FFF7DCFF0122024B1A70FFF771FF08BD4D82FF1F024A137843F001031370704708590040034B188880B2034B1B88C01A00B2704741
:40244000A25B00402083FF1F084A137843F0040313701032137843F00403137002F66532137843F001031370704700BFA3430040014B1870704700BF1B4F0040014B1878FA
:40248000704700BF1B4F0040014B1880704700BF1C4F0040014B1880704700BF1E4F004008B5154A137803F0010313700232137803F0FC031370114B1A7802F0CF021A7060
:4024C0001A7842F030021A701A7802F0F0021A701A7842F00F021A70094A137843F0010313703B20FFF7D0FF3B20FFF7D3FF0820FFF7BEFF08BD00BF184F0040234F00406A
:40250000194F004008B5054B1B7823B9FFF7C8FF0122024B1A70FFF797FF08BD4E82FF1F024B1B68C3F88C00704700BF08ED00E04001C0B2014B1870704700BF13E400E04B
:402540004FF40022014B1A60704700BF00E100E04FF40022014B1A60704700BF80E100E010B50446FFF7F4FF2046FFF7D9FF0720FFF7DEFFFFF7E4FF10BD00BF024B1878AF
:4025800000F00100704700BFF1510040084A137843F0010313701032137843F00103137002F64D32137843F001031370704700BFA3430040014B1880704700BF044F0040CF
:4025C000014B1880704700BF064F0040014B1870704700BF034F004008B5194A137843F0020313700232137803F08F0343F020031370144B1A7802F0CF021A701A7842F08B
:4026000030021A701A7802F0F0021A701A7842F00F021A704FF4C870FFF7CCFF0020FFF7CFFF0020FFF7D2FF074A137843F00103137002F65E32137843F00103137008BD50
:40264000004F00400B4F0040A343004008B5054B1B7823B9FFF7C0FF0122024B1A70FFF795FF08BD4F82FF1F084A137843F0020313701032137843F00203137002F65932FF
:40268000137843F001031370704700BFA3430040084A137803F0FE031370A2F66932137803F0FD0313701032137803F0FD031370704700BF0C4F0040014B1880704700BF03
:4026C000104F0040014B1880704700BF124F0040014B1870704700BF0F4F004008B5194A137843F0020313700232137803F08F0343F020031370144B1A7802F0CF021A7097
:402700001A7842F030021A701A7802F0F0021A701A7842F00F021A70FF20FFF7CDFF7F20FFF7D0FF0020FFF7D3FF084A137843F00203137002F66A32137843F0010313701C
:4027400008BD00BF0C4F0040174F0040A343004008B5054B1B7823B9FFF7C0FF0122024B1A70FFF781FF08BD5082FF1F08B50A280FD00C2802D0082806D102E04FF4805246
:4027800009E04FF4807206E0002000F093FB002201E04FF480620021094B198042F2107303FB02F303F6C413064A82FB0302DB17C3EBE223044A1360044B198008BD00BF23
:4027C0002C83FF1FAD8BDB683083FF1F2A83FF1F10B500F0FDFC04461E4A137843F0010313701032137843F0010313701A3A137843F0010313701032137843F001031370A9
:4028000002F5AA521232137843F0030313701822114B1A70013B1A7842F040021A701A7802F0FC021A70C822053B1A700222A3F597530C3B1A70094A137843F00803137058
:402840000A2000F04FFB0122054B1A60204600F0C3FC10BDAB43004006590040275B004080E200E010B504460A280DD00C2802D0082804D101E0C22207E0422205E0002016
:4028800000F018FBC22200E08222034B1A702046FFF76CFF10BD00BF0259004008B5102000F050FA0721002000F03AFB0749002000F022FB064A137843F0060313700C2010
:4028C000FFF7D0FF0022034B1A8008BD1D290000015900402883FF1F08B5054B1B7823B9FFF7DCFF0122024B1A70FFF771FF08BD5182FF1F024A137843F0010313707047F0
:4029000000590040034B188880B2034B1B88C01A00B27047A05B00402A83FF1F704700BF08B500F07DFA00F085FA08BD08B5FFF7F7FF08BD30B583B00C468DF8070000F082
:4029400007FBB4F5006F52D22509A4EB0514A4B200F0D2FB00284CD101230DF107022146402000F021FB044607282FD1234B1B7813F0020FFAD0214B1B7813F0020F06D0AC
:402980001E4B1B789B0805D04FF0FF3403E04FF0FF3400E00024E4B9194A537812782946402000F065FB072816D1144B1B7813F0020FFAD0114B1B7813F0020F0FD00F4B42
:4029C0001B789B0810D04FF0FF340DE0012809D10AE04FF0FF3407E04FF0FF3404E04FF0FF3401E04FF0FF3400F0ACFB02E0012400E00424204603B030BD00BF22470040ED
:402A00003483FF1F38B5044600F0E2FB054600F03BFA04F1804000F500400478E4B200F041FA284600F0D8FB204638BD38B504460D4600F08DFA15F0800F48D100F05CFBA5
:402A4000002846D110222146402000F0E9FA07282FD1214B1B7813F0020FFAD01E4B1B7813F0020F06D01C4B1B789B0805D04FF0FF3403E04FF0FF3400E00024E4B9174A1E
:402A8000537812782946402000F0F2FA072816D1114B1B7813F0020FFAD00F4B1B7813F0020F0FD00C4B1B789B080DD04FF0FF340AE04FF0FF3407E04FF0FF3404E04FF09F
:402AC000FF3401E04FF0FF3400F03CFB02E0012400E00424204638BD224700403483FF1F7222084B1A702022FD331A700622A3F5B1731A70472210331A70022250331A70FF
:402B0000704700BF8764004010B500F061FB04460A4A137843F020031370FD32137843F010031370A2F58172137843F01003137000F012F9204600F04FFB10BD97640040DD
:402B400008B5054B1B7823B9FFF7CAFF0122024B1A70FFF7D9FF08BD5282FF1F084B1B78DBB213F0200F06D0064A1078C0B213F01E0F02D17047002070470020704700BFAF
:402B80006465004044650040044B1B7813F0200F01D0012070470020704700BF64650040034B1B7813F0040FFAD1024B18707047626400404564004038B5074B1B782BB9D4
:402BC00038BDFFF7EDFF0134A4B201E005460024285D0028F5D138BD5282FF1F054A137843F0040313701032137843F004031370704700BFA8430040054B1A7802F0FD0234
:402C00001A701A7800F0020010431870704700BF28580040014B1870704700BF825B0040064B1B78C3F3810303F19243063393F82831DBB2024A1370704700BF2858004078
:402C40000A46004008B5064B1A7802F0F3021A701A7800F00C0010431870FFF7E1FF08BD2858004010B50024054B1C7001331C700420FFF7E7FF2046FFF7BEFF10BD00BFC5
:402C80002858004008B5074B1B7823B9FFF7EAFF0122044B1A70FFF7A1FFFA20FFF7BAFF08BD00BF5482FF1F054A137843F0010313701032137843F001031370704700BF93
:402CC000A2430040054A137843F0040313701032137843F004031370704700BFA2430040014B1B685864704708ED00E04001C0B2014B1870704700BF01E400E00222014BAA
:402D00001A60704700E100E00222014B1A60704780E100E010B50446FFF7F6FF2046FFF7DFFF0720FFF7E2FFFFF7E8FF10BD00BF034B1A7800F0F80010431870704700BF0B
:402D400006410040034B1A7800F0F80010431870704700BF02410040054A137843F0020313701032137843F002031370704700BFA243004010B500F0EBF800F0BDF910BB6F
:402D8000012000F09BF9072818D102210F4800F0F1F802280AD102E0012000F0A3F80C4B1B7813F0020FF7D0002409E0084B1B7813F0020FE9D04FF0FF3401E04FF0FF3426
:402DC00000F0C0F900E00424204610BD3483FF1F2247004010B500F0BBF800F08DF9D0B900F0CCF90446072812D102E0012000F079F80A4B1B7813F0020FF7D0074B1B78ED
:402E000013F0020F04D0054B1B789B0800D1002400F098F900E00424204610BD2247004008B5FFF7D7FF034610B9FFF7A3FF0346184608BD08B500F0CBF90F4A137843F0A3
:402E4000080313701032137843F008031370C8220A4B1A700A4A137843F0100313701032137843F010031370064B1B7813F0200FFAD000F0B1F908BDA04300400147004045
:402E8000AC43004000470040054A137843F001031370034B1B7813F0020FFAD0704700BF02470040024A137803F0FE03137070470247004001BE704710B5044605E0084BBF
:402EC000186800F07DF9A4F50044B4F5004FF6D8034B586800FB04F000F072F910BD00BF9C81FF1F08B5034B1B7A00FB03F000F067F908BD9C81FF1F70B504460E46074B37
:402F00001D681F2802D90020FFF7D4FF04F01F04103455F8240045F8246070BD08ED00E038B504460D46072902D90020FFF7C2FF1F2C02D90020FFF7BDFF04F01F0000F10A
:402F4000604000F564406D01EDB2057038BD00BF08B500F03DF9064A137843F0080313701032137843F00803137000F035F908BDA043004070B506460D4600240CE00120DA
:402F8000FFF7B0FF064B1B7813F0010FF7D0054B1B7833550134E4B2AC42F3D3204670BD224700402047004030B43E2801D81F2B03D93F2827D90F2B27D8174C247814F0F5
:402FC000020F24D0154CB6252570D4252570012525700234247814F0020F1AD10F4C2070C1F300202070C9B22170591EC9B22170002104E0545C094804700131C9B2994200
:40300000F8D3072006E0012004E0012002E0042000E0092030BC70472247004020470040114B1B7813F0020F19D010B40F4BB6241C70D5241C7002241C7002331B7813F01E
:40304000020F0ED1094B1870002304E0CC5C0748047001339BB29342F8D3072002E004207047092010BC7047224700402047004030B4104C247814F0020F15D00E4CB62586
:403080002570D8252570052525700234247814F0020F0BD1084C2070080A2070C9B2217022702370072002E0042000E0092030BC704700BF22470040204700400C4B1B78DE
:4030C00013F0020F0FD00B4BB6221A70E1221A700E221A7002331B7813F0020F05D1054B187007207047042070470920704700BF224700402047004010B500F069F80F4B3C
:403100001B78A3B901220D4B1A700D4B1B6813F0010F0ED00A4A136823F00103136000BF00BF00BF0122054B5A60002402E0042400E0002400F050F8204610BD5882FF1F77
:403140000400084008B500F043F80A4B00221A705B68012B0AD1084A136843F00103136000BF00BF00BF0022024B5A6000F034F808BD00BF5882FF1F04000840074B1B78AA
:4031800013F0020F08D0064BB6221A70E0221A700D221A7007207047042070472247004020470040044A137803F0FB03800000F00400184310707047305100400000000091
:4031C0000230800803D000BF01380046FCD17047EFF3108072B6704780F31088704700BF014B1868704700BF0C82FF1F0E4B70B51E460E4C0025E41AA410A54204D056F8A4
:40320000253098470135F8E700F0A4FE084B094C1E46E41AA4100025A54204D056F8253098470135F8E770BD603F0000603F0000603F0000683F0000024B0146186800F0C9
:403240006BB800BF0C82FF1F024B0146186800F017B800BF0C82FF1F10B5431E0A44914204D011F8014B03F8014FF8E710BD03460244934202D003F8011BFAE77047000036
:4032800038B50546002944D051F8043C0C1F002BB8BFE41800F0DAF81E4A1368114613B96360146030E0A3420DD92268A018834201BF18685B681218226063600C6023E085
:4032C000A24203D813465A68002AF9D118681918A1420BD12168014458188242196013D110685268014419605A600DE002D90C232B6009E021686018824201BF1068526865
:403300000918216062605C602846BDE8384000F09EB838BD6482FF1F70B5CD1C25F0030508350C2D38BF0C25002D064601DBA94202D90C23336046E000F088F8234B1C6875
:403340001A462146A1B10B685B1B0ED40B2B03D90B60CC18CD501EE08C420BBF63684B681360636018BF0C4615E00C464968E9E7174C23681BB9304600F02CF82060294675
:40338000304600F027F8431C18D0C41C24F00304A0420DD12560304600F059F804F10B00231D20F00700C31A0ED05A42E25070BD211A304600F00EF80130EBD10C233360E7
:4033C000304600F044F8002070BD00BF6482FF1F6082FF1F38B5064C0023054608462360FEF73EFC431C02D1236803B12B6038BD3883FF1F0EB400B54FF402719CB0ADF886
:4034000014106FF00041049107914FF6FF711DAB02900690084853F8042BADF81610006802A9019300F06EF8029B00221A701CB05DF804EB03B070470C82FF1F034613F8A1
:40344000012B002AFBD1181A01387047704770472DE9F0478E6882469E420C46914698463ED88A8912F4906F3AD02568096902236F1A656905EB450595FBF3F57B1C434425
:403480009D4238BF1D4653050FD52946FFF744FF064698B13A462169FFF7DEFEA38923F4906343F08003A38113E02A4600F0E3FA064670B921695046FFF7E2FE0C23CAF8E2
:4034C0000030A3894FF0FF3043F04003A381BDE8F08726613E44266046466561ED1BA560464528BF464649463246206800F0A8FAA36800209B1BA36023681E442660BDE843
:40350000F08700002DE9F04F9DB003938B8980461C060D4616460DD50B695BB94021FFF7FBFE2860286118B90C23C8F80030CDE040236B610023099320238DF82930DFF8E3
:403540009CB130238DF82A3037463C4614F8013B1BB9B7EB060910D003E0252BF9D02746F3E74B46324629464046FFF771FF013000F0A780099B4B4409933B78002B00F094
:40358000A08000234FF0FF3204930793059206938DF853301A930126052221784E4800F041FA671C049B38B14B4A3C46801A06FA00F018430490EFE7D90644BF20228DF880
:4035C00053201A0744BF2B228DF8532022782A2A03D0079A00210A200BE0039A111D12680391002A10DA524243F00200079204900BE027463B780134303B092B03D800FBBF
:4036000002320121F5E701B107923B782E2B1ED17B782A2B0AD1039B02371A1D1B680392002BB8BF4FF0FF33059310E0002319460593781C0A2407463A780130303A092A85
:4036400003D804FB01210123F5E703B1059103223978224800F0E6F940B14023CBEB000003FA00F0049B013718430490397806221B487E1C8DF8281000F0D4F988B1194B4B
:4036800033B9039B073323F007030833039314E003AB00932A46144B04A94046AFF3008007E003AB00932A460F4B04A9404600F093F8B0F1FF3F824603D0099B534409930E
:4036C00042E7AB895B0601D4099801E04FF0FF301DB0BDE8F08F00BF1E3F0000243F0000283F000000000000513400002DE9F04791461F460A698B6806469342B8BF13460B
:40370000C9F8003091F843200C46DDF8208012B10133C9F800302368990642BFD9F800300233C9F80030256815F0060510D104F1190A07E00123524639463046C047013045
:403740001AD00135E368D9F800209B1A9D42F1DB94F843302268003318BF012392060FD5E118302081F843005A1C94F845102244023382F8431003E04FF0FF30BDE8F08729
:4037800004F1430239463046C0470130F4D02268D9F80050E36802F00602042A08BF5D1B2269A3680CBF25EAE57500259342C4BF9B1AED184FF000091A344D4509D001235B
:4037C000224639463046C0470130D5D009F10109F3E70020BDE8F0872DE9F04317460A7E85B06E2A984606460C460C9B01F1430E00F0AE8011D8632A22D009D8002A00F093
:40380000BB80582A40F0CA8081F84520834955E0642A1ED0692A1CD0C0E0732A00F0B08009D86F2A2ED0702A40F0B8800A6842F020020A603EE0752A24D0782A3AD0ADE086
:403840001A6801F14205111D1960136884F84230A8E021681A6811F0800F02D0111D196008E011F0400F02F10401196002D0B2F9003000E01368002B3CDA2D225B4284F887
:40388000432037E021681A6811F0800F02D0111D196007E011F0400F02F10401196001D0138800E01368227E5C496F2A14BF0A2208221BE078225A4984F8452022681868E1
:4038C00012F0800F00F104051D6003D1550601D5038800E00368D00744BF42F0200222601BB9226822F0200222601022002084F8430001E049490A226568002DA56008DB8F
:40390000206820F0040020602BB9002D7DD175460CE0002B79D07546B3FBF2F002FB1033CB5C05F8013D03460028F5D1082A0BD12368DA0708D5236962689A42DEBF302354
:4039400005F8013C05F1FF35C5EB0E0323612EE008681A6810F0800F496903D0101D1860136808E010F0400F02F104001860136801D0198000E0196000232361754616E02E
:403980001A68111D1960156800216268284600F049F808B1401B6060636804E004F1420584F8422001232361002384F84330CDF800803B4603AA21463046FFF797FE013074
:4039C00002D14FF0FF3026E023692A4639463046C0470130F5D023689B0710D5002504F1190907E001234A4639463046C0470130E7D00135E368039A9B1A9D42F2DBE068FE
:403A0000039B9842B8BF184605E00B7804F1420584F842308AE705B0BDE8F0832F3F0000403F000010B5C9B202449042034605D01C7801308C42F8D1184610BD002010BD92
:403A4000884210B501EB020301D8421E0BE09842FBD28118D21AD34204D013F8014D01F8014DF8E710BD994204D011F8014B02F8014FF8E710BDF8B5074615460E4621B9C4
:403A80001146BDE8F840FFF747BC1AB9FFF7F8FB2846F8BD00F015F885420ED929463846FFF73AFC044650B131462A46FFF7D4FB31463846FFF7E4FB01E03046F8BD204603
:403AC000F8BD51F8040C0028BEBF091851F8043CC018043870470000000000002564207300000000524941535A544153210000002573202D20656B6B6F723A2025730000DD
:403B0000524941535A54415349204D4F440000002B333625730000006D6F6462616E000066696779656C6F002A202D206265616C6C697461736F6B0023202D2066696779DE
:403B4000656C6F206D6F6400456C6573697465732E2E2E00523A204D6F7A67617365727A2E000000523A20526565642D72656C652E00000049726A612062652061206B6F2A
:403B8000646F7421000000005043205541525420696E74657266616365206861737A6E616C617462616E2E20566973737A612024206265697261736176616C2E0D0A000035
:403BC0004972642062652061206B6F646F74206120666F6C797461746173686F7A2E0D0A46696779656C6F206D6F646261206E656D206C656865742068656C79657A6E69E3
:403C00002C206373616B2061206265616C6C697461736F6B2065726865746F656B20656C2E0A0000523A2046656E7965727A656B656C6F00253032643A253032640000001B
:403C40003230253032642D253032642D25303264000000004D616C6C6F6320004D616C6C6F63206572726F7200000000566973737A6176616C746173206E6F726D616C20D9
:403C8000757A656D6D6F6462612E200D0A00000025640D0A0000000041540000534D532073656E64696E6720312F342E2E00000041542B434D47463D31000000534D53203D
:403CC00073656E64696E6720322F342E2E000000534D532073656E64696E6720342F342E2E00000041542B43504F57443D310000506F776572696E6720646F776E2E2E0093
:403D000041542B434D47533D2225732200000000534D532073656E64696E6720332F342E2E000000534D532073656E64696E6720302F3400506F776572206F6E2E2E00005F
:403D4000506F7765726564206F66662E000000004869626173206B6F64210000257320232F2A00002564207320233A4F6B202A3A58000000424500004B49000025732076D2
:403D8000616E206B617063736F6C766100000000313A20426520303A204B69202A3A58002564206820233A4F6B202A3A58000000556A2028302D3234293A00002020202013
:403DC000202020202020202020000000556A206B6F6420756A72613A000000004E656D20656779657A6E656B206D656721000000413A506172616D2E20423A204B6F6400EA
:403E0000433A2054656C2E202A3A204B69000000413A456C657369746573692069646F00313A3C2D20323A2D3E202A3A204B6900413A437369706F672E20686F73737A61D3
:403E400000000000413A4175746F2E2062656B617063732E00000000413A4465616B742E2069646F00000000413A456A737A616B61206B657A642E00413A456A737A616BC8
:403E80006120766567650000413A46656E7965727A2E206E657A7A6500000000556A3A0031203A2062652C20303A206B690000004B6572656D2061206B6F646F743A0000FD
:403EC000556A206B6F646F743A2000002B333600004F0040240000510040100040510040300000000140000880080140800700140140000800400140000A004C014000026F
:403F00000050014020000000605200406C0900480600000801407409004880004300232D302B2000686C4C00656667454647003031323334353637383941424344454600B9
:403F40003031323334353637383961626364656600000000F8B500BFF8BC08BC9E4670474D000000DD1C0000F8B500BFF8BC08BC9E46704729000000883F0000C880FF1F45
:403F8000480100003001000000000000FF0003013075000034333231F03D0000003E0000E1110000103E0000203E00004D120000303E0000203E0000BD120000443E000090
:403FC000203E00002D130000583E0000203E0000B5130000683E0000203E000025140000783E0000203E00009D140000883E0000203E000015150000E082FF1F9C3E0000BD
:4040000031160000E082FF1F9C3E000079160000E082FF1FA03E0000C1160000B03E0000943C0000CD110000C03E0000943C000025170000E082FF1FCC3E0000A118000032
:40404000FF00000037303236363833303700180101001400140014004083FF1F0000E02EC05D00001800000000366E0100000000000000000000000000000000000000004B
:404080000000000000000000000000001C3F0000000000000000000000000000000000000000000000000000000000000000000000000000000000000000000000000000A5
:4040C000000000000000000000000000AC81FF1F00000000000000000000000000000000000000000000000000000000000000000000000000000000000000000000000075
:40410000000000000000000000000000000000000000000000000000000000000000000000000000000000000000000000000000000000000000000000000000000000007F
:40414000000000000000000000000000000000000000000000000000000000000000000000000000000000000000000000000000000000000000000000000000000000003F
:4041800000000000000000000000000000000000000000000000000000000000000000000000000000000000000000000000000000000000000000000000000000000000FF
:4041C00000000000000000000000000000000000000000000000000000000000000000000000000000000000000000000000000000000000000000000000000000000000BF
:020000040003F7
:0200000480007A
:40000000064F004004520040015B004002640040056500405D0201402D0301405804014041050140510601404C070140170801403D090140070B0140020D01405514014014
:400040004F15014047160140511701404718014050190140041A0140121B0140034001400441014006420140074301400244014004450140064601400347014008480140A5
:4000800017490140054C0140044D0140075001400151014001300A360D501636194022361180184019401C802F21820F87728438860F870F8872893802930540068008B112
:4000C0000A0E0E4C1308146C150A1683171419131B041D131E081F0C250327042CB12D202E462F053080310F320F3340344A36303730388039803A283B023E413F0440011D
:40010000454049FF4A074BFF4C404D204EF04F0550085401580459045A045B045C115D115F01604061A8624063208050850C8711880289108A0C8C248E408F039001952098
:40014000987099149A08A040A110A30CA509A710A830AA44AC40AD1CAE30AF02B002B11FB27CB320B601BE41BF04D804D904DC21DF01001203010518069407210B480C8013
:400180000E2010801206174018121B011D941E601F042040220423402606274128612D082E8032183514374138643D0445804C8056805C025E485F208E08C0FBC2AAC48BB3
:4001C000CA5BCCF6CE4ED010D6F0E604040308010A020B020C031008110613091709180C19081B031C011E02200C2108230527062A042F083001320233083507360C38883C
:400200003B203E413F044001464049FF4A074BFF4C404D204EF04F055008580459045A045C215D025F01604061A86240632081018702880189018D019902A301A401A501BD
:40024000AB02AC01AF01B001B301B702BE01BF44C014C102C50EC6C0C7B0C829C9FFCAFFCBFFCEF0CF44D00CD409D804D904DA04DB04DD01DF01E6C0EA40EB0200680520D9
:40028000080309200A0210481609171819011A011B081F0120042120220826402710286029402D602E0630093120362038203C803D0A3E104201468447404D0450185304D5
:4002C000540156105D015EA05F046702824888088C1092089424950496209A849B409C619E10A401AC02AD04AF01B401C047C20BC4AACAFBCC27CEF4D0B8D6F0D81005017F
:40030000130121012902350339204036410142204404450E46FC47DB483D49FF4AFF4BFF4C224EF04F48500459045A045C205F0162C0644065026610671268C069026B12F8
:400340006C406D026E406F0280038110843F8518882C89088A138C338D248E0C9001930496339763980299409C0F9D609E30A008A11CA361A404A51CA762A80CA97FAD6744
:40038000AF18B00FB31FB42CB61CB760BA82BB08D602D713D804D904DB04DC11DD10DF010068028008140A020B80102813011401160218401A021B6120202302261029102F
:4003C0002B512C402F043014328A340238283B813C243F204480452046014748480449104D204F045662578459016994703C73018104820189218E20900492489308944026
:4004000095419636970499019A089C629D609E039F08A308A454A505A620A780AE10AF80B520C00FC20FC40ECAAFCC8FCE4FD0F0D220D601E004EE0488028A0D8D0E9104F1
:400440009309950397049C099E06A005A105A20AA30AA803AA0CB00FB10FB20FB902BA0AD804D904DF0100100408058206280A020C410E200F08110212081502160117180E
:4004800018101A801D191F5020402610274528802C402D842E282F403209340235103640370438403D103F86452847414E025410570482088C808D01930498019A019B10BA
:4004C000A140A340A504B601B740C0F2C2F1C4FACAF1CCF3CEF8D0F0D210E010EC40EE04880189408B048F10A504E460E8408D04E6440210051F0608091F0A100C040D0AD1
:400500000E020FB1100212051407151417891A081C071D011F4620012202300731203318341035C0360837073E503F10404341064201440246CE480C49FF4AFF4BFF4C6228
:400540004DA04EF04F41500C5418580459045A045B045C125D115F016640670269106A306B106D106E106F12800182028402860488028A088C0D9002920D97039B039C0D51
:400580009F01A00DA40DA80DAD02B00FB103BA02D201D440D804D904DB04DF01010803AA040805200680070109A00A800B200C800E4012401501171419501A801E40200486
:4005C0002108228227402E80310832803520374839143B80404441044202441045084804512053805B026150640166286D8081088242874089408A408F409048911D932077
:400600009780980199209AA89B1F9C10A084A180A32AA682A808AC90B102B302B501C0FFC29FC478CA10CC7ACE0ED00FD204D601D87CE210E401E630EA0100070102023811
:40064000040A05980610070208560A090C040D9A0E80100411981302140115021798186019211BD81C841D381FC02084219A24802604288429FC2B032D132F643113327FE0
:400680003480350F37E038083BA03E1056025728580459045B045F01800282048501880889018D019601A008A40CA602AA01B001B301B40EBA20BB20BE01D401D804D904D2
:4006C000DB04DC10DD20DF010120034004080520068007410B100C800EA00F081008126013011501171419221C201D201E202008210422082408266027482D212E80366088
:40070000370539943C803E043F01582059015A4865046D436E146F1574C081808710882089408B108E10904091949248954096349780980199049A689B029C909D609F48FF
:40074000A32CA444A521A6AAA904AC42B020B120B210C0FAC2F4C47ECAB0CCF0CEDED60FD840E208E601E810EE0B01100401050808040B040D1C0E630FE1101F126013637C
:40078000147F15FF187319181A0C1C5C1D1C1E231FE220022140240325E72718280C29602C082D24302C311F32103360340F3580364C39203A223B023E044031410545B0AB
:4007C00047CE483249FF4AFF4BFF4EF04F44500C56025711580459045A045B045C225D225F0166C06A406B028E01B201D418D804DB04DC02DD20DF010180062807010C0427
:400800000D080E4A14401611172018101C011D201E681F10260927482A102B082D802F58340437613C103E4A454047044E804F805504570159015E20600461406C046D04A3
:400840006E80760B77208004841089048B018D018E88900493809408950498409B059C029D809F08A010A148A340A524A642A701AA40AD01AE10AF10B112B201B404B50119
:40088000C0E1C2F0C4F0CAF0CCF0CEF0D050D210D621D80CE2E0E8B0B802BE01D804DF011D028002830889808A208D029C029D809E20A708A801AA02B140B340B504E69093
:4008C000E880EEC033203510CC3081109D10A720E6205380A380A720AF80D420EE1018101F045680AB20C630D440EE207001DC01608083809402D8021B049C80A780B401A9
:40090000C608E8029C80A780AB04660468086C0893089E80B410D880DAC00D201504670873107C8085208A808C888E04931895049E84A408AD04AF10C280C420D880DC806B
:40094000DE20E010EA10EC401F80A780B480C601E80811018901C408E601000708060A070C0510071A071C04000F0000010402024000000000030C043000000530000008FC
:4009800010032004000003200103060C000A4004204010000C000310004040000040080001000E10403000000F0F30400000282000000101240305000100C00E18FFFFFFAB
:4009C00062A0F0410C0000000000000004040400220200010000000000004002001030100010101200000000000000000000000000000000840078BF8700870200040000F4
:400A0000000800040000000001000001000000000000000000FFFF000000000000FFFF00800000008145440040000A00160018011700180100000000000000000000000079
:400A40000000000000000000000000000000000000000000000000000000000000000000000000000000000000000000000000000000000000000000000000000000000076
:400A80000000000000000000000000000000000000000000000000000000000000000000000000000000000000000000000000000000000000000000000000000000000036
:400AC00000000000000000000000000000000000000000000000000000000000000000000000000000000000000000000000000000000000000000000000000000000000F6
:400B000000000000000000000000000000000000000000000000000000000000000000000000000000000000000000000000000000000000000000000000000000000000B5
:0200000490006A
:0400000000004005B7
:0200000490105A
:04000000BC90ACAF55
:0200000490303A
:02000000544A60
:0200000490402A
:4000000000000000000000000000000000000000000000000000000000000000000000000000000000000000000000000000000000000000000000000000000000000000C0
:400040000000000000000000000000000000000000000000000000000000000000000000000000000000000000000000000000000000000000000000000000000000000080
:400080000000000000000000000000000000000000000000000000000000000000000000000000000000000000000000000000000000000000000000000000000000000040
:4000C0000000000000000000000000000000000000000000000000000000000000000000000000000000000000000000000000000000000000000000000000000000000000
:0200000490501A
:0C00000000012E16106900012E3164B3BF
:00000001FF