:400000000080002011000000DD200000DD20000008B5044B1A6803F53F5302331A6002F07DF800BFFA46004010B5054C237833B9044B13B10448AFF300800123237010BD06
:400040001082FF1F00000000603F0000084B10B51BB108490848AFF300800848036803B910BD074B002BFBD0BDE81040184700BF000000001482FF1F603F0000C880FF1F32
:400080000000000010B544F62064B4FBF0F4064B1B78E0B202F080FCC4F3470002F082FC02F0C6FC10BD00BF0F4F004008B5002002F078FC02F05CFC08BD00BF08B50748DD
:4000C00000F08CFE064800F007FE064800F004FE054800F001FE02F041FB08BD8882FF1F7082FF1FB482FF1F6482FF1F10B582B0044602F077FD80B2ADF8060000F0F2FCE2
:40010000C0B28DF80500BDF806309BB2B3F5967F12D29DF80530DBB2084A127893420BD99DF80530DBB2064A1278934204D2054B1B78012B00D1237002B010BD3982FF1F57
:400140008A81FF1F8B81FF1F00B583B002F04AFD80B2ADF80600164B1B78BDF806309BB2B3F5FA7F1ED3BDF806309BB2B3F57A7F0FD3BDF806309BB240F2DB5293420AD9E6
:40018000BDF806309BB2B3F5FA6F06D24FF4837005E0572003E0AF2001E04FF4AF7002F07FFB02E0232002F07BFB03B05DF804FB034F004000B585B0684600F0EFFC012071
:4001C00002F0D2F80021084602F028F9684602F0B9F805B05DF804FB10B582B00021012002F01CF90D4802F0ADF80D4C22880D49684603F043FB0021012002F00FF9684619
:4002000002F0A0F82388013B2380074B1B78022B02D1684603F090F902B010BDDC420000CC80FF1F643F00003482FF1F08B50521014800F0C9FD08BD8882FF1F00B583B066
:400240006421084800F0C0FD0522074B9A70684600F0A4FC0549684601F090F803B05DF804FB00BF8882FF1FCC80FF1F6C3F000010B5144C6421204600F0A6FD0521204694
:4002800000F0A2FD0621204600F09EFD0321204600F09AFD0221204600F096FD0721204600F08AFD0421204600F086FD064B00221A705A709A70054B03229A700122DA70BA
:4002C00010BD00BF8882FF1F2C82FF1FCC80FF1F10B5044602F0C2FA10B90123237010BD0023237010BD00BF10B582B01C4B0222DA7006229A70684600F050FC6B46194ACC
:4003000019491A4803F0BAFA0721194800F054FD6946184801F032F8174C184A1849204603F0ACFA00232373164B1B78012B04D122460E49144800F0F5FE64210C4800F0C4
:400340003BFD124B1B884FF47A7101FB03F1104800F078FC01460F4800F092FC02B010BDCC80FF1FBC83FF1F783F00009082FF1F8882FF1F883F00007882FF1F8081FF1FFC
:40038000983F00008C81FF1FB482FF1F9281FF1F3D0200006482FF1F00B589B002F022FC80B2ADF81E00BDF81E2092B20449684603F064FA684603F0BFF809B05DF804FB98
:4003C000A03F000008B5114802F03AFA02F0F4FB02F000FC02F006FA02F012F80021084602F01CF802F002F902F0C6F802F09EFA02F044F902F012FD03F04AF802F0B0FD85
:4004000003F000F902F002FC08BD00BFBD00000038B50D4602460021084800F0F5FB084C0146204600F02CFC2946064800F00AFC0146204600F024FC38BD00BF8500000004
:400440007082FF1FAD00000008B54FF496714FF4C870FFF7DDFF4FF496714FF4FA70FFF7D7FF4FF496714FF41670FFF7D1FF4FF496714FF42F70FFF7CBFF08BD10B5194BF5
:400480000022DA709A701849184800F077FF4FF4C8710846FFF7BCFF4FF4C8714FF44870FFF7B6FF124C0321204600F085FC0621204600F081FC0F4B1B78012B03D102219F
:4004C000204600F079FC0721094800F07DFC0A4B0020187058709870084B1B7802F0E0F910BD00BFCC80FF1FB03F0000B83F00008882FF1F8B81FF1F2C82FF1F034F004045
:4005000070B582B0FFF75EFF01F004FA01F062FA01F064F9A94B00251D605D60A84B1D605D60A84C25606560A74B1D605D6062B601221E21A54800F00BFC0146204600F0A2
:4005400027FCA34E0223C8223146A24800F0DEFB0146204600F01CFC03236422711C9E4800F0D4FB0146204600F012FC06236422B11C9A4800F0CAFB0146204600F008FC3C
:4005800004224CF25031964800F0E2FB0146204600F0FEFB07224FF49671924800F0D8FB0146204600F0F4FB642240F6B8318E4800F0CEFB0146204600F0EAFB05224FF459
:4005C0007A718A4800F0C4FB0146204600F0E0FBFFF74EFE8DF80750854BDB78012B05D0002B76D0022B00F0CF8038E1804B9B78042B62D0072B1CD0032B40F0308100F083
:4006000031FE002800F02B8104216E4800F0DCFB7849794800F0B2FE0722754B9A7047F23051764800F00EFB0146674800F028FB15E100F0EBFB8DF807009DF8073013F06F
:40064000FF0F02D0604800F025FB9DF80730DBB2232B23D1664C0223A370694B1B8823806849694800F08AFE0521564800F0A4FB23884FF47A7101FB03F1644800F0E2FAF5
:40068000514C0146204600F0FBFA0021604800F0D9FA0146204600F0F3FAE0E09DF80730DBB22A2B40F0DB800421514B9970454800F08AFB01F0AAF9D1E0564B1B78012B8B
:4006C00004D1FFF7D5FDFFF775FDC8E001F00CFAC5E0474B9B7813B1012B49D0BFE03C4B1B7833B93A4A52781AB9394A9278002A37D03BB1484D494C0FCC28606960AA6033
:40070000EB6016E0324B5B7843B1434C444B07CB20606160A2601B88A3810AE02C4B9B783BB13D4C3F4B07CB20606160A2601B88A3810721234800F03FFB3B49364800F03C
:400740001DFE01222A4B9A70384B1B884FF47A7101FB03F1364800F075FA01461A4800F08FFA00F07FFD012879D1FFF781FD76E000F078FD012872D1134800F08BFAFFF739
:4007800077FDFFF717FD6AE0194B9B78052B02D0062B4FD063E000F065FD01285FD1FFF767FDFFF707FD064800F080FA064800F07DFA002002F032FE51E000BF7082FF1FB7
:4007C000B482FF1F8882FF1F6482FF1F890E00002C82FF1FED000000790F0000D1020000B50100004901000049040000D9010000CC80FF1F0C4000001C4000007102000022
:400800008E81FF1FC44000002C4000002D0200007D0400003782FF1FBC83FF1F404100003840000048400000584000009081FF1FE902000000F016FD012810D16B4C2046DA
:4008400000F028FAFFF714FDFFF7B4FC684800F02DFA204600F02AFA002002F0DFFD02F001FB60B1634B1B78012B04D102F0E4FA01F034FF03E002F0DFFA02F051FE02F074
:4008800043FE002877D05B4B1B78022B73D05A4BDB78002B6FD102F017FE40280BD10222544B1A70554800F0BFFC554800F0BCFCFFF7DEFC7FE0413813287CD8DFE800F069
:4008C0000D7B4D7B7B217B7B7B2E46547B7B37417B247B0A01F050F96DE04A4BDB78022B06D1494802F028FE484802F025FE62E01BB9474802F020FE5DE0464802F01CFEF4
:4009000059E0FFF749FD56E001F006FF012801D1414800E0414802F00FFE4CE001F09EFF08B93F4800E03F4802F006FE43E007213D4800F049FA3D4B1B78002001F0B0FFED
:4009400039E00721384800F037FA34E001222A4BDA70374A374B1A602DE00122264BDA70354A344B1A6026E00122234BDA70334A304B1A601FE0204BDB78012B1BD102F0A5
:40098000C3FDC0B102F0B6FDC0B2D42803D01A4B1B79FD2B0AD9184B19790022284842541A71DA70234B1B68984704E0591C124A1171234AD05401F085FE00283FF40CAE09
:4009C0000C4B1B78012B3FF407AE01F065FE40287FF402AE0122074B1A701A4800F024FC074800F021FCFFF743FCF5E56482FF1FB482FF1F3482FF1F2C82FF1F6C4000009A
:400A0000A4400000CC80FF1FC8400000BC83FF1FE0400000F4400000C03F0000D03F0000E03F0000FC3F00008882FF1F034F0040811C00006C82FF1F911B0000D91B000044
:400A4000BC82FF1F0841000010B582B00446012001F0DAFD01F06AFD8DF807009DF8073013F0040FF6D001F07FFD44F0010001F069FD01F05BFD8DF807009DF8073013F07E
:400A8000010FF6D001F078FD01F07EFD02B010BD00B583B0012001F0B7FD01F06DFD422001F050FD01F042FD8DF807009DF8073013F0010FF6D001F03FFD8DF807009DF8B7
:400AC000073013F0200FF6D001F048FD8DF80600002001F099FD01F057FD9DF8060003B05DF804FB08B58420FFF7AEFFFFF7D0FF00F00F01C0F3011303EB830358000844D0
:400B000008BD00BF08B58220FFF79EFFFFF7C0FF00F00F01C0F3021303EB83035800084408BD00BF08B58020FFF78EFFFFF7B0FF00F00F01C0F3021303EB830358000844C1
:400B400008BD00BF08B58620FFF77EFFFFF7A0FF00F00F01C0F3011303EB83035800084408BD00BF08B58820FFF76EFFFFF790FF00F00F0008BD00BF08B58C20FFF764FF91
:400B8000FFF786FF00F00F01C0F3071303EB83035A00881800F5FA6008BD00BF38B50446FFF7A0FF0546FFF7ADFF03462A460249204602F063FE38BD744100002DE9F04343
:400BC00085B00446FFF7D8FF0546FFF7CBFF0646FFF7B8FF0746FFF785FF8046FFF792FF8146FFF79FFF0390CDF80890CDF80480009733462A460349204602F03FFE05B0E7
:400C0000BDE8F0836041000070B505460E461446142002F055FD58B9012001F0A5FB0021084601F0FBFB064801F08CFB002070BD86600560002242608481026170BD00BFD6
:400C40008041000038B504460D46142002F038FD58B9012001F088FB0021084601F0DEFB064801F06FFB002038BD856044600022026064218181026138BD00BF88410000BD
:400C800031B1426812B941600160704711614160704700BF034600685A68904203D100221A605A60704702691A60704710B5006803E0046902F00CFD20460028F9D110BD3C
:400CC00003682BB19A682AB1013A9A6000207047002070470120704710B50446FFF7F0FF012812D12046FFF7D5FF044668B103682BB180899847204602F0EAFC10BD43689D
:400D00001BB19847204602F0E3FC10BDF8B506460D4617461C46182002F0D2FC58B9012001F022FB0021084601F078FB074801F009FB0020F8BD0022428107810660426060
:400D400005614473012101734261F8BD8841000070B505460E461446182002F0B1FC58B9012001F001FB0021084601F057FB074801F0E8FA002070BD002242810681456059
:400D80000260447342610122027370BD8841000039B1026812B90160416070474268516141607047006803E0437B8B4202D040690028F9D1704700BF08B5FFF7F3FF08B146
:400DC0000122027308BD00BF08B5FFF7EBFF18B1002202730289428108BD00BF10B5046811E0237B012B0DD163894BB923896381636803B19847236823B12069984701E0B8
:400E0000013B63816469002CEBD110BD114B1B78BBB110B5012B03D101F03EFC044602E002F052FB0446242C05D10B4801F062FC0022084B1A700D2C08D00A2C08D1002009
:400E400010BD064B187800221A707047002010BD204610BD3482FF1F984100003182FF1F024630B1074B5B781BB9064B187001215970044B5B78012B02D10AB9014B5A70E3
:400E8000704700BF3182FF1F10B5012001F0E4FA01F012FB08B9002400E0312401F014FB00B1322401F018FB00B1332401F01CFB00B1412434B1002001F0CEFA2046FFF7D3
:400EC000CFFF10BD002001F0C7FA012001F0D0FA01F0F2FA00B1342401F0F6FA00B1352401F0FAFA00B1362401F0FEFA00B1422434B1002001F0BCFA2046FFF7B1FF10BD63
:400F0000002001F0B5FA012001F0BEFA01F0D4FA00B1372401F0D8FA00B1382401F0DCFA00B1392401F0E0FA00B1432434B1002001F0AAFA2046FFF793FF10BD002001F06E
:400F4000A3FA012001F0ACFA01F0B6FA00B12A2401F0BAFA00B1302401F0BEFA00B1232401F0C2FA00B14424002001F099FA2046FFF776FF10BD00BF10B5044601F0CCFBA3
:400F800010B90023237010BD0123237010BD00BF08B501F03FFE08BD08B501F0A3FE08BD38B50C46C5B2000A01F034FE611C89B2284601F02FFE38BD38B5054601F092FE09
:400FC0000446681C80B201F08DFE40EA042080B238BD00BFF8B507461646102928BF10210D46002406E0301980B201F07BFE38550134E4B2AC42F6D3F8BD00BF08B5C1F364
:40100000071101F083FE08BD10B504460D4B1B784BB1012001F0A8F90021084601F0FEF9204601F08FF9204602F086FA012001F09BF90021084601F0F1F9204600F0F4F878
:4010400010BD00BF3482FF1F08B5054801F022FF0D2001F013FF0348FFF7D6FF08BD00BFBC410000C041000008B5054801F012FF0D2001F003FF0348FFF7C6FF08BD00BF76
:40108000D4410000E041000000B589B0084B1A68084901A802F0F2FB01A801F0FBFE0D2001F0ECFE0448FFF7AFFF09B05DF804FBD083FF1FF44100000442000008B5054BCD
:4010C000186801F0E7FE1A2001F0D8FE0248FFF79BFF08BDCC83FF1F1842000008B5012002F09CF90148FFF78FFF08BD2C42000008B5054801F0CEFE0D2001F0BFFE0348E1
:40110000FFF782FF08BD00BF3C4200004842000008B5002002F082F90148FFF775FF08BD5842000010B50446214B1960214B1A6064212148FFF786FD01462046FFF7A0FDCF
:4011400041F270711D48FFF77DFD01462046FFF797FD4FF4FA611A48FFF774FD01462046FFF78EFD4FF47A611648FFF76BFD01462046FFF785FD4FF47A611348FFF762FDED
:4011800001462046FFF77CFD42F210710F48FFF759FD01462046FFF773FD41F288310C48FFF750FD01462046FFF76AFD10BD00BFCC83FF1FD083FF1FDD100000491000006B
:4011C0006910000089100000BD100000F11000001111000010B5044602F074FB421E0020012309E0A15C303901FB030080B203EB830359008BB2013A002AF3DA10BD00BF91
:4012000008B5084B1B78012B02D101F067FA08BD13B901F0A5F808BD022B01D102F080F908BD00BF3482FF1F10B504460B4B1B78012B06D10A4801F05DFA204601F05AFAD4
:4012400010BD13B901F07EF810BD022B05D1044802F072F9204602F06FF910BD3482FF1F3C41000010B5FFF7D1FD002838D004461D4B5B7833B9012001F076F8002101202B
:4012800001F0CCF82A20FFF7BBFF17494A78531CDBB24B7015498C54042B0AD0002010BD124AD15C124AD25C914207D10133DBB200E00023032BF3D9012400E000240022AB
:4012C000094B5A7074B91146012001F0A7F80948FFF7AAFF0021012001F0A0F8204610BD002010BD204610BD3482FF1F1884FF1FD080FF1F6842000010B52A2822D020B30B
:40130000412825D0422826D0432827D0442828D0184B9B78042B27D8232809D13BB316480024C454FFF756FF124B9C7000B210BD591C104A9170104AD054FFF761FF4FF0C2
:40134000FF3010BD6FF0010010BD4FF0FF3010BD4FF0FF3010BD4FF0FF3010BD4FF0FF3010BD4FF0FF3010BD4FF0FF3010BD4FF0FF3010BD3482FF1F0084FF1F38B50546F9
:401380000C46012000F0F0FF0021084601F046F82846FFF749FF0021012001F03FF82046FFF742FF38BD00BF08B541680068FFF7E5FF08BD10B50446FFF7F6FF024B94E8A6
:4013C000070083E8070010BDF083FF1F08B5FFF749FF10B10148FFF7EDFF08BD6481FF1F10B5FFF713FD412803D11248FFF7E2FF10BD422803D11048FFF7DCFF10BD4328C2
:4014000012D10E4C302384F8AC3004F1B0020C490C4802F033FA0021042000F0FFFF04F1A000FFF7C7FF10BD2A2802D10122064BDA7010BDE080FF1F5881FF1FD080FF1F71
:4014400074420000E083FF1F3482FF1F10B5FFF7DDFC412813D1134C082084F8AC00FFF7ABFD02461049114802F008FA0421012000F0D4FF04F16400FFF79CFF10BD31282C
:4014800003D10B48FFF796FF10BD322803D10948FFF790FF10BD2A2802D10748FFF78AFF10BD00BFD080FF1F7C420000E083FF1F2881FF1FEC80FF1FD480FF1F10B5FFF732
:4014C000A5FC412813D1134C062084F8AC00FFF773FD02461049114802F0D0F90421012000F09CFF04F16400FFF764FF10BD312803D10B48FFF75EFF10BD322803D10948C7
:40150000FFF758FF10BD2A2802D10748FFF752FF10BD00BFD080FF1F7C420000E083FF1FE080FF1FF880FF1FD480FF1F08B5FFF76DFC41281AD10220154B83F8AC00FFF708
:401540002BFD012801D1134A00E0134A1349144802F094F90421012000F060FF0C48114BC0F880307C30FFF725FF08BD312803D10D48FFF71FFF08BD322803D10B48FFF76D
:4015800019FF08BD2A2802D10948FFF713FF08BDD080FF1F8C4200009042000094420000E083FF1FA8420000EC80FF1F0481FF1FD480FF1F10B5FFF729FC412813D1134C91
:4015C0000A2084F8AC00FFF7F7FC02461049114802F054F90421012000F020FF04F16400FFF7E8FE10BD312803D10B48FFF7E2FE10BD322803D10948FFF7DCFE10BD2A288F
:4016000002D10748FFF7D6FE10BD00BFD080FF1F7C420000E083FF1FF880FF1F1081FF1FD480FF1F10B5FFF7F1FB412815D1144C002084F8AC00FFF7AFFC02461149124893
:4016400002F01CF90421012000F0E8FE0F4B636704F17000FFF7AEFE10BD312803D10C48FFF7A8FE10BD322803D10A48FFF7A2FE10BD2A2802D10848FFF79CFE10BD00BFF1
:40168000D080FF1FB8420000E083FF1FC84200000481FF1F1C81FF1FD480FF1F38B5FFF7B5FB412816D1144C012584F8AC502846FFF772FC02461149114802F0DFF80421CB
:4016C000284600F0ABFE0F4B636704F17000FFF771FE38BD312803D10B48FFF76BFE38BD322803D10948FFF765FE38BD2A2802D10748FFF75FFE38BDD080FF1FB84200003B
:40170000E083FF1FC84200001081FF1F2881FF1FD480FF1F08B5FFF779FB41281AD10320154B83F8AC00FFF737FC012801D1134A00E0134A1349144802F0A0F804210120CB
:4017400000F06CFE0C48114BC0F880307C30FFF731FE08BD312803D10D48FFF72BFE08BD322803D10B48FFF725FE08BD2A2802D10948FFF71FFE08BDD080FF1F8C42000012
:401780009042000094420000E083FF1FA84200001C81FF1FE080FF1FD480FF1FB0B138B504460C4B1B791BB90021012000F036FE084D2B795A1C2A71074AD4542A20FFF7EB
:4017C0001FFD2B79042B03D1012038BD00207047002038BD3482FF1FFC83FF1F10B50020FFF7DAFB104B58710120FFF7D5FB0F4C84F8BA000320FFF7CFFB84F8BB0002202B
:40180000FFF7CAFB84F8BC000820FFF7D5FBA4F8BE000A20FFF7D0FBA4F8C0000620FFF7CBFBA4F8C20010BD3482FF1FD080FF1F10B5FFF7EBFAFFF75FFD00280CDB0B4C7F
:4018400094F8AC1080B2FFF7ABFBFFF7C7FF04F11000FFF7AFFD10BD10F1020F05D10022034B9A700348FFF7A5FD10BDD080FF1F3482FF1FE080FF1F10B5FFF7C7FAFFF7DE
:401880003BFD00280CDB0B4C94F8AC10C0B2FFF77FFBFFF7A3FF04F11000FFF78BFD10BD10F1020F05D10022034B9A700348FFF781FD10BDD080FF1F3482FF1FE080FF1FCA
:4018C00010B5FFF7A3FA31280BD1104C94F8AC100120FFF75DFB201DFFF76CFDFFF77EFF10BD30280BD1094C94F8AC100020FFF74FFB201DFFF75EFDFFF770FF10BD2A2829
:4019000002D10348FFF756FD10BD00BFD080FF1FE080FF1F08B5202204210248FFF75AFB08BD00BFD080FF1F08B5234B9B79CBB9FFF76CFAFFF732FF38B908BD1F4AD15C8B
:401940001F4AD1540133DBB200E00023032BF5D9194B01229A7100221A711A491A48FFF70DFD08BDFFF752FAFFF718FF90B908BD134AD15C114AD25C914208D01149134880
:40198000FFF7FCFC0C4B00229A711A7108BD0133DBB200E00023032BEAD920210748FFF72DFB054B00229A711A71FFF7B3FF0848FFF700FD08BD00BF3482FF1FFC83FF1F1A
:4019C0000884FF1FD4420000E4420000F4420000D480FF1F08B5302209210A48FFF7FAFA002307E0074AD15C074A1A4482F8B0100133DBB2082BF5D90022034B83F8B920ED
:401A000008BD00BFD483FF1FD080FF1F08B50022024BDA700248FFF7CDFC08BD3482FF1FD480FF1F08B52A2820D0232807D11B4B9B68F3B10022194B9A60012008BDD8B197
:401A400041281CD042281DD043281ED044281FD0124B9B68092B1EDC591C104A9160104AD054FFF7CDFB4FF0FF3008BD6FF0010008BD4FF0FF3008BD4FF0FF3008BD4FF07F
:401A8000FF3008BD4FF0FF3008BD4FF0FF3008BD4FF0FF3008BD4FF0FF3008BD3482FF1F0C84FF1F08B5FFF7B1F9FFF7BBFF012809D130210948FFF7A1FAFFF78BFF0848D1
:401AC000FFF778FC08BD10F1020F05D10022054B9A600348FFF76EFC08BD00BF0C84FF1FD480FF1F3482FF1F08B5024B9B68984708BD00BFF083FF1F3038C0B209288CBFE9
:401B000000200120704700BF38B50025174B1D7016E00133154A53702046FFF7EDFF012804D16B1C124A5455DDB209E00F4B1C70B5B10F4800234355FFF74CFB00B238BD15
:401B40000A4B5B78FF2B03D00A4AD45C002CE0D14DB1074800234355FFF73CFB00B238BD4FF0FF3038BD4FF0FF3038BD4082FF1F0084FF1FBC82FF1F00B587B001A8FFF7D4
:401B80001DF801A801F0D8FC07B05DF804FB00BF10B500220D4B5A70FFF7B6FF0446FFF7B3FF002C03DA0A4801F0C6FC10BD002803DA084801F0C0FC10BD81B2A0B2FEF70E
:401BC00027FC312001F0ACFC10BD00BF4082FF1FE84300000044000038B50022224B5A70FFF792FF002803DD1F4B1B78202B03D01E4801F0A1FC38BD05461028A8BF102505
:401C0000EDB2002309E018494A78541C4C701849895C184AD1540133DBB2AB42F3D30022144B5A5510281ADD202802DC1038C4B200E01024002309E00B494A78501C4870CC
:401C40000B49895C0C4AD1540133DBB2A342F3D3094900230B550748FFF790FB38BD07490448FFF78BFB38BD4082FF1FE8430000BC82FF1F1085FF1FFC84FF1F1844000089
:401C800070B584B00025314B5D701EE02046FFF733FF48B16B1C01362C4A567004AA154405F80C4CDDB20AE0202C08D10136274B5E70002204AB2B4403F80C2C0BE0092DD9
:401CC00003D9234801F038FC3DE0204B5E78214B9C5D002CDAD1022D03D81F4801F02CFC31E004AB1D4415F80C3C1BB11B4801F023FC28E001AA1A491A4801F0BFFDFFF784
:401D000003FFC0B218B9184801F016FC1BE0DC2828BFDC2000230FE00C4A52780D49895C19B9124801F008FC0DE00132074C62700F4AD1540133DBB28342EDD3094A0C49DA
:401D40000C48FFF7EFF904B070BD00BF4082FF1F2C440000BC82FF1F4044000058440000983F00007882FF1F70440000884400001C84FF1FB482FF1FFEE700BFF0B40022DA
:401D8000174611E050F82760F3B226F0FF0608E001EB420511F812406D78A5550132013BDBB2002BF4D10137252FEBD9F0BC704708B50A46002101F09EFC08BDF8B51A4BC2
:401DC0001B78DBB2194E3478E4B2194F3D78EDB203F00701174A11701B090132137044F00303337045F003033B700222124B1A70142290331A704023104A1370023213705F
:401E000001220F4B1A70102210331A7020230D4A1370033213700A2001F0A0F93D7034704422094B1A70F8BDCF010049F8460040F94600406E5800403D510040095900403D
:401E4000805A0040285B00407658004008B501F047FC08BD38B50B223B4B1A8018233B4A13704FF49C723A490A8002310B7002310A8002310B7002310A80364A137040F2DB
:401E80008F1204310A8002310B7002310A80324A137040F2AF41023211800232137004222E492F48FFF7D2FF02222E4B1A7008224FF040231A70032103F5007319702A4BD5
:401EC0001B78DBB229490B70294B1A8041F25122023B1A80002419250CE0264B1B7803F0010343EA440404F003044FF4F07001F0ABFB013D0DB1032CEFD115B90320FFF785
:401F00003BFF1D4B4FF480721A8007221A7000221A490A704820023108701A700222033B1A7004220A331A70154A137843F07F031370013A137843F001031370013A1378A0
:401F400043F08003137038BD8040004082400040844000408E400040964000406C0B0048004100400043004008010049A14600402242004025420040044000400640004078
:401F8000A243004038B572B63D4A137843F00403137000240CE03B4D630019194A0011462A44084691882858FFF702FF0134E4B2082CF0D900240CE03248A20011194B0095
:401FC0000344B3F84020D96B986BFFF73FFF0134E4B2022CF0D92C494FF09040FFF7CEFE2A4A137843F0020313701032137843F002031370264C237843F040032370A2F51D
:402000008632513A137843F010031370082221492148FFF71BFF0A2220492148FFF716FF052220492048FFF711FF0A221F492048FFF70CFF08221F491F48FFF707FF0822D9
:402040001E491F48FFF702FF08221E491E48FFF7FDFE1E4A137843F0080313701C4D61232B70FFF7F7FE81232B700122194B1A70FFF7A4FE0E2221461748FFF7E7FE38BDDE
:40208000E8460040B44400009800004803500140A04300402C0B004802510040340B0048C0510040400B0048CB510040480B0048F0510040540B0048125100405C0B004835
:4020C00022510040640B004832510040224300400048004004000840B043004008B501F0C3FA03680C2B00D1FEE7FEE708B5094B1A681044084BC31AB3F5106F02DC054BF3
:40210000186005E001F0B0FA0C2303604FF0FF32104608BD9481FF1F3885FF1F08B5104E104D16E029686B68AC68002204E051F8040B43F8040B0432A242F8D1E868002299
:4021400003E0002143F8041B04328242F9D11035013E002EE6D101F08DFAFEF7D1F9FEE7010000006445000008B5104A104B1A60104A136843F40073136000230AE0032BF5
:4021800003D80D4A52F8231000E00C490C4A42F8231001332F2BF2D90A4B1A780A4B1A70074A0A4B1A60FFF7EDFE08BD0004FA050CED00E014ED00E000000000DD200000D9
:4021C0000080FF1FBC760040C080FF1F08ED00E010B50B4C237803F09F032370237803F0F00323702378184340F010002070012000F0B4FF237803F0EF03237010BD00BF80
:402200002051004038B505460E4C237843F020032370237803F0BF032370002000F09EFF237803F0F003237023781D4345F010052570012000F092FF237803F0EF032370A4
:4022400038BD00BF2051004070B5354B1A7802F08002D2B21A7033490A7802F0F00242F00F020A7001310A7802F0F0020A7001310A7802F0F0020A701A7802F0DF021A708E
:402280001A7842F040021A704FF4CA76002000F065FF234D2B7843F010032B70012000F05DFF214B1C78E4B22B7803F0EF032B70002000F053FF04F00804E4B22B7843F0AF
:4022C00010032B70012000F049FF2B7803F0EF032B7014B90A2000F041FF013E0CB1002ED4D10F4A137803F0BF031370137803F08003DBB213700232137803F0F003137069
:402300000132137803F0F00343F00F0313700132137803F0F00343F00F03137070BD00BF20510040225100402151004010B50446FFF78AFF2009FFF765FF04F00F00FFF7B9
:4023400061FF10BD38B505460078012404E0FFF7EDFF285D0134E4B20028F8D138BD00BF08B5FFF7E3FF08BD10B50446FFF76CFF2009FFF72DFF04F00F00FFF729FF10BD9D
:4023800008B5282000F0D4FE0320FFF721FF052000F0CEFE0320FFF71BFF0F2000F0C8FE0320FFF715FF012000F0C2FE0220FFF70FFF052000F0BCFE0620FFF7D5FF0E2013
:4023C000FFF7D2FF2C20FFF7CFFF0820FFF7CCFF0120FFF7C9FF0C20FFF7C6FF0320FFF7C3FF052000F0A4FE08BD00BF08B50C20FFF7BAFF0122014B1A7008BD4282FF1F09
:4024000008B5054B5B7823B9FFF7BAFF0122024B5A70FFF7EBFF08BD4282FF1F08B5032819D8DFE800F002070D1381F08000FFF79BFF08BDA1F14000C0B2FFF795FF08BDDE
:40244000A1F16C00C0B2FFF78FFF08BDA1F12C00C0B2FFF789FF08BD044A137803F0EF03000100F0100018431070704710510040044A137803F0DF03400100F020001843E4
:402480001070704710510040044A137803F0BF03800100F0400018431070704710510040044A137803F07F03C001C0B218431070704700BF10510040024B187800F0010091
:4024C000704700BF31510040024B1878C0F3C000704700BFC1510040024B1878C0F34000704700BF01510040024B1878C0F34010704700BFC151004008B501F0ADF80A4A65
:40250000137843F020031370A2F58072137843F010031370FF32137843F01003137001F09FF800F02FFD08BD96650040014B1878704700BF66640040014B1878704700BF83
:4025400065650040034B1B7813F0040FFAD0024B187070476664004046650040014B1878704700BF56650040024A137843F001031370704775650040024A137803F0FE0395
:40258000137070477565004008B501E00A4B1B780A4B1B7813F0200FF8D101F05DF8084B1A7842F001021A701A7802F0FE021A7001F056F808BD00BF56650040656500409E
:4025C0009665004008B50F22064B1A70FFF7DCFFFFF7ACFFFFF7B0FF0023034A1370FF32137008BD866500408664004008B5054B1B7823B9FFF7E6FF0122024B1A70FFF7B8
:402600007BFF08BD4482FF1F044A137803F0FB03800000F00400184310707047105100407222074B1A70202201331A700622633B1A70472210331A7000224B331A7070472F
:402640008864004010B501F007F804460A4A137843F0200313700132137843F010031370083A137843F01003137000F099FC204600F0F6FF10BD00BF9864004008B5054BB5
:402680001B7823B9FFF7CCFF0122024B1A70FFF7D9FF08BD4582FF1F084B1B78DBB213F0200F06D0064A1078C0B213F01E0F02D17047002070470020704700BF696400407F
:4026C00047650040044B1B7813F0200F01D0012070470020704700BF69640040034B1B7813F0040FFAD1024B18707047616400404264004038B5074B1B782BB938BDFFF7B4
:40270000EDFF0134A4B201E005460024285D0028F5D138BD4582FF1F024B1878C0F3C000704700BF31510040084A137843F0040313701032137843F00403137002F665324A
:40274000137843F001031370704700BFA3430040014B1870704700BF1B4F0040014B1878704700BF1B4F0040014B1880704700BF1C4F0040014B1880704700BF1E4F00407C
:4027800008B5154A137803F0010313700232137803F0FC031370114B1A7802F0CF021A701A7842F030021A701A7802F0F0021A701A7842F00F021A70094A137843F0010395
:4027C00013703B20FFF7D0FF3B20FFF7D3FF0820FFF7BEFF08BD00BF184F0040234F0040194F004008B5054B1B7823B9FFF7C8FF0122024B1A70FFF797FF08BD4782FF1F48
:40280000024B1B68C3F88C00704700BF08ED00E04001C0B2014B1870704700BF13E400E04FF40022014B1A60704700BF00E100E04FF40022014B1A60704700BF80E100E01E
:4028400010B50446FFF7F4FF2046FFF7D9FF0720FFF7DEFFFFF7E4FF10BD00BF024B187800F00100704700BFF1510040084A137843F0010313701032137843F001031370E9
:4028800002F64D32137843F001031370704700BFA3430040014B1880704700BF044F0040014B1880704700BF064F0040014B1870704700BF034F004008B5194A137843F02A
:4028C000020313700232137803F08F0343F020031370144B1A7802F0CF021A701A7842F030021A701A7802F0F0021A701A7842F00F021A704FF4C870FFF7CCFF0020FFF7C4
:40290000CFFF0020FFF7D2FF074A137843F00103137002F65E32137843F00103137008BD004F00400B4F0040A343004008B5054B1B7823B9FFF7C0FF0122024B1A70FFF74A
:4029400095FF08BD4882FF1F084A137843F0020313701032137843F00203137002F65932137843F001031370704700BFA3430040084A137803F0FE031370A2F66932137880
:4029800003F0FD0313701032137803F0FD031370704700BF0C4F0040014B1880704700BF104F0040014B1880704700BF124F0040014B1870704700BF0F4F004008B5194A51
:4029C000137843F0020313700232137803F08F0343F020031370144B1A7802F0CF021A701A7842F030021A701A7802F0F0021A701A7842F00F021A70FF20FFF7CDFF7F20D7
:402A0000FFF7D0FF0020FFF7D3FF084A137843F00203137002F66A32137843F00103137008BD00BF0C4F0040174F0040A343004008B5054B1B7823B9FFF7C0FF0122024BEC
:402A40001A70FFF781FF08BD4982FF1F08B50A280FD00C2802D0082806D102E04FF4805209E04FF4807206E0002000F05FFB002201E04FF480620021094B198042F210737B
:402A800003FB02F303F6C413064A82FB0302DB17C3EBE223044A1360044B198008BD00BF2885FF1FAD8BDB682C85FF1F2685FF1F10B500F0D1FD04461E4A137843F00203D9
:402AC00013701032137843F0020313701A3A137843F0010313701032137843F00103137002F5AA521A32137843F0030313701822114B1A70013B1A7842F040021A701A78A7
:402B000002F0FC021A70C822053B1A700222A3F59753123B1A70094A137843F0080313700A2000F01BFB0122054B1A60204600F097FD10BDAB4300400E5900402F5B0040D8
:402B400080E200E010B504460A280DD00C2802D0082804D101E0C22207E0422205E0002000F0E4FAC22200E08222034B1A702046FFF76CFF10BD00BF0A59004008B51020E4
:402B800000F01CFA0721002000F006FB0749002000F0EEFA064A137843F0060313700C20FFF7D0FF0022034B1A8008BDFD2B0000095900402485FF1F08B5054B1B7823B927
:402BC000FFF7DCFF0122024B1A70FFF771FF08BD4A82FF1F024A137843F001031370704708590040034B188880B2034B1B88C01A00B27047A25B00402685FF1F704700BF3C
:402C000008B500F049FA00F051FA08BD08B5FFF7F7FF08BD30B583B00C468DF8070000F0D3FAB4F5006F52D22509A4EB0514A4B200F09EFB00284CD101230DF107022146BB
:402C4000402000F0EDFA044607282FD1234B1B7813F0020FFAD0214B1B7813F0020F06D01E4B1B789B0805D04FF0FF3403E04FF0FF3400E00024E4B9194A537812782946D9
:402C8000402000F031FB072816D1144B1B7813F0020FFAD0114B1B7813F0020F0FD00F4B1B789B0810D04FF0FF340DE0012809D10AE04FF0FF3407E04FF0FF3404E04FF026
:402CC000FF3401E04FF0FF3400F078FB02E0012400E00424204603B030BD00BF224700403085FF1F38B5044600F0B6FC054600F007FA04F1804000F500400478E4B200F09A
:402D00000DFA284600F0ACFC204638BD38B504460D4600F059FA15F0800F48D100F028FB002846D110222146402000F0B5FA07282FD1214B1B7813F0020FFAD01E4B1B78BF
:402D400013F0020F06D01C4B1B789B0805D04FF0FF3403E04FF0FF3400E00024E4B9174A537812782946402000F0BEFA072816D1114B1B7813F0020FFAD00F4B1B7813F08F
:402D8000020F0FD00C4B1B789B080DD04FF0FF340AE04FF0FF3407E04FF0FF3404E04FF0FF3401E04FF0FF3400F008FB02E0012400E00424204638BD224700403085FF1F10
:402DC0007222074B1A702022FD3B1A7006225F3B1A70472210331A7002224C331A7070478465004010B500F037FC04460A4A137843F020031370FD3A137843F0100313705B
:402E0000033A137843F01003137000F0E1F8204600F026FC10BD00BF9465004008B5054B1B7823B9FFF7CCFF0122024B1A70FFF7D9FF08BD4B82FF1F084B1B78DBB213F0D0
:402E4000200F06D0064A1078C0B213F01E0F02D17047002070470020704700BF6764004047640040044B1B7813F0200F01D0012070470020704700BF67640040034B1B78A7
:402E800013F0040FFAD1024B18707047646400404464004038B5074B1B782BB938BDFFF7EDFF0134A4B201E005460024285D0028F5D138BD4B82FF1F054A137843F00403E6
:402EC00013701032137843F004031370704700BFA8430040054B1A7802F0FD021A701A7800F0020010431870704700BF28580040014B1870704700BF825B0040064B1B78E7
:402F0000C3F3810303F19243063393F82831DBB2024A1370704700BF285800400A46004008B5064B1A7802F0F3021A701A7800F00C0010431870FFF7E1FF08BD285800407A
:402F400010B50024054B1C7001331C700420FFF7E7FF2046FFF7BEFF10BD00BF2858004008B5074B1B7823B9FFF7EAFF0122044B1A70FFF7A1FFFA20FFF7BAFF08BD00BF2B
:402F80004D82FF1F054A137843F0010313701032137843F001031370704700BFA2430040054A137843F0040313701032137843F004031370704700BFA2430040034B1A78D2
:402FC00000F0F80010431870704700BF02410040054A137843F0020313701032137843F002031370704700BFA243004010B500F0EBF800F0BDF910BB012000F09BF9072880
:4030000018D102210F4800F0F1F802280AD102E0012000F0A3F80C4B1B7813F0020FF7D0002409E0084B1B7813F0020FE9D04FF0FF3401E04FF0FF3400F0C0F900E00424C6
:40304000204610BD3085FF1F2247004010B500F0BBF800F08DF9D0B900F0CCF90446072812D102E0012000F079F80A4B1B7813F0020FF7D0074B1B7813F0020F04D0054BE5
:403080001B789B0800D1002400F098F900E00424204610BD2247004008B5FFF7D7FF034610B9FFF7A3FF0346184608BD08B500F0D3FA0F4A137843F00803137010321378F5
:4030C00043F008031370C8220A4B1A700A4A137843F0100313701032137843F010031370064B1B7813F0200FFAD000F0B9FA08BDA043004001470040AC430040004700405F
:40310000054A137843F001031370034B1B7813F0020FFAD0704700BF02470040024A137803F0FE03137070470247004001BE704710B5044605E0084B186800F085FAA4F56A
:403140000044B4F5004FF6D8034B586800FB04F000F07AFA10BD00BF9881FF1F08B5034B1B7A00FB03F000F06FFA08BD9881FF1F70B504460E46074B1D681F2802D9002062
:40318000FFF7D4FF04F01F04103455F8240045F8246070BD08ED00E038B504460D46072902D90020FFF7C2FF1F2C02D90020FFF7BDFF04F01F0000F1604000F564406D01A8
:4031C000EDB2057038BD00BF08B500F045FA064A137843F0080313701032137843F00803137000F03DFA08BDA043004070B506460D4600240CE00120FFF7B0FF064B1B7864
:4032000013F0010FF7D0054B1B7833550134E4B2AC42F3D3204670BD224700402047004030B43E2801D81F2B03D93F2827D90F2B27D8174C247814F0020F24D0154CB625BA
:403240002570D4252570012525700234247814F0020F1AD10F4C2070C1F300202070C9B22170591EC9B22170002104E0545C094804700131C9B29942F8D3072006E00120C5
:4032800004E0012002E0042000E0092030BC70472247004020470040114B1B7813F0020F19D010B40F4BB6241C70D5241C7002241C7002331B7813F0020F0ED1094B1870C9
:4032C000002304E0CC5C0748047001339BB29342F8D3072002E004207047092010BC7047224700402047004030B4104C247814F0020F15D00E4CB6252570D825257005257F
:4033000025700234247814F0020F0BD1084C2070080A2070C9B2217022702370072002E0042000E0092030BC704700BF22470040204700400C4B1B7813F0020F0FD00B4B63
:40334000B6221A70E1221A700E221A7002331B7813F0020F05D1054B187007207047042070470920704700BF224700402047004010B500F071F90F4B1B78A3B901220D4B8F
:403380001A700D4B1B6813F0010F0ED00A4A136823F00103136000BF00BF00BF0122054B5A60002402E0042400E0002400F058F9204610BD5082FF1F0400084008B500F065
:4033C0004BF90A4B00221A705B68012B0AD1084A136843F00103136000BF00BF00BF0022024B5A6000F03CF908BD00BF5082FF1F04000840074B1B7813F0020F08D0064BDA
:40340000B6221A70E0221A700D221A7007207047042070472247004020470040044A137803F0FB03800000F00400184310707047305100407222074B1A70202203331A70D9
:403440000622643B1A70472210331A7000224F331A7070478264004010B500F0FDF804460A4A137843F0200313700332137843F010031370053A137843F01003137000F002
:40348000D3F8204600F0ECF810BD00BF9264004008B5054B1B7823B9FFF7CCFF0122024B1A70FFF7D9FF08BD5882FF1F014B1878704700BF45640040024B187800F07F00FC
:4034C000704700BF65640040084B1B78DBB213F0200F06D0064A1078C0B213F01E0F02D17047002070470020704700BF656400404564004010B5FFF7DFFF0402FFF7D6FF05
:40350000204380B210BD00BF044B1B7813F0200F01D0012070470020704700BF65640040034B1B7813F0040FFAD1024B18707047606400404064004038B5074B1B782BB922
:4035400038BDFFF7EDFF0134A4B201E005460024285D0028F5D138BD5882FF1F054A137843F0010313701032137843F001031370704700BFA8430040054B1A7802F0FD02AA
:403580001A701A7800F0020010431870704700BF20580040014B1870704700BF805B0040064B1B78C3F3810303F19243063393F82031DBB2024A1370704700BF2058004009
:4035C0000846004008B5064B1A7802F0F3021A701A7800F00C0010431870FFF7E1FF08BD2058004010B50024054B1C7001331C700420FFF7E7FF2046FFF7BEFF10BD00BF46
:403600002058004008B5074B1B7823B9FFF7EAFF0122044B1A70FFF7A1FFCE20FFF7BAFF08BD00BF5A82FF1F054A137843F0080313701032137843F008031370704700BF29
:40364000A2430040000000000230800803D000BF01380046FCD17047EFF3108072B6704780F31088704700BF014B1868704700BF0882FF1F0E4B70B51E460E4C0025E41ABB
:40368000A410A54204D056F8253098470135F8E700F056FF084B094C1E46E41AA4100025A54204D056F8253098470135F8E770BD4C4500004C4500004C4500005445000011
:4036C000024B0146186800F06BB800BF0882FF1F024B0146186800F017B800BF0882FF1F10B5431E0A44914204D011F8014B03F8014FF8E710BD03460244934202D003F86A
:40370000011BFAE77047000038B50546002944D051F8043C0C1F002BB8BFE41800F0DAF81E4A1368114613B96360146030E0A3420DD92268A018834201BF18685B68121800
:40374000226063600C6023E0A24203D813465A68002AF9D118681918A1420BD12168014458188242196013D110685268014419605A600DE002D90C232B6009E021686018E2
:40378000824201BF106852680918216062605C602846BDE8384000F09EB838BD6082FF1F70B5CD1C25F0030508350C2D38BF0C25002D064601DBA94202D90C23336046E0A1
:4037C00000F088F8234B1C681A462146A1B10B685B1B0ED40B2B03D90B60CC18CD501EE08C420BBF63684B681360636018BF0C4615E00C464968E9E7174C23681BB9304692
:4038000000F02CF820602946304600F027F8431C18D0C41C24F00304A0420DD12560304600F059F804F10B00231D20F00700C31A0ED05A42E25070BD211A304600F00EF80E
:403840000130EBD10C233360304600F044F8002070BD00BF6082FF1F5C82FF1F38B5064C0023054608462360FEF740FC431C02D1236803B12B6038BD3485FF1F0EB400B501
:403880004FF402719CB0ADF814106FF00041049107914FF6FF711DAB02900690084853F8042BADF81610006802A9019300F06EF8029B00221A701CB05DF804EB03B0704776
:4038C0000882FF1F034613F8012B002AFBD1181A01387047704770472DE9F0478E6882469E420C46914698463ED88A8912F4906F3AD02568096902236F1A656905EB45053B
:4039000095FBF3F57B1C43449D4238BF1D4653050FD52946FFF744FF064698B13A462169FFF7DEFEA38923F4906343F08003A38113E02A4600F0E3FA064670B9216950468E
:40394000FFF7E2FE0C23CAF80030A3894FF0FF3043F04003A381BDE8F08726613E44266046466561ED1BA560464528BF464649463246206800F0A8FAA36800209B1BA3600F
:4039800023681E442660BDE8F08700002DE9F04F9DB003938B8980461C060D4616460DD50B695BB94021FFF7FBFE2860286118B90C23C8F80030CDE040236B61002309933F
:4039C00020238DF82930DFF89CB130238DF82A3037463C4614F8013B1BB9B7EB060910D003E0252BF9D02746F3E74B46324629464046FFF771FF013000F0A780099B4B4482
:403A000009933B78002B00F0A08000234FF0FF3204930793059206938DF853301A930126052221784E4800F041FA671C049B38B14B4A3C46801A06FA00F018430490EFE73A
:403A4000D90644BF20228DF853201A0744BF2B228DF8532022782A2A03D0079A00210A200BE0039A111D12680391002A10DA524243F00200079204900BE027463B78013406
:403A8000303B092B03D800FB02320121F5E701B107923B782E2B1ED17B782A2B0AD1039B02371A1D1B680392002BB8BF4FF0FF33059310E0002319460593781C0A2407460C
:403AC0003A780130303A092A03D804FB01210123F5E703B1059103223978224800F0E6F940B14023CBEB000003FA00F0049B013718430490397806221B487E1C8DF82810A1
:403B000000F0D4F988B1194B33B9039B073323F007030833039314E003AB00932A46144B04A94046AFF3008007E003AB00932A460F4B04A9404600F093F8B0F1FF3F8246D9
:403B400003D0099B5344099342E7AB895B0601D4099801E04FF0FF301DB0BDE8F08F00BF0C450000124500001645000000000000D93800002DE9F04791461F460A698B6865
:403B800006469342B8BF1346C9F8003091F843200C46DDF8208012B10133C9F800302368990642BFD9F800300233C9F80030256815F0060510D104F1190A07E001235246FD
:403BC00039463046C04701301AD00135E368D9F800209B1A9D42F1DB94F843302268003318BF012392060FD5E118302081F843005A1C94F845102244023382F8431003E002
:403C00004FF0FF30BDE8F08704F1430239463046C0470130F4D02268D9F80050E36802F00602042A08BF5D1B2269A3680CBF25EAE57500259342C4BF9B1AED184FF0000929
:403C40001A344D4509D00123224639463046C0470130D5D009F10109F3E70020BDE8F0872DE9F04317460A7E85B06E2A984606460C460C9B01F1430E00F0AE8011D8632A1E
:403C800022D009D8002A00F0BB80582A40F0CA8081F84520834955E0642A1ED0692A1CD0C0E0732A00F0B08009D86F2A2ED0702A40F0B8800A6842F020020A603EE0752A42
:403CC00024D0782A3AD0ADE01A6801F14205111D1960136884F84230A8E021681A6811F0800F02D0111D196008E011F0400F02F10401196002D0B2F9003000E01368002B54
:403D00003CDA2D225B4284F8432037E021681A6811F0800F02D0111D196007E011F0400F02F10401196001D0138800E01368227E5C496F2A14BF0A2208221BE078225A49C9
:403D400084F845202268186812F0800F00F104051D6003D1550601D5038800E00368D00744BF42F0200222601BB9226822F0200222601022002084F8430001E049490A2201
:403D80006568002DA56008DB206820F0040020602BB9002D7DD175460CE0002B79D07546B3FBF2F002FB1033CB5C05F8013D03460028F5D1082A0BD12368DA0708D5236984
:403DC00062689A42DEBF302305F8013C05F1FF35C5EB0E0323612EE008681A6810F0800F496903D0101D1860136808E010F0400F02F104001860136801D0198000E019606C
:403E000000232361754616E01A68111D1960156800216268284600F049F808B1401B6060636804E004F1420584F8422001232361002384F84330CDF800803B4603AA2146C9
:403E40003046FFF797FE013002D14FF0FF3026E023692A4639463046C0470130F5D023689B0710D5002504F1190907E001234A4639463046C0470130E7D00135E368039AF0
:403E80009B1A9D42F2DBE068039B9842B8BF184605E00B7804F1420584F842308AE705B0BDE8F0831D4500002E45000010B5C9B202449042034605D01C7801308C42F8D195
:403EC000184610BD002010BD884210B501EB020301D8421E0BE09842FBD28118D21AD34204D013F8014D01F8014DF8E710BD994204D011F8014B02F8014FF8E710BDF8B5FE
:403F0000074615460E4621B91146BDE8F840FFF747BC1AB9FFF7F8FB2846F8BD00F015F885420ED929463846FFF73AFC044650B131462A46FFF7D4FB31463846FFF7E4FB1A
:403F400001E03046F8BD2046F8BD51F8040C0028BEBF091851F8043CC018043870470000000000002564207300000000524941535A544153210000002573202D20656B6BB9
:403F80006F723A2025730000524941535A54415349204D4F440000002B3336257300000050687265732076616C75653A202564006D6F6462616E000066696779656C6F00C6
:403FC0004D6F7A6761732076616E206D6F7374004E696E6373206D6F7A6761732E000000526565642072656C65206F73737A652076616E2065727665000000004E696E63D3
:4040000073206F73737A6572766500002A202D206265616C6C697461736F6B0023202D2066696779656C6F206D6F6400456C6573697465732E2E2E00523A204D6F7A6761F9
:404040007365727A2E000000523A20526565642D72656C652E00000049726A612062652061206B6F646F742100000000455350205541525420696E74657266616365206832
:4040800061737A6E616C617462616E2E20566973737A612024206265697261736176616C2E0D0A004972642062652061206B6F646F74206120666F6C797461746173686FC9
:4040C0007A2E0D0A00000000526961737A74617369206D6F6462616E2076616E2E00000046696779656C6F206D6F6462616E2076616E2E00506173737A6976206D6F64627E
:40410000616E2076616E2E005043205541525420696E74657266616365206861737A6E616C617462616E2E20566973737A612024206265697261736176616C2E0D0A0000B5
:40414000523A2046656E7965727A656B656C6F00253032642D253032642D253032640000253032642D253032642D2530326420253032643A253032643A2530326400000015
:404180004D616C6C6F6320004D616C6C6F63206572726F7200000000566973737A6176616C746173206E6F726D616C20757A656D6D6F6462612E200D0A0000004154000053
:4041C000534D532073656E64696E6720312F342E2E00000041542B434D47463D31000000534D532073656E64696E6720322F342E2E00000041542B434D47533D222573225A
:4042000000000000534D532073656E64696E6720332F342E2E000000534D532073656E64696E6720342F342E2E000000506F776572696E67206F6E20302F340041542B4365
:40424000504F57443D310000506F776572696E6720646F776E000000506F7765726564206F66662E000000004869626173206B6F64210000257320232F2A0000256420735E
:4042800020233A4F6B202A3A58000000424500004B49000025732076616E206B617063736F6C766100000000313A20426520303A204B69202A3A58002564206820233A4FA6
:4042C0006B202A3A58000000556A2028302D3234293A000020202020202020202020202020000000556A206B6F6420756A72613A000000004E656D20656779657A6E656BDF
:40430000206D656721000000413A506172616D2E20423A204B6F6400433A2054656C2E202A3A204B69000000413A456C657369746573692069646F00313A3C2D20323A2D3C
:404340003E202A3A204B6900413A437369706F672E20686F73737A6100000000413A4175746F2E2062656B617063732E00000000413A4465616B742E2069646F000000008A
:40438000413A456A737A616B61206B657A642E00413A456A737A616B6120766567650000413A46656E7965727A2E206E657A7A6500000000556A3A0031203A2062652C2023
:4043C000303A206B690000004B6572656D2061206B6F646F743A0000556A206B6F646F743A2000002B3336004E6F742076616C696420636F6D6D616E64212023310000008C
:404400004E6F742076616C696420636F6D6D616E6421202332000000202020202020202020202020202020200000000050686F6E65206E756D20746F6F206C6F6E672E00AC
:4044400050686F6E65206E756D20746F6F2073686F72742E0000000050686F6E65206E756D206E6F74207661696C642E000000004E6F742076616C6964206D6573736167A8
:404480006520666F756E6400534D53206D657373616765206973206E6F74207468652070726F6D69736564206C656E677468206C6F6E6700004F00402400405100403000EC
:4044C00000000140800600070140000900140140000280160140800500400140000A004C01400002005001402000000060520040240A00480600800601402C0A00488000F3
:4045000000160140AC0A004880004300232D302B2000686C4C0065666745464700303132333435363738394142434445460030313233343536373839616263646566000070
:40454000F8B500BFF8BC08BC9E4670474D00000069210000F8B500BFF8BC08BC9E4670472900000078450000C880FF1F48010000280300000000000000000000FF000301A3
:40458000343332310843000018430000E113000028430000384300004D1400004843000038430000BD1400005C430000384300002D1500007043000038430000B515000025
:4045C00080430000384300002516000090430000384300009D160000A04300003843000015170000E083FF1FB443000031180000E083FF1FB443000079180000E083FF1F6C
:40460000B8430000C1180000C8430000C4400000CD130000D8430000C440000029190000E083FF1FE4430000A51A0000FF00000037303236363833303700180101001400EB
:40464000140014003885FF1F0000E02EC05D00001800000000366E0100000000000000000000000000000000000000000000000000000000000000000A4500000000000000
:404680000000000000000000000000000000000000000000000000000000000000000000000000000000000000000000000000000000000000000000A881FF1F00000000B3
:4046C00000000000000000000000000000000000000000000000000000000000000000000000000000000000000000000000000000000000000000000000000000000000BA
:404700000000000000000000000000000000000000000000000000000000000000000000000000000000000000000000000000000000000000000000000000000000000079
:404740000000000000000000000000000000000000000000000000000000000000000000000000000000000000000000000000000000000000000000000000000000000039
:4047800000000000000000000000000000000000000000000000000000000000000000000000000000000000000000000000000000000000000000000000000000000000F9
:020000040003F7
:0200000480007A
:40000000064F004005520040086400400265004061000140370101406302014047030140640401404F05014036060140500701405308014038090140020B0140040C0140E5
:40004000020D0140010F01405614014056150140351601405717014012190140051B014002400140034101401042014008430140064401400545014001460140044701402F
:400080000448014012490140054C0140044D0140065001400151014001400A4B0D60164B1950224B04041180184019401C80800F810F8272840F85388738887289388472D6
:4000C000860F01010453060C160818531A042020224524032644280A2A5430403230340F370138083A203E013F404021410645E046CB470E481E49FF4AFF4BFF4EF04F4487
:40010000500C5401580459045A045B045C035D335F0166C06A406B0282038313840C85318671870E88098AD08B088E20941096AC970C992C9B03A410A531A640A706A8DC66
:40014000AA22AB40AC14B140B30FB4E0B530B61FB920BA28BB08BF10C003C640C9FFCA07CBFFCC40CD20CEF0CF05D008D401D804D904DA04DB04DC33DD23DF01E040E1A848
:40018000E240E3200320042506020A140F2010B01208158016101710182019041A501B301C2D1E0420022501260827142F283504371038013D203E063F02420243204704B3
:4001C000480449014C804F0250205140520455105610581059095A405C405E085F218801C0F4C226C4EECA60CC60CEE1D04CD204D6FF0304047F053C07C1080F09FF0A7075
:400200000C330DBC0F42123314221508181119181C0820732110220C240425E72718280C29042C0C2E732FC3304031203358340F35983630371F38023A203B883F0140418E
:400240004106450B460C470E481549FF4AFF4BFF4EF04F44500C56025710580459045A045B045C335D325F0166C06A406B028010812083838591870E88208A038F80940928
:4002800096109B4C9C109E0C9F08A01CA191A202A346A414A80CA94CAA11AB93B180B21FB34AB530B620B70FB920BB88BE40BF01D804D904DC22DF010010038004200580B2
:4002C000062008400A200C920E201020128814801540171818101A021D011E021F10204021042298230424202544278428482C822F1832103380371839083A813C203DDA31
:400300003E20444046014C204E08540856805F806E146F0174807718848087108A01944097019A049D089E80A010A101A604A708AA80AB20C0EAC2F5C4FECAF5CC6CCEFBD6
:40034000D090D220D6100501060308100A0C0E20101C1202181419041C091E102220280C2A112C102D023302341F3504362037013A023E403F5440324106450C46BE480DE3
:4003800049FF4AFF4BFF4EF04F44500C5401580459045A045B045C015D115F0166C06A406B02820485E7860489E78A028D228F5191809401954497319D019E029F0EB00217
:4003C000B180B204B318B401B560B707BE15BF04C045C106C203C402C5C0C6E0C80AC9FFCAFFCBFFCC62CDA0CEF0CF41D00CD418D804D904DA04DB04DC30DD33DF01E640B5
:40040000E702E910EA30EB10ED10EE10EF120080032805010610070409200A810C080F0210B011401208184019421B201E081F05200222142692272828012A4033203580C1
:40044000368037093A043E143F40420843084480472448204A084C024D104E024F0251205240561058115A485E02670A911892149344988899019A849B059C409D889E012A
:40048000A008A201A402A614A780AC18AE80AF48B408B701C077C2ABC40BCA08CCD4CE72D0E6D234D68FD830EA08EE0400030204064009230A400B1C0E1519351A081B0A37
:4004C0001C331E0C2280243325022604270D282A29292A042B16311032C03430350F360F372038203A803B203E143F414002460449FF4A074BFF4C404D204EF04F055008EA
:400500005409580459045A045B045C025D025F01604061A862406320028203080681072809010A010C400D800F041020120813021408150A19101A411B481DA820082248DF
:400540002302262027812B482C143010326834013711380839403D2040404118452048895202560157805A025D045E025F906150640180048101820C84488B409040910801
:400580009304954096C1980899429A809C409E09A020A4C0A608A788AA10AC01AD08C0FBC2C9C47ECA65CC2ACE2AD027D20CD6F1D81CE201E601EA800041011004F3050884
:4005C000060C08FF09180D040EE30F201383143C151C16C317C1181F19DF1AE01C821F0420C3240425C72718280C291C2BC22C08302C3120320F33983410351F36C0374050
:4006000039803A083B283E104005454049FF4A074BFF4C404D204EF04F05500856025712580459045A045B045C225D215F01604061A86240632083018E0293019E02A40130
:40064000A801AC01B002B401B501BB08BE01BF10D418D804D904DB04DC22DD20DF0102010410051C068007020B020D400E381022111014401602172819201B011C201D0440
:400680001E051F0120102304261427412D082E10330135103604374239023EAA4D024E0157085A015E0463066C226D10762A77288020830889208B02C0F1C2E1C4F7CA6035
:4006C000CCF1CEF1D210D641D80CE220EA80AB80AF4038803E4058045F011FC0E020E080007F01E7031805400663085C09080A230C010F041160141F151C166017E118029B
:400700001B631C731D101E0C200821FF2404251C27E2280C29182C032D2430103160322C331F344C360F378039803A883B083E0156025713580459045B045C115D105F0198
:400740008040841185058622873A8A808B108C0D8D0E8E809002920D94429608988D99049B399C8DA08DA48DA523A704A862AA14B00FB270B480B530B70FB980BA0ABE10C2
:40078000D201D440D804D904DB04DF010182022C04080518064807010A110B080D080E480F0110801202131416801714180219011A151B081D081E601F1022892550298252
:4007C0002A242D083080323233083610382239883B083C023DA83E01590166106722682069106A806D407090722073148190820183088440860488418D108F019008918803
:40080000922093019550968299029AD89B159C419D089E019F08A104A206A461A508A680A8A0AF10C0FFC2F7C47FCA4FCC2FCE7FD601D870E080EE058002811082458328B1
:4008400085228711893F8C148E2A90099232981F993F9D04A109A352A81FB018B138B303B460B504B607B740BE10C065C104C203C402C5CEC803C9FFCAFFCBFFCC62CDA0A7
:40088000CEF0CF41D00CD804D904DA04DC12DD02DF01E640E702E910EA30EB10ED10EE10EF120040038004080510068208010B080C040D080E890F011204171518C41B8024
:4008C0001D901E021F10215522122320240825142640271029402A812C042D082E813020324036403711391A3D803E1440A444404588471049014A284B404C044D045540FA
:40090000565A64106E1D6F057540810186288B808C408D40934895269602981099029A049C049E409F38A441A510A681AE40AF10B004B304B540C0F9C2FAC472CAF1CCBCEB
:40094000CE77D0F7D22CD840E004E248E402E81082018410850188408D409010930295829C409E81A010B110B201B502E080E410E830EAC08A809E80A810AB01E6203380BA
:40098000CC100120A780C04052805B085F0863089B08A304A780AB04AD20AF08D420D6C0D840EA10EC40EE2018101F045280AA80B380C630D420EE20734074018801DC0192
:4009C000DE04E00160808B409740D802E0049C809C80A720B320EA018E809308A680B4100D2014206708734077808120838088209348AF40C280C420D880DC80DE20E0203C
:400A0000E280EE401F20A720B480C601E80810208820C408E604000F080C0A0F0C0610071A070003110400024000000000000800000000133300C000000008080400510054
:400A40000031000E00000000006C8003A000434C3000410033314046000000000100F04A0830060F80200888000011105204060003C000E022FFFFFF62A0F0410C00000088
:400A8000180000000404040411110001000000000000400200103010001010120000000000000000000000000000000084000000079838020102009860020000049800022F
:400AC00056000900842100D8843800C0049A8000801304640AFC1003009A00000000000F7F1380E0200000880000400023061000040EFCBD3DFFFFFF2200F048040000004D
:400B00000000022804040404000000010000C00040021012C002001240024002000000000000000000000000000000000602000000000000940068BF9700970200140000F7
:400B4000002800140000000001000001000000000000000000FFFF000000000000FFFF00800000008945440040000200160018010000000000000000000000000000000038
:400B80000000000000000000000000000000000000000000000000000000000000000000000000000000000000000000000000000000000000000000000000000000000035
:400BC00000000000000000000000000000000000000000000000000000000000000000000000000000000000000000000000000000000000000000000000000000000000F5
:400C000000000000000000000000000000000000000000000000000000000000000000000000000000000000000000000000000000000000000000000000000000000000B4
:400C40000000000000000000000000000000000000000000000000000000000000000000000000000000000000000000000000000000000000000000000000000000000074
:0200000490006A
:0400000000004005B7
:0200000490105A
:04000000BC90ACAF55
:0200000490303A
:02000000276A6D
:0200000490402A
:4000000000000000000000000000000000000000000000000000000000000000000000000000000000000000000000000000000000000000000000000000000000000000C0
:400040000000000000000000000000000000000000000000000000000000000000000000000000000000000000000000000000000000000000000000000000000000000080
:400080000000000000000000000000000000000000000000000000000000000000000000000000000000000000000000000000000000000000000000000000000000000040
:4000C0000000000000000000000000000000000000000000000000000000000000000000000000000000000000000000000000000000000000000000000000000000000000
:0200000490501A
:0C00000000012E16106900012E3437D3C9
:00000001FF