:400000000080002011000000E1190000E119000008B5044B1A6803F53F5302331A6001F0FFFC00BFFA46004010B5054C237833B9044B13B10448AFF300800123237010BD87
:400040001082FF1F00000000D0370000084B10B51BB108490848AFF300800848036803B910BD074B002BFBD0BDE81040184700BF000000001482FF1FD0370000C880FF1F62
:400080000000000010B544F62064B4FBF0F4064B1B78E0B202F0D8F9C4F3470002F0DAF902F01EFA10BD00BF0F4F004008B5002002F0D0F902F0B4F908BD00BF08B5074833
:4000C00000F016FD064800F091FC064800F08EFC054800F08BFC02F099F808BD8882FF1F7082FF1FB482FF1F6882FF1F10B582B0044602F0CFFA80B2ADF8060000F0E8FB1E
:40010000C0B28DF80500BDF806309BB2B3F57A7F0FD29DF80530DBB2074A1278934208D99DF80530DBB2054A1278934201D20123237002B010BD00BF4182FF1F8E81FF1F46
:4001400000B583B002F0A6FA80B2ADF80600144B1B78BDF806309BB2B3F5966F19D9BDF806309BB2A3F596630E4A82FB03121A44DB17C3EBA21301339BB203EB830398006C
:40018000B0F5AF7FA8BF4FF4AF7080B202F0E0F802E0002002F0DCF803B05DF804FB00BF034F0040EBA00EEA00B585B0684600F0AFFB012001F05AFD0021084601F0B0FD5C
:4001C000684601F041FD05B05DF804FB10B582B00021012001F0A4FD0A4801F035FD0A4C22880A49684602F081FF0021012001F097FD684601F028FD2388013B238002B09F
:4002000010BD00BFFC390000CC80FF1FD437000008B50521014800F061FC08BD8882FF1F00B583B06421084800F058FC0522074B9A70684600F06CFB0549684600F066FE49
:4002400003B05DF804FB00BF8882FF1FCC80FF1FDC37000030B583B0184B0222DA7006229A70684600F054FB6B46154A1549164802F03CFF154C0721204600F027FC694661
:40028000134800F043FE134D134A1449284602F02DFF00232B736421204600F017FC104B1B884FF47A7101FB03F10E4800F05EFB01460D4800F078FB03B030BDCC80FF1F99
:4002C000BC82FF1FE83700009082FF1F8882FF1FF83700007882FF1F8481FF1F083800009681FF1F210200006882FF1F10B5144C6421204600F0F2FB0521204600F0EEFBCF
:400300000621204600F0EAFB0321204600F0E6FB0221204600F0E2FB0721204600F0D6FB0421204600F0D2FB064B00221A705A709A70054B03229A700122DA7010BD00BFCA
:400340008882FF1F2C82FF1FCC80FF1F10B5044601F0DCFF10B90123237010BD0023237010BD00BF08B5124801F0C2FF114802F059FB01F00FFF01F01BFF02F075F902F0F1
:4003800081F901F087FF01F0BDFC0021084601F0C7FC01F0B1FD01F073FD02F01FF801F0F5FD02F095FA02F0F5FA02F087F908BDBD000000850C000038B50D460246002103
:4003C000084800F0B5FA084C0146204600F0ECFA2946064800F0CAFA0146204600F0E4FA38BD00BF850000007082FF1FAD00000008B54FF496714FF4C870FFF7DDFF4FF4BE
:4004000096714FF4FA70FFF7D7FF4FF496714FF41670FFF7D1FF4FF496714FF42F70FFF7CBFF08BD10B5194B0022DA709A701849184800F06BFD4FF4C8710846FFF7BCFF7F
:400440004FF4C8714FF44870FFF7B6FF124C0321204600F03BFB0621204600F037FB0F4B1B78012B03D10221204600F02FFB0721094800F033FB0A4B0020187058709870A9
:40048000084B1B7801F064FF10BD00BFCC80FF1F10380000183800008882FF1F8F81FF1F2C82FF1F034F004070B582B0FFF75AFF00F0F6FF01F054F800F058FFA74B00259A
:4004C0001D605D60A64B1D605D60A64C25606560A54B1D605D6062B601221E21A34800F0C1FA0146204600F0DDFAA14E0223C8223146A04800F094FA0146204600F0D2FA69
:4005000003236422711C9C4800F08AFA0146204600F0C8FA06236422B11C984800F080FA0146204600F0BEFA04224CF25031944800F098FA0146204600F0B4FA07224FF4B6
:400540009671904800F08EFA0146204600F0AAFA642240F6B8318C4800F084FA0146204600F0A0FA05224FF47A71884800F07AFA0146204600F096FAFFF7B8FE8DF8075087
:40058000834BDB78012B05D0002B79D0022B00F0D4802CE17E4B9B78042B65D0072B1CD0032B40F0248100F025FC002800F01F8104216C4800F092FA7649774800F0A6FC98
:4005C0000722734B9A7047F23051744800F0CEF90146654800F0E8F909E100F0A1FA8DF807009DF8073013F0FF0F02D05E4800F0E5F99DF80730DBB2232B26D1684B1B7810
:400600001BBB634C0223A370664B1B8823806649664800F07BFC0521524800F057FA23884FF47A7101FB03F1614800F09FF94E4C0146204600F0B8F900215E4800F096F919
:400640000146204600F0B0F9D1E09DF80730DBB22A2B40F0CC8004214D4B9970414800F03DFA00F099FFC2E0534B1B78012B04D1FFF73CFEFFF798FDB9E000F0FBFFB6E0B3
:40068000434B9B7813B1012B4BD0B0E0384B1B7833B9374A52781AB9354A9278002A37D03BB1464D464C0FCC28606960AA60EB6016E02F4B5B7843B1404C424B07CB2060F0
:4006C0006160A2601B88A3810AE0294B9B783BB13A4C3D4B07CB20606160A2601B88A3810721204800F0F2F93849344800F00EFC0122274B9A70364B1B884FF47A7101FBDA
:4007000003F1344800F032F90146174800F04CF900F070FB01286AD1FFF7E8FDFFF744FD65E000F067FB012861D10F4800F046F9FFF7DCFDFFF738FD59E0154B9B78052B34
:4007400002D0062B48D052E000F054FB01284ED1FFF7CCFDFFF728FD49E000BF7082FF1FB482FF1F8882FF1F6882FF1F950B00002C82FF1FED000000CD0C00004D030000CD
:40078000A901000041010000F1030000CD010000CC80FF1F2038000030380000ED0200003C82FF1F9281FF1F7C3800004038000011020000250400003F82FF1FBC82FF1FC2
:4007C0001C3900004C3800005C3800006C3800009481FF1F5502000000F00CFB012806D1104800F0EBF8FFF781FDFFF7DDFC01F0F1FB00283FF4C4AE0B4B1B78002B7FF4C8
:40080000BFAE01F0D1FB40287FF4BAAE0122064B1A70064800F0DAFA054800F0D7FAFFF765FDADE66882FF1F3C82FF1F80380000B838000010B582B00446012001F06AFBFE
:4008400001F0F8FA8DF807009DF8073013F0040FF6D001F00DFB44F0010001F0F7FA01F0E9FA8DF807009DF8073013F0010FF6D001F006FB01F00CFB02B010BD00B583B0FB
:40088000012001F047FB01F0FBFA422001F0DEFA01F0D0FA8DF807009DF8073013F0010FF6D001F0CDFA8DF807009DF8073013F0200FF6D001F0D6FA8DF80600002001F082
:4008C00029FB01F0E5FA9DF8060003B05DF804FB08B58420FFF7AEFFFFF7D0FF00F00F01C0F3011303EB83035800084408BD00BF08B58220FFF79EFFFFF7C0FF00F00F018F
:40090000C0F3021303EB83035800084408BD00BF38B50446FFF7DCFF0546FFF7E9FF03462A460249204602F0E1FB38BD2C39000070B505460E461446142002F0F9FA58B948
:40094000012001F093F90021084601F0E9F9064801F07AF9002070BD86600560002242608481026170BD00BF4C39000038B504460D46142002F0DCFA58B9012001F076F998
:400980000021084601F0CCF9064801F05DF9002038BD856044600022026064218181026138BD00BF5439000031B1426812B941600160704711614160704700BF03460068E6
:4009C0005A68904203D100221A605A60704702691A60704703682BB19A682AB1013A9A6000207047002070470120704710B50446FFF7F0FF012812D12046FFF7DFFF044683
:400A000068B103682BB180899847204602F098FA10BD43681BB19847204602F091FA10BDF8B506460D4617461C46182002F080FA58B9012001F01AF90021084601F070F903
:400A4000074801F001F90020F8BD0022428107810660426005614473012101734261F8BD5439000070B505460E461446182002F05FFA58B9012001F0F9F80021084601F045
:400A80004FF9074801F0E0F8002070BD00224281068145600260447342610122027370BD5439000039B1026812B90160416070474268516141607047006803E0437B8B4208
:400AC00002D040690028F9D1704700BF08B5FFF7F3FF08B10122027308BD00BF08B5FFF7EBFF18B1002202730289428108BD00BF10B5046811E0237B012B0DD163894BB910
:400B000023896381636803B19847236823B12069984701E0013B63816469002CEBD110BD0F4B1B78012B11D110B501F03DFA0446242805D10B4801F065FA0022084B1A7087
:400B40000D2C08D00A2C08D1002010BD064B187800221A707047002010BD204610BD00BF3C82FF1F643900002F82FF1F024630B1074B5B781BB9064B187001215970044BC8
:400B80005B78012B02D10AB9014B5A70704700BF2F82FF1F10B5012001F0E0F801F00EF908B9002400E0312401F010F900B1322401F014F900B1332401F018F900B1412465
:400BC00034B1002001F0CAF82046FFF7CFFF10BD002001F0C3F8012001F0CCF801F0EEF800B1342401F0F2F800B1352401F0F6F800B1362401F0FAF800B1422434B10020F6
:400C000001F0B8F82046FFF7B1FF10BD002001F0B1F8012001F0BAF801F0D0F800B1372401F0D4F800B1382401F0D8F800B1392401F0DCF800B1432434B1002001F0A6F8ED
:400C40002046FFF793FF10BD002001F09FF8012001F0A8F801F0B2F800B12A2401F0B6F800B1302401F0BAF800B1232401F0BEF800B14424002001F095F82046FFF776FF57
:400C800010BD00BF00B583B001F09AFA80B2ADF80600BDF806309BB20A4A1288934203D2BDF80620074B1A80BDF806309BB2064A1288934203D9BDF80620034B1A8003B07E
:400CC0005DF804FBD080FF1F3482FF1F82B00D4B1B880D4A12889B1A1BB2ADF80630BDF806301BB240F6B832934201DD012303700022044B1A8047F23052034B1A8002B061
:400D0000704700BF3482FF1FD080FF1F08B501F0D9FC08BD08B501F03DFD08BD38B50C46C5B2000A01F0CEFC611C89B2284601F0C9FC38BD38B5054601F02CFD0446681C9A
:400D400080B201F027FD40EA042080B238BD00BFF8B507461646102928BF10210D46002406E0301980B201F015FD38550134E4B2AC42F6D3F8BD00BF08B5C1F3071101F079
:400D80001DFD08BD10B5044602F0D4F9421E0020012309E0A15C303901FB030080B203EB830359008BB2013A002AF3DA10BD00BF08B5054B1B78012B02D101F017F908BD35
:400DC00000F050FF08BD00BF3C82FF1F10B50446064B1B78012B06D1054801F013F9204601F010F910BD00F02FFF10BD3C82FF1FB438000010B5FFF793FE002838D004466E
:400E00001D4B5B7833B9012000F030FF0021012000F086FF2A20FFF7CBFF17494A78531CDBB24B7015498C54042B0AD0002010BD124AD15C124AD25C914207D10133DBB2FE
:400E400000E00023032BF3D9012400E000240022094B5A7074B91146012000F061FF0948FFF7B4FF0021012000F05AFF204610BD002010BD204610BD3C82FF1F1083FF1FB2
:400E8000D480FF1F8839000010B52A2822D020B3412825D0422826D0432827D0442828D0184B9B78042B27D8232809D13BB316480024C454FFF766FF124B9C7000B210BD0B
:400EC000591C104A9170104AD054FFF771FF4FF0FF3010BD6FF0010010BD4FF0FF3010BD4FF0FF3010BD4FF0FF3010BD4FF0FF3010BD4FF0FF3010BD4FF0FF3010BD4FF035
:400F0000FF3010BD3C82FF1FF882FF1F38B505460C46012000F0AAFE0021084600F000FF2846FFF753FF0021012000F0F9FE2046FFF74CFF38BD00BF08B541680068FFF7A2
:400F4000E5FF08BD10B50446FFF7F6FF024B94E8070083E8070010BDE882FF1F08B5FFF749FF10B10148FFF7EDFF08BD6881FF1F10B5FFF7D5FD412803D11248FFF7E2FF89
:400F800010BD422803D11048FFF7DCFF10BD432812D10E4C302384F8AC3004F1B0020C490C4802F0A3F80021042000F0B9FE04F1A000FFF7C7FF10BD2A2802D10122064B5D
:400FC000DA7010BDE480FF1F5C81FF1FD480FF1F94390000D882FF1F3C82FF1F10B5FFF79FFD412813D1134C082084F8AC00FFF7A1FE02461049114802F078F80421012040
:4010000000F08EFE04F16400FFF79CFF10BD312803D10B48FFF796FF10BD322803D10948FFF790FF10BD2A2802D10748FFF78AFF10BD00BFD480FF1F9C390000D882FF1F96
:401040002C81FF1FF080FF1FD880FF1F10B5FFF767FD412813D1134C062084F8AC00FFF769FE02461049114802F040F80421012000F056FE04F16400FFF764FF10BD3128A5
:4010800003D10B48FFF75EFF10BD322803D10948FFF758FF10BD2A2802D10748FFF752FF10BD00BFD480FF1F9C390000D882FF1FE480FF1FFC80FF1FD880FF1F08B5FFF705
:4010C0002FFD41281AD10220154B83F8AC00FFF721FE012801D1134A00E0134A1349144802F004F80421012000F01AFE0C48114BC0F880307C30FFF725FF08BD312803D159
:401100000D48FFF71FFF08BD322803D10B48FFF719FF08BD2A2802D10948FFF713FF08BDD480FF1FAC390000B0390000B4390000D882FF1FC8390000F080FF1F0881FF1F0F
:40114000D880FF1F10B5FFF7EBFC412813D1134C0A2084F8AC00FFF7EDFD02461049114801F0C4FF0421012000F0DAFD04F16400FFF7E8FE10BD312803D10B48FFF7E2FE66
:4011800010BD322803D10948FFF7DCFE10BD2A2802D10748FFF7D6FE10BD00BFD480FF1F9C390000D882FF1FFC80FF1F1481FF1FD880FF1F10B5FFF7B3FC412815D1144CE1
:4011C000002084F8AC00FFF7A5FD02461149124801F08CFF0421012000F0A2FD0F4B636704F17000FFF7AEFE10BD312803D10C48FFF7A8FE10BD322803D10A48FFF7A2FECA
:4012000010BD2A2802D10848FFF79CFE10BD00BFD480FF1FD8390000D882FF1FE83900000881FF1F2081FF1FD880FF1F38B5FFF777FC412816D1144C012584F8AC50284646
:40124000FFF768FD02461149114801F04FFF0421284600F065FD0F4B636704F17000FFF771FE38BD312803D10B48FFF76BFE38BD322803D10948FFF765FE38BD2A2802D14B
:401280000748FFF75FFE38BDD480FF1FD8390000D882FF1FE83900001481FF1F2C81FF1FD880FF1F08B5FFF73BFC41281AD10320154B83F8AC00FFF72DFD012801D1134A27
:4012C00000E0134A1349144801F010FF0421012000F026FD0C48114BC0F880307C30FFF731FE08BD312803D10D48FFF72BFE08BD322803D10B48FFF725FE08BD2A2802D108
:401300000948FFF71FFE08BDD480FF1FAC390000B0390000B4390000D882FF1FC83900002081FF1FE480FF1FD880FF1FB0B138B504460C4B1B791BB90021012000F0F0FCB2
:40134000084D2B795A1C2A71074AD4542A20FFF72FFD2B79042B03D1012038BD00207047002038BD3C82FF1FF482FF1F10B50020FFF7D0FC104B58710120FFF7CBFC0F4C61
:4013800084F8BA000320FFF7C5FC84F8BB000220FFF7C0FC84F8BC000820FFF7CBFCA4F8BE000A20FFF7C6FCA4F8C0000620FFF7C1FCA4F8C20010BD3C82FF1FD480FF1F0B
:4013C00010B5FFF7ADFBFFF75FFD00280CDB0B4C94F8AC1080B2FFF7A1FCFFF7C7FF04F11000FFF7AFFD10BD10F1020F05D10022034B9A700348FFF7A5FD10BDD480FF1F11
:401400003C82FF1FE480FF1F10B5FFF789FBFFF73BFD00280CDB0B4C94F8AC10C0B2FFF775FCFFF7A3FF04F11000FFF78BFD10BD10F1020F05D10022034B9A700348FFF7CF
:4014400081FD10BDD480FF1F3C82FF1FE480FF1F10B5FFF765FB31280BD10F4C94F8AC100120FFF753FCFFF781FF201DFFF76AFD10BD302809D1084C94F8AC100020FFF737
:4014800045FC201DFFF75EFD10BD2A2802D10348FFF758FD10BD00BFD480FF1FE480FF1F08B5202204210248FFF752FC08BD00BFD480FF1F08B5234B9B79CBB9FFF730FBC9
:4014C000FFF734FF38B908BD1F4AD15C1F4AD1540133DBB200E00023032BF5D9194B01229A7100221A711A491A48FFF70FFD08BDFFF716FBFFF71AFF90B908BD134AD15CB0
:40150000114AD25C914208D011491348FFF7FEFC0C4B00229A711A7108BD0133DBB200E00023032BEAD920210748FFF725FC054B00229A711A71FFF7B3FF0848FFF702FDAD
:4015400008BD00BF3C82FF1FF482FF1F0083FF1FF4390000043A0000143A0000D880FF1F08B5302209210A48FFF7F2FB002307E0074AD15C074A1A4482F8B0100133DBB207
:40158000082BF5D90022034B83F8B92008BD00BFCC82FF1FD480FF1F08B50022024BDA700248FFF7CFFC08BD3C82FF1FD880FF1F08B52A2820D0232807D11B4B9B68F3B13D
:4015C0000022194B9A60012008BDD8B141281CD042281DD043281ED044281FD0124B9B68092B1EDC591C104A9160104AD054FFF7DFFB4FF0FF3008BD6FF0010008BD4FF069
:40160000FF3008BD4FF0FF3008BD4FF0FF3008BD4FF0FF3008BD4FF0FF3008BD4FF0FF3008BD4FF0FF3008BD3C82FF1F0483FF1F08B5FFF775FAFFF7BBFF012809D13021DD
:401640000948FFF799FBFFF78BFF0848FFF77AFC08BD10F1020F05D10022054B9A600348FFF770FC08BD00BF0483FF1FD880FF1F3C82FF1F08B5024B9B68984708BD00BFA2
:40168000E882FF1FFEE700BFF0B40022174611E050F82760F3B226F0FF0608E001EB420511F812406D78A5550132013BDBB2002BF4D10137242FEBD9F0BC704708B50A465B
:4016C000002101F050FC08BDF8B51E4B1B78DBB21D4E3478E4B21D4F3D78EDB203F007011B4A11701B090132137044F00303337045F003033B700A20164B187004229033AA
:401700001A704023144A13700232137006321370023213701022114B1A702023104A137003321370802105321170033213702D32137001F05FFA3D7034704422094B1A70F0
:40174000F8BD00BFCF010049F8460040F94600406E5800403D51004001590040905A0040205B00407658004008B501F0F1FB08BD38B50B22394B1A801823394A13704FF463
:401780009C7238490A8002310B7002310A80364A137040F28F1204310A8002310B7002310A80324A137040F2AF41023211800232137008222E492F48FFF7D6FF02222E4B88
:4017C0001A7008224FF040231A70032103F5007319702A4B1B78DBB229490B70294B1A8041F25122023B1A80002419250CE0264B1B7803F0010343EA440404F003044FF4E8
:40180000F07001F059FB013D0DB1032CEFD115B90320FFF737FF1D4B4FF480721A8007221A7000221A490A704820023108701A700222033B1A7004220A331A70154A1378B2
:4018400043F03F031370013A137843F003031370013A137843F08003137038BD8040004082400040844000408A400040924000402C0A004800410040004300400801004904
:40188000A146004022420040254200400440004006400040A243004038B572B63B4A137843F00403137000240CE0394D630019194A0011462A44084691882858FFF7FEFE92
:4018C0000134E4B2082CF0D900240CE03048A20011194B000344B3F84020D96B986BFFF743FF0134E4B2012CF0D92A494FF09040FFF7CAFE284A137843F0020313701032B5
:40190000137843F002031370244C237843F040032370A2F58632513A137843F0100313700A221F491F48FFF71FFF05221E491F48FFF71AFF0A221E491E48FFF715FF0822DF
:401940001D491E48FFF710FF08221D491D48FFF70BFF08221C491D48FFF706FF1C4A137843F0080313701B4D61232B70FFF700FF81232B700122184B1A70FFF7A5FE0E226C
:4019800021461648FFF7F0FE38BD00BFE8460040083B00009400004803500140A0430040F4090048C0510040000A0048CB510040080A0048F0510040140A0048125100405E
:4019C0001C0A004822510040240A004832510040224300400048004004000840B043004008B501F079FA03680C2B00D1FEE7FEE708B5094B1A681044084BC31AB3F5106F45
:401A000002DC054B186005E001F066FA0C2303604FF0FF32104608BD9881FF1F3883FF1F08B5104E104D16E029686B68AC68002204E051F8040B43F8040B0432A242F8D12C
:401A4000E868002203E0002143F8041B04328242F9D11035013E002EE6D101F043FAFEF723FDFEE701000000B03B000008B5104A104B1A60104A136843F400731360002354
:401A80000AE0032B03D80D4A52F8231000E00C490C4A42F8231001332F2BF2D90A4B1A780A4B1A70074A0A4B1A60FFF7F5FE08BD0004FA050CED00E014ED00E000000000BD
:401AC000E11900000080FF1FBC760040C080FF1F08ED00E010B50B4C237803F09F032370237803F0F00323702378184340F010002070012001F07EF8237803F0EF03237055
:401B000010BD00BF2051004038B505460E4C237843F020032370237803F0BF032370002001F068F8237803F0F003237023781D4345F010052570012001F05CF8237803F01C
:401B4000EF03237038BD00BF2051004070B5354B1A7802F08002D2B21A7033490A7802F0F00242F00F020A7001310A7802F0F0020A7001310A7802F0F0020A701A7802F07B
:401B8000DF021A701A7842F040021A704FF4CA76002001F02FF8234D2B7843F010032B70012001F027F8214B1C78E4B22B7803F0EF032B70002001F01DF804F00804E4B2D5
:401BC0002B7843F010032B70012001F013F82B7803F0EF032B7014B90A2001F00BF8013E0CB1002ED4D10F4A137803F0BF031370137803F08003DBB213700232137803F088
:401C0000F00313700132137803F0F00343F00F0313700132137803F0F00343F00F03137070BD00BF20510040225100402151004010B50446FFF78AFF2009FFF765FF04F04F
:401C40000F00FFF761FF10BD38B505460078012404E0FFF7EDFF285D0134E4B20028F8D138BD00BF08B5FFF7E3FF08BD10B50446FFF76CFF2009FFF72DFF04F00F00FFF794
:401C800029FF10BD08B5282000F09EFF0320FFF721FF052000F098FF0320FFF71BFF0F2000F092FF0320FFF715FF012000F08CFF0220FFF70FFF052000F086FF0620FFF730
:401CC000D5FF0E20FFF7D2FF2C20FFF7CFFF0820FFF7CCFF0120FFF7C9FF0C20FFF7C6FF0320FFF7C3FF052000F06EFF08BD00BF08B50C20FFF7BAFF0122014B1A7008BD25
:401D00004882FF1F08B5054B5B7823B9FFF7BAFF0122024B5A70FFF7EBFF08BD4882FF1F08B5032819D8DFE800F002070D1381F08000FFF79BFF08BDA1F14000C0B2FFF750
:401D400095FF08BDA1F16C00C0B2FFF78FFF08BDA1F12C00C0B2FFF789FF08BD044A137803F0EF03000100F0100018431070704710510040044A137803F0DF03400100F00D
:401D8000200018431070704710510040044A137803F0BF03800100F0400018431070704710510040044A137803F07F03C001C0B218431070704700BF10510040024B18780E
:401DC00000F00100704700BF31510040024B1878C0F3C000704700BFC1510040024B1878C0F30010704700BFC1510040024B1878C0F34010704700BFC151004008B501F0E4
:401E000063F80B4A137843F020031370A2F20112137843F01003137002F58072137843F01003137001F054F800F0C6FD08BD00BF96650040014B1878704700BF656400404C
:401E4000014B1878704700BF65650040034B1B7813F0040FFAD0024B187070476564004046640040014B1878704700BF56640040024A137843F00103137070477565004018
:401E8000024A137803F0FE03137070477565004008B501E00A4B1B780A4B1B7813F0200FF8D101F011F8084B1A7842F001021A701A7802F0FE021A7001F00AF808BD00BF77
:401EC00056640040656500409664004008B50F22074B1A70FFF7DCFFFFF7ACFFFFF7B0FF0023044A137002F58072137008BD00BF866500408564004008B5054B1B7823B90F
:401F0000FFF7E4FF0122024B1A70FFF777FF08BD4A82FF1F044A137803F0FB03800000F00400184310707047105100407222084B1A70202201331A700622A3F265131A7012
:401F4000472210331A70002203F253131A7070478865004010B500F0B7FF04460A4A137843F0200313700132137843F010031370023A137843F01003137000F02BFD20463E
:401F800000F0A6FF10BD00BF9865004008B5054B1B7823B9FFF7CAFF0122024B1A70FFF7D9FF08BD4B82FF1F084B1B78DBB213F0200F06D0064A1078C0B213F01E0F02D148
:401FC0007047002070470020704700BF6965004048640040044B1B7813F0200F01D0012070470020704700BF69650040034B1B7813F0040FFAD1024B187070476765004008
:402000004865004038B5074B1B782BB938BDFFF7EDFF0134A4B201E005460024285D0028F5D138BD4B82FF1F08B50A280FD00C2802D0082806D102E04FF4805209E04FF4FA
:40204000807206E0002000F0BDFD002201E04FF480620021094B198042F2107303FB02F303F6C413064A82FB0302DB17C3EBE223044A1360044B198008BD00BF1483FF1FB5
:40208000AD8BDB681C83FF1F1883FF1F38B500F01BFF04461E4A137843F0020313701032137843F0020313701A3A137843F0020313701032137843F00203137002F5AA52A3
:4020C0001A32137843F0030313701822114B1A70013B1A7842F040021A701A7802F0FC021A70C822053B1A700225A3F59753123B1D70094A137843F0080313700A2000F065
:4021000079FD064B1D60204600F0E2FE38BD00BFAB4300400E5900402F5B004080E200E010B504460A280DD00C2802D0082804D101E0C22207E0422205E0002000F042FD23
:40214000C22200E08222034B1A702046FFF76CFF10BD00BF0A59004008B5102000F070FC0721012000F064FD0749012000F04CFD064A137843F0060313700C20FFF7D0FF11
:402180000022034B1A8008BD850C0000095900401683FF1F08B5054B1B7823B9FFF7DCFF0122024B1A70FFF771FF08BD4D82FF1F024A137843F0010313707047085900401E
:4021C000034B188880B2034B1B88C01A00B27047A25B00401883FF1F084A137843F0040313701032137843F00403137002F66532137843F001031370704700BFA343004001
:40220000014B1870704700BF1B4F0040014B1878704700BF1B4F0040014B1880704700BF1C4F0040014B1880704700BF1E4F004008B5154A137803F00103137002321378C2
:4022400003F0FC031370114B1A7802F0CF021A701A7842F030021A701A7802F0F0021A701A7842F00F021A70094A137843F0010313703B20FFF7D0FF3B20FFF7D3FF0820CC
:40228000FFF7BEFF08BD00BF184F0040234F0040194F004008B5054B1B7823B9FFF7C8FF0122024B1A70FFF797FF08BD4E82FF1F024B1B68C3F88C00704700BF08ED00E012
:4022C0004001C0B2014B1870704700BF13E400E04FF40022014B1A60704700BF00E100E04FF40022014B1A60704700BF80E100E010B50446FFF7F4FF2046FFF7D9FF072073
:40230000FFF7DEFFFFF7E4FF10BD00BF024B187800F00100704700BFF1510040084A137843F0010313701032137843F00103137002F64D32137843F001031370704700BF4F
:40234000A3430040014B1880704700BF044F0040014B1880704700BF064F0040014B1870704700BF034F004008B5194A137843F0020313700232137803F08F0343F020037F
:402380001370144B1A7802F0CF021A701A7842F030021A701A7802F0F0021A701A7842F00F021A704FF4C870FFF7CCFF0020FFF7CFFF0020FFF7D2FF074A137843F0010363
:4023C000137002F65E32137843F00103137008BD004F00400B4F0040A343004008B5054B1B7823B9FFF7C0FF0122024B1A70FFF795FF08BD4F82FF1F084A137843F00203FB
:4024000013701032137843F00203137002F65932137843F001031370704700BFA3430040084A137803F0FE031370A2F66932137803F0FD0313701032137803F0FD03137062
:40244000704700BF0C4F0040014B1880704700BF104F0040014B1880704700BF124F0040014B1870704700BF0F4F004008B5194A137843F0020313700232137803F08F03C5
:4024800043F020031370144B1A7802F0CF021A701A7842F030021A701A7802F0F0021A701A7842F00F021A70FF20FFF7CDFF7F20FFF7D0FF0020FFF7D3FF084A137843F0E9
:4024C0000203137002F66A32137843F00103137008BD00BF0C4F0040174F0040A343004008B5054B1B7823B9FFF7C0FF0122024B1A70FFF781FF08BD5082FF1F08B50A284B
:402500000FD00C2802D0082806D102E04FF4805209E04FF4807206E0002000F053FB002201E04FF480620021094B198042F2107303FB02F303F6C413064A82FB0302DB17E2
:40254000C3EBE223044A1360044B198008BD00BF2483FF1FAD8BDB682883FF1F2283FF1F10B500F0B1FC04461E4A137843F0010313701032137843F0010313701A3A1378F0
:4025800043F0010313701032137843F00103137002F5AA521232137843F0030313701822114B1A70013B1A7842F040021A701A7802F0FC021A70C822053B1A700222A3F5F4
:4025C00097530C3B1A70094A137843F0080313700A2000F00FFB0122054B1A60204600F077FC10BDAB43004006590040275B004080E200E010B504460A280DD00C2802D0E5
:40260000082804D101E0C22207E0422205E0002000F0D8FAC22200E08222034B1A702046FFF76CFF10BD00BF0259004008B5102000F010FA0721002000F0FAFA074900200D
:4026400000F0E2FA064A137843F0060313700C20FFF7D0FF0022034B1A8008BDAD260000015900402083FF1F08B5054B1B7823B9FFF7DCFF0122024B1A70FFF771FF08BD94
:402680005182FF1F024A137843F001031370704700590040034B188880B2034B1B88C01A00B27047A05B00402283FF1F704700BF08B500F03DFA00F045FA08BD08B5FFF7F5
:4026C000F7FF08BD30B583B00C468DF8070000F0C7FAB4F5006F52D22509A4EB0514A4B200F092FB00284CD101230DF107022146402000F0E1FA044607282FD1234B1B7817
:4027000013F0020FFAD0214B1B7813F0020F06D01E4B1B789B0805D04FF0FF3403E04FF0FF3400E00024E4B9194A537812782946402000F025FB072816D1144B1B7813F054
:40274000020FFAD0114B1B7813F0020F0FD00F4B1B789B0810D04FF0FF340DE0012809D10AE04FF0FF3407E04FF0FF3404E04FF0FF3401E04FF0FF3400F06CFB02E001240E
:4027800000E00424204603B030BD00BF224700402C83FF1F38B5044600F096FB054600F0FBF904F1804000F500400478E4B200F001FA284600F08CFB204638BD38B5044691
:4027C0000D4600F04DFA15F0800F48D100F01CFB002846D110222146402000F0A9FA07282FD1214B1B7813F0020FFAD01E4B1B7813F0020F06D01C4B1B789B0805D04FF02D
:40280000FF3403E04FF0FF3400E00024E4B9174A537812782946402000F0B2FA072816D1114B1B7813F0020FFAD00F4B1B7813F0020F0FD00C4B1B789B080DD04FF0FF34AF
:402840000AE04FF0FF3407E04FF0FF3404E04FF0FF3401E04FF0FF3400F0FCFA02E0012400E00424204638BD224700402C83FF1F7222084B1A702022FD331A700622A3F507
:40288000B1731A70472210331A70022250331A70704700BF8764004010B500F015FB04460A4A137843F020031370FD32137843F010031370A2F58172137843F0100313703A
:4028C00000F0D2F8204600F003FB10BD9764004008B5054B1B7823B9FFF7CAFF0122024B1A70FFF7D9FF08BD5282FF1F054A137843F0040313701032137843F004031370E7
:40290000704700BFA8430040054B1A7802F0FD021A701A7800F0020010431870704700BF28580040014B1870704700BF825B0040064B1B78C3F3810303F19243063393F8F2
:402940002831DBB2024A1370704700BF285800400A46004008B5064B1A7802F0F3021A701A7800F00C0010431870FFF7E1FF08BD2858004010B50024054B1C7001331C7082
:402980000420FFF7E7FF2046FFF7BEFF10BD00BF2858004008B5074B1B7823B9FFF7EAFF0122044B1A70FFF7A1FFFA20FFF7BAFF08BD00BF5482FF1F054A137843F0010371
:4029C00013701032137843F001031370704700BFA2430040054A137843F0040313701032137843F004031370704700BFA2430040014B1B685864704708ED00E04001C0B2AC
:402A0000014B1870704700BF01E400E00222014B1A60704700E100E00222014B1A60704780E100E010B50446FFF7F6FF2046FFF7DFFF0720FFF7E2FFFFF7E8FF10BD00BFA8
:402A4000034B1A7800F0F80010431870704700BF06410040034B1A7800F0F80010431870704700BF02410040054A137843F0020313701032137843F002031370704700BF87
:402A8000A243004010B500F0EBF800F0BDF910BB012000F09BF9072818D102210F4800F0F1F802280AD102E0012000F0A3F80C4B1B7813F0020FF7D0002409E0084B1B788D
:402AC00013F0020FE9D04FF0FF3401E04FF0FF3400F0C0F900E00424204610BD2C83FF1F2247004010B500F0BBF800F08DF9D0B900F0CCF90446072812D102E0012000F07F
:402B000079F80A4B1B7813F0020FF7D0074B1B7813F0020F04D0054B1B789B0800D1002400F098F900E00424204610BD2247004008B5FFF7D7FF034610B9FFF7A3FF034638
:402B4000184608BD08B500F0BFF90F4A137843F0080313701032137843F008031370C8220A4B1A700A4A137843F0100313701032137843F010031370064B1B7813F0200F7D
:402B8000FAD000F0A5F908BDA043004001470040AC43004000470040054A137843F001031370034B1B7813F0020FFAD0704700BF02470040024A137803F0FE031370704740
:402BC0000247004001BE704710B5044605E0084B186800F071F9A4F50044B4F5004FF6D8034B586800FB04F000F066F910BD00BF9C81FF1F08B5034B1B7A00FB03F000F081
:402C00005BF908BD9C81FF1F70B504460E46074B1D681F2802D90020FFF7D4FF04F01F04103455F8240045F8246070BD08ED00E038B504460D46072902D90020FFF7C2FFA0
:402C40001F2C02D90020FFF7BDFF04F01F0000F1604000F564406D01EDB2057038BD00BF08B500F031F9064A137843F0080313701032137843F00803137000F029F908BD11
:402C8000A043004070B506460D4600240CE00120FFF7B0FF064B1B7813F0010FF7D0054B1B7833550134E4B2AC42F3D3204670BD224700402047004030B43E2801D81F2B5F
:402CC00003D93F2827D90F2B27D8174C247814F0020F24D0154CB6252570D4252570012525700234247814F0020F1AD10F4C2070C1F300202070C9B22170591EC9B2217086
:402D0000002104E0545C094804700131C9B29942F8D3072006E0012004E0012002E0042000E0092030BC70472247004020470040114B1B7813F0020F19D010B40F4BB624AD
:402D40001C70D5241C7002241C7002331B7813F0020F0ED1094B1870002304E0CC5C0748047001339BB29342F8D3072002E004207047092010BC7047224700402047004006
:402D800030B4104C247814F0020F15D00E4CB6252570D8252570052525700234247814F0020F0BD1084C2070080A2070C9B2217022702370072002E0042000E0092030BC86
:402DC000704700BF22470040204700400C4B1B7813F0020F0FD00B4BB6221A70E1221A700E221A7002331B7813F0020F05D1054B187007207047042070470920704700BF4F
:402E0000224700402047004010B500F05DF80F4B1B78A3B901220D4B1A700D4B1B6813F0010F0ED00A4A136823F00103136000BF00BF00BF0122054B5A60002402E004242D
:402E400000E0002400F044F8204610BD5882FF1F0400084008B500F037F80A4B00221A705B68012B0AD1084A136843F00103136000BF00BF00BF0022024B5A6000F028F817
:402E800008BD00BF5882FF1F04000840074B1B7813F0020F08D0064BB6221A70E0221A700D221A7007207047042070472247004020470040000000000230800803D000BF2C
:402EC00001380046FCD17047EFF3108072B6704780F31088704700BF014B1868704700BF0C82FF1F0E4B70B51E460E4C0025E41AA410A54204D056F8253098470135F8E7AA
:402F000000F044FE084B094C1E46E41AA4100025A54204D056F8253098470135F8E770BD983B0000983B0000983B0000A03B0000024B0146186800F06BB800BF0C82FF1F17
:402F4000024B0146186800F017B800BF0C82FF1F10B5431E0A44914204D011F8014B03F8014FF8E710BD03460244934202D003F8011BFAE77047000038B50546002944D052
:402F800051F8043C0C1F002BB8BFE41800F0DAF81E4A1368114613B96360146030E0A3420DD92268A018834201BF18685B681218226063600C6023E0A24203D813465A6823
:402FC000002AF9D118681918A1420BD12168014458188242196013D110685268014419605A600DE002D90C232B6009E021686018824201BF106852680918216062605C6022
:403000002846BDE8384000F09EB838BD6482FF1F70B5CD1C25F0030508350C2D38BF0C25002D064601DBA94202D90C23336046E000F088F8234B1C681A462146A1B10B680C
:403040005B1B0ED40B2B03D90B60CC18CD501EE08C420BBF63684B681360636018BF0C4615E00C464968E9E7174C23681BB9304600F02CF820602946304600F027F8431C20
:4030800018D0C41C24F00304A0420DD12560304600F059F804F10B00231D20F00700C31A0ED05A42E25070BD211A304600F00EF80130EBD10C233360304600F044F800200C
:4030C00070BD00BF6482FF1F6082FF1F38B5064C0023054608462360FEF78AFC431C02D1236803B12B6038BD3083FF1F0EB400B54FF402719CB0ADF814106FF000410491AE
:4031000007914FF6FF711DAB02900690084853F8042BADF81610006802A9019300F06EF8029B00221A701CB05DF804EB03B070470C82FF1F034613F8012B002AFBD1181AA9
:4031400001387047704770472DE9F0478E6882469E420C46914698463ED88A8912F4906F3AD02568096902236F1A656905EB450595FBF3F57B1C43449D4238BF1D465305EB
:403180000FD52946FFF744FF064698B13A462169FFF7DEFEA38923F4906343F08003A38113E02A4600F0E3FA064670B921695046FFF7E2FE0C23CAF80030A3894FF0FF30AC
:4031C00043F04003A381BDE8F08726613E44266046466561ED1BA560464528BF464649463246206800F0A8FAA36800209B1BA36023681E442660BDE8F08700002DE9F04F44
:403200009DB003938B8980461C060D4616460DD50B695BB94021FFF7FBFE2860286118B90C23C8F80030CDE040236B610023099320238DF82930DFF89CB130238DF82A3033
:4032400037463C4614F8013B1BB9B7EB060910D003E0252BF9D02746F3E74B46324629464046FFF771FF013000F0A780099B4B4409933B78002B00F0A08000234FF0FF3263
:4032800004930793059206938DF853301A930126052221784E4800F041FA671C049B38B14B4A3C46801A06FA00F018430490EFE7D90644BF20228DF853201A0744BF2B2252
:4032C0008DF8532022782A2A03D0079A00210A200BE0039A111D12680391002A10DA524243F00200079204900BE027463B780134303B092B03D800FB02320121F5E701B1C2
:4033000007923B782E2B1ED17B782A2B0AD1039B02371A1D1B680392002BB8BF4FF0FF33059310E0002319460593781C0A2407463A780130303A092A03D804FB012101234C
:40334000F5E703B1059103223978224800F0E6F940B14023CBEB000003FA00F0049B013718430490397806221B487E1C8DF8281000F0D4F988B1194B33B9039B073323F097
:4033800007030833039314E003AB00932A46144B04A94046AFF3008007E003AB00932A460F4B04A9404600F093F8B0F1FF3F824603D0099B5344099342E7AB895B0601D455
:4033C000099801E04FF0FF301DB0BDE8F08F00BF563B00005C3B0000603B000000000000493100002DE9F04791461F460A698B6806469342B8BF1346C9F8003091F8432033
:403400000C46DDF8208012B10133C9F800302368990642BFD9F800300233C9F80030256815F0060510D104F1190A07E00123524639463046C04701301AD00135E368D9F8E9
:4034400000209B1A9D42F1DB94F843302268003318BF012392060FD5E118302081F843005A1C94F845102244023382F8431003E04FF0FF30BDE8F08704F143023946304639
:40348000C0470130F4D02268D9F80050E36802F00602042A08BF5D1B2269A3680CBF25EAE57500259342C4BF9B1AED184FF000091A344D4509D00123224639463046C04729
:4034C0000130D5D009F10109F3E70020BDE8F0872DE9F04317460A7E85B06E2A984606460C460C9B01F1430E00F0AE8011D8632A22D009D8002A00F0BB80582A40F0CA80C3
:4035000081F84520834955E0642A1ED0692A1CD0C0E0732A00F0B08009D86F2A2ED0702A40F0B8800A6842F020020A603EE0752A24D0782A3AD0ADE01A6801F14205111DD7
:403540001960136884F84230A8E021681A6811F0800F02D0111D196008E011F0400F02F10401196002D0B2F9003000E01368002B3CDA2D225B4284F8432037E021681A68EE
:4035800011F0800F02D0111D196007E011F0400F02F10401196001D0138800E01368227E5C496F2A14BF0A2208221BE078225A4984F845202268186812F0800F00F10405DE
:4035C0001D6003D1550601D5038800E00368D00744BF42F0200222601BB9226822F0200222601022002084F8430001E049490A226568002DA56008DB206820F00400206001
:403600002BB9002D7DD175460CE0002B79D07546B3FBF2F002FB1033CB5C05F8013D03460028F5D1082A0BD12368DA0708D5236962689A42DEBF302305F8013C05F1FF350F
:40364000C5EB0E0323612EE008681A6810F0800F496903D0101D1860136808E010F0400F02F104001860136801D0198000E0196000232361754616E01A68111D19601568EF
:4036800000216268284600F049F808B1401B6060636804E004F1420584F8422001232361002384F84330CDF800803B4603AA21463046FFF797FE013002D14FF0FF3026E0D6
:4036C00023692A4639463046C0470130F5D023689B0710D5002504F1190907E001234A4639463046C0470130E7D00135E368039A9B1A9D42F2DBE068039B9842B8BF1846FB
:4037000005E00B7804F1420584F842308AE705B0BDE8F083673B0000783B000010B5C9B202449042034605D01C7801308C42F8D1184610BD002010BD884210B501EB0203FA
:4037400001D8421E0BE09842FBD28118D21AD34204D013F8014D01F8014DF8E710BD994204D011F8014B02F8014FF8E710BDF8B5074615460E4621B91146BDE8F840FFF71D
:4037800047BC1AB9FFF7F8FB2846F8BD00F015F885420ED929463846FFF73AFC044650B131462A46FFF7D4FB31463846FFF7E4FB01E03046F8BD2046F8BD51F8040C0028FA
:4037C000BEBF091851F8043CC018043870470000000000002564207300000000524941535A544153210000002573202D20656B6B6F723A2025730000524941535A544153A5
:4038000049204D4F440000002B333625730000006D6F6462616E000066696779656C6F002A202D206265616C6C697461736F6B0023202D2066696779656C6F206D6F6400B2
:40384000456C6573697465732E2E2E00523A204D6F7A67617365727A2E000000523A20526565642D72656C652E00000049726A612062652061206B6F646F74210000000065
:403880005043205541525420696E74657266616365206861737A6E616C617462616E2E20566973737A612024206265697261736176616C2E0D0A0000497264206265206119
:4038C000206B6F646F74206120666F6C797461746173686F7A2E0D0A2046696779656C6F206D6F646261206E656D206C656865742068656C79657A6E692C206373616B203F
:4039000061206265616C6C697461736F6B2065726865746F656B20656C2E0A00523A2046656E7965727A656B656C6F00253032643A253032640000003230253032642D258D
:403940003032642D25303264000000004D616C6C6F6320004D616C6C6F63206572726F7200000000566973737A6176616C746173206E6F726D616C20757A656D6D6F646218
:40398000612E200D0A0000004869626173206B6F64210000257320232F2A00002564207320233A4F6B202A3A58000000424500004B49000025732076616E206B617063732E
:4039C0006F6C766100000000313A20426520303A204B69202A3A58002564206820233A4F6B202A3A58000000556A2028302D3234293A0000202020202020202020202020D8
:403A000020000000556A206B6F6420756A72613A000000004E656D20656779657A6E656B206D656721000000413A506172616D2E20423A204B6F6400433A2054656C2E209D
:403A40002A3A204B69000000413A456C657369746573692069646F00313A3C2D20323A2D3E202A3A204B6900413A437369706F672E20686F73737A6100000000413A417576
:403A8000746F2E2062656B617063732E00000000413A4465616B742E2069646F00000000413A456A737A616B61206B657A642E00413A456A737A616B612076656765000095
:403AC000413A46656E7965727A2E206E657A7A6500000000556A3A0031203A2062652C20303A206B690000004B6572656D2061206B6F646F743A0000556A206B6F646F74E9
:403B00003A2000002B333600004F0040240000510040100040510040300000000140000880080140800700140140000800400140000A004C01400002005001402000000081
:403B4000605200406C0900480600000801407409004880004300232D302B2000686C4C00656667454647003031323334353637383941424344454600303132333435363792
:403B8000383961626364656600000000F8B500BFF8BC08BC9E4670474D0000006D1A0000F8B500BFF8BC08BC9E46704729000000C03B0000C880FF1F480100002801000071
:403BC00000000000FF0003013075000034333231283A0000383A0000710F0000483A0000583A0000DD0F0000683A0000583A00004D1000007C3A0000583A0000BD10000059
:403C0000903A0000583A000045110000A03A0000583A0000B5110000B03A0000583A00002D120000C03A0000583A0000A5120000D882FF1FD43A0000C1130000D882FF1FD0
:403C4000D43A000009140000D882FF1FD83A000051140000E83A00007C3800005D0F0000F83A00007C380000B5140000D882FF1F043B000031160000FF000000373032366D
:403C8000363833303700180101001400140014003883FF1F0000E02EC05D00001800000000366E0100000000000000000000000000000000000000000000000000000000E5
:403CC00000000000543B0000000000000000000000000000000000000000000000000000000000000000000000000000000000000000000000000000000000000000000035
:403D000000000000AC81FF1F000000000000000000000000000000000000000000000000000000000000000000000000000000000000000000000000000000000000000038
:403D40000000000000000000000000000000000000000000000000000000000000000000000000000000000000000000000000000000000000000000000000000000000043
:403D80000000000000000000000000000000000000000000000000000000000000000000000000000000000000000000000000000000000000000000000000000000000003
:403DC00000000000000000000000000000000000000000000000000000000000000000000000000000000000000000000000000000000000000000000000000000000000C3
:403E00000000000000000000000000000000000000000000000000000000000000000000000000000000000000000000000000000000000000000000000000000000000082
:020000040003F7
:0200000480007A
:40000000064F004004520040015B004002640040056500405D0201402D0301405804014041050140510601404C070140170801403D090140070B0140020D01405514014014
:400040004F15014047160140511701404718014050190140041A0140121B0140034001400441014006420140074301400244014004450140064601400347014008480140A5
:4000800017490140054C0140044D0140075001400151014001300A360D501636194022361180184019401C802F21820F87728438860F870F8872893802930540068008B112
:4000C0000A0E0E4C1308146C150A1683171419131B041D131E081F0C250327042CB12D202E462F053080310F320F3340344A36303730388039803A283B023E413F0440011D
:40010000454049FF4A074BFF4C404D204EF04F0550085401580459045A045B045C115D115F01604061A8624063208050850C8711880289108A0C8C248E408F039001952098
:40014000987099149A08A040A110A30CA509A710A830AA44AC40AD1CAE30AF02B002B11FB27CB320B601BE41BF04D804D904DC21DF01001203010518069407210B480C8013
:400180000E2010801206174018121B011D941E601F042040220423402606274128612D082E8032183514374138643D0445804C8056805C025E485F208E08C0FBC2AAC48BB3
:4001C000CA5BCCF6CE4ED010D6F0E604040308010A020B020C031008110613091709180C19081B031C011E02200C2108230527062A042F083001320233083507360C38883C
:400200003B203E413F044001464049FF4A074BFF4C404D204EF04F055008580459045A045C215D025F01604061A86240632081018702880189018D019902A301A401A501BD
:40024000AB02AC01AF01B001B301B702BE01BF44C014C102C50EC6C0C7B0C829C9FFCAFFCBFFCEF0CF44D00CD409D804D904DA04DB04DD01DF01E6C0EA40EB0200680520D9
:40028000080309200A0210481609171819011A011B081F0120042120220826402710286029402D602E0630093120362038203C803D0A3E104201468447404D0450185304D5
:4002C000540156105D015EA05F046702824888088C1092089424950496209A849B409C619E10A401AC02AD04AF01B401C047C20BC4AACAFBCC27CEF4D0B8D6F0D81005017F
:40030000130121012902350339204036410142204404450E46FC47DB483D49FF4AFF4BFF4C224EF04F48500459045A045C205F0162C0644065026610671268C069026B12F8
:400340006C406D026E406F0280038110843F8518882C89088A138C338D248E0C9001930496339763980299409C0F9D609E30A008A11CA361A404A51CA762A80CA97FAD6744
:40038000AF18B00FB31FB42CB61CB760BA82BB08D602D713D804D904DB04DC11DD10DF010068028008140A020B80102813011401160218401A021B6120202302261029102F
:4003C0002B512C402F043014328A340238283B813C243F204480452046014748480449104D204F045662578459016994703C73018104820189218E20900492489308944026
:4004000095419636970499019A089C629D609E039F08A308A454A505A620A780AE10AF80B520C00FC20FC40ECAAFCC8FCE4FD0F0D220D601E004EE0488028A0D8D0E9104F1
:400440009309950397049C099E06A005A105A20AA30AA803AA0CB00FB10FB20FB902BA0AD804D904DF0100100408058206280A020C410E200F08110212081502160117180E
:4004800018101A801D191F5020402610274528802C402D842E282F403209340235103640370438403D103F86452847414E025410570482088C808D01930498019A019B10BA
:4004C000A140A340A504B601B740C0F2C2F1C4FACAF1CCF3CEF8D0F0D210E010EC40EE04880189408B048F10A504E460E8408D04E6440210051F0608091F0A100C040D0AD1
:400500000E020FB1100212051407151417891A081C071D011F4620012202300731203318341035C0360837073E503F10404341064201440246CE480C49FF4AFF4BFF4C6228
:400540004DA04EF04F41500C5418580459045A045B045C125D115F016640670269106A306B106D106E106F12800182028402860488028A088C0D9002920D97039B039C0D51
:400580009F01A00DA40DA80DAD02B00FB103BA02D201D440D804D904DB04DF01010803AA040805200680070109A00A800B200C800E4012401501171419501A801E40200486
:4005C0002108228227402E80310832803520374839143B80404441044202441045084804512053805B026150640166286D8081088242874089408A408F409048911D932077
:400600009780980199209AA89B1F9C10A084A180A32AA682A808AC90B102B302B501C0FFC29FC478CA10CC7ACE0ED00FD204D601D87CE210E401E630EA0100070102023811
:40064000040A05980610070208560A090C040D9A0E80100411981302140115021798186019211BD81C841D381FC02084219A24802604288429FC2B032D132F643113327FE0
:400680003480350F37E038083BA03E1056025728580459045B045F01800282048501880889018D019601A008A40CA602AA01B001B301B40EBA20BB20BE01D401D804D904D2
:4006C000DB04DC10DD20DF010120034004080520068007410B100C800EA00F081008126013011501171419221C201D201E202008210422082408266027482D212E80366088
:40070000370539943C803E043F01582059015A4865046D436E146F1574C081808710882089408B108E10904091949248954096349780980199049A689B029C909D609F48FF
:40074000A32CA444A521A6AAA904AC42B020B120B210C0FAC2F4C47ECAB0CCF0CEDED60FD840E208E601E810EE0B01100401050808040B040D1C0E630FE1101F126013637C
:40078000147F15FF187319181A0C1C5C1D1C1E231FE220022140240325E72718280C29602C082D24302C311F32103360340F3580364C39203A223B023E044031410545B0AB
:4007C00047CE483249FF4AFF4BFF4EF04F44500C56025711580459045A045B045C225D225F0166C06A406B028E01B201D418D804DB04DC02DD20DF010180062807010C0427
:400800000D080E4A14401611172018101C011D201E681F10260927482A102B082D802F58340437613C103E4A454047044E804F805504570159015E20600461406C046D04A3
:400840006E80760B77208004841089048B018D018E88900493809408950498409B059C029D809F08A010A148A340A524A642A701AA40AD01AE10AF10B112B201B404B50119
:40088000C0E1C2F0C4F0CAF0CCF0CEF0D050D210D621D80CE2E0E8B0B802BE01D804DF011D028002830889808A208D029C029D809E20A708A801AA02B140B340B504E69093
:4008C000E880EEC033203510CC3081109D10A720E6205380A380A720AF80D420EE1018101F045680AB20C630D440EE207001DC01608083809402D8021B049C80A780B401A9
:40090000C608E8029C80A780AB04660468086C0893089E80B410D880DAC00D201504670873107C8085208A808C888E04931895049E84A408AD04AF10C280C420D880DC806B
:40094000DE20E010EA10EC401F80A780B480C601E80811018901C408E601000708060A070C0510071A071C04000F0000010402024000000000030C043000000530000008FC
:4009800010032004000003200103060C000A4004204010000C000310004040000040080001000E10403000000F0F30400000282000000101240305000100C00E18FFFFFFAB
:4009C00062A0F0410C0000000000000004040400220200010000000000004002001030100010101200000000000000000000000000000000840078BF8700870200040000F4
:400A0000000800040000000001000001000000000000000000FFFF000000000000FFFF00800000008145440040000A00160018011700180100000000000000000000000079
:400A40000000000000000000000000000000000000000000000000000000000000000000000000000000000000000000000000000000000000000000000000000000000076
:400A80000000000000000000000000000000000000000000000000000000000000000000000000000000000000000000000000000000000000000000000000000000000036
:400AC00000000000000000000000000000000000000000000000000000000000000000000000000000000000000000000000000000000000000000000000000000000000F6
:400B000000000000000000000000000000000000000000000000000000000000000000000000000000000000000000000000000000000000000000000000000000000000B5
:0200000490006A
:0400000000004005B7
:0200000490105A
:04000000BC90ACAF55
:0200000490303A
:02000000FD9B66
:0200000490402A
:4000000000000000000000000000000000000000000000000000000000000000000000000000000000000000000000000000000000000000000000000000000000000000C0
:400040000000000000000000000000000000000000000000000000000000000000000000000000000000000000000000000000000000000000000000000000000000000080
:400080000000000000000000000000000000000000000000000000000000000000000000000000000000000000000000000000000000000000000000000000000000000040
:4000C0000000000000000000000000000000000000000000000000000000000000000000000000000000000000000000000000000000000000000000000000000000000000
:0200000490501A
:0C00000000012E16106900012E300E04C5
:00000001FF